:020000040800F2
:1000000048A2002439030008333C0008C33B000821
:10001000313C000873050008135900080000000077
:100020000000000000000000000000002141000866
:100030009507000800000000313F00085D410008FE
:100040005303000853030008530300085303000838
:100050005303000853030008530300085303000828
:100060009707000853030008530300089D05000884
:100070005303000853030008530300085303000808
:1000800053030008530300085303000853030008F8
:1000900053030008530300085303000853030008E8
:1000A00053030008B5420008530300085303000837
:1000B00053030008530300085303000853030008C8
:1000C00053030008530300085303000853030008B8
:1000D00053030008530300085303000853030008A8
:1000E00053030008530300080000000053030008F6
:1000F0005303000853030008530300085303000888
:100100005303000853030008530300085303000877
:100110005303000853030008530300085303000867
:100120005303000853030008530300085303000857
:100130005303000853030008530300085303000847
:1001400000000000000000000000000000000000AF
:100150005303000853030008530300085303000827
:100160005303000853030008530300085303000817
:1001700053030008530300089105000853030008C7
:1001800053030008530300085303000853030008F7
:1001900053030008530300085303000853030008E7
:1001A00053030008530300085303000853030008D7
:1001B00053030008530300085303000853030008C7
:1001C00053030008530300085303000853030008B7
:1001D00053030008353C000853030008530300088C
:1001E0005303000853030008530300085303000897
:1001F0005303000853030008530300085303000887
:100200005303000853030008530300085303000876
:100210005303000853030008530300085303000866
:1002200053030008530300085303000800000000B4
:1002300053030008530300080000000053030008A4
:100240005303000853030008530300085303000836
:100250005303000853030008530300085303000826
:100260005303000853030008530300085303000816
:100270005303000853030008530300080000000064
:100280005303000853030008530300080000000054
:10029000000000005303000800F002F800F03CF8F2
:1002A0000AA090E8000C82448344AAF10107DA45D1
:1002B00001D100F031F8AFF2090EBAE80F0013F0E7
:1002C000010F18BFFB1A43F0010318478C660000AA
:1002D000AC660000103A24BF78C878C1FAD852073B
:1002E00024BF30C830C144BF04680C6070470000B0
:1002F0000023002400250026103A28BF78C1FBD82F
:10030000520728BF30C148BF0B6070471FB506F0C9
:10031000FFFA1FBD10B510BD00F0F1F81146FFF750
:10032000F5FF05F0F7FA00F00FF903B4FFF7F2FF5D
:1003300003BC00F017F9000009488047094800474E
:10034000FEE7FEE7FEE7FEE7FEE7FEE7FEE7FEE785
:10035000FEE7FEE704480549054A064B70470000E2
:100360004142000899020008489C002448A2002449
:10037000489E0024489E0024032A40F2308010F05A
:10038000030C00F0158011F8013BBCF1020F624430
:1003900098BF11F801CB00F8013B38BF11F8013BC1
:1003A000A2F1040298BF00F801CB38BF00F8013B6E
:1003B00011F0030300F07180083AC0F0088051F892
:1003C000043B083A51F804CBA0E80810F5E7121DE9
:1003D0005CBF51F8043B40F8043BAFF30080D20708
:1003E00024BF11F8013B11F801CB48BF11F8012BD4
:1003F00024BF00F8013B00F801CB48BF00F8012BF7
:1004000070474FF000020429C0F0128010F0030C76
:1004100000F01B80CCF1040CBCF1020F18BF00F8F7
:10042000012BA8BF20F8022BA1EB0C0100F00DB8A6
:100430005FEAC17C24BF00F8012B00F8012B48BF04
:1004400000F8012B70474FF0000200B513469446A8
:100450009646203922BFA0E80C50A0E80C50B1F11C
:100460002001BFF4F7AF090728BFA0E80C5048BF30
:100470000CC05DF804EB890028BF40F8042B08BFCE
:10048000704748BF20F8022B11F0804F18BF00F8CA
:10049000012B704770477047704710B5203AC0F085
:1004A0000B80B1E81850A0E81850B1E81850A0E847
:1004B0001850203ABFF4F5AF5FEA027C24BFB1E8E0
:1004C0001850A0E8185044BF18C918C0BDE8104023
:1004D0005FEA827C24BF51F8043B40F8043B08BF2C
:1004E0007047D20728BF31F8023B48BF11F8012BF3
:1004F00028BF20F8023B48BF00F8012B7047754623
:1005000000F02CF8AE4605006946534620F007007F
:10051000854618B020B5FFF71DFFBDE820404FF01D
:1005200000064FF000074FF000084FF0000BAC46FC
:10053000ACE8C009ACE8C009ACE8C009ACE8C00947
:1005400021F007018D46704710B50446AFF30080D7
:100550002046BDE81040FFF7E8BE000000487047A5
:100560002801002401491820ABBEFEE72600020046
:100570007047FEE7806B816C496D022906D001212E
:1005800080F83510C16C41F04001C16400F007B93A
:10059000014800F007B900BF90010024014800F0B5
:1005A00017BB00BF9407002410B50168234A91428D
:1005B00023D0234A91421CBF224A91421DD0224A95
:1005C00091421CBF214A914217D0214A91421CBF3F
:1005D000204A914211D0204A91421CBF1F4A9142A9
:1005E0000BD01F4A91421CBF1E4A914205D01E4AA1
:1005F00091421CBF1D4A914213D101F0F802182309
:100600001EA4103AB2FBF3F303F00703E35CC365E7
:1006100040F2FF3399435F2A88BF04318165084661
:1006200010BD134A9142E8D0124A9142E5D0124AD5
:100630009142E2D021F0FF01F0E700BF100002403C
:100640002800024040000240580002407000024072
:1006500088000240A0000240B8000240100402409E
:100660002804024040040240580402407004024042
:1006700088040240B8040240A0040240000610169C
:100680000006101610B50168394A91420BD0394A5C
:1006900091421CBF384A914205D0384A91421CBF52
:1006A000374A914213D101F0FC011422154B08394D
:1006B000B1FBF2F203F1800103EB820302F01F02AF
:1006C0000124C0E9183104FA02F2826610BD2D4AF5
:1006D0009142E8D02D4A9142E5D02B4A9142E2D096
:1006E00001F0F8021823084C103AB2FBF3F3A142D0
:1006F0001A4688BF0832AA34A14228BF1A46034BC3
:10070000D8E700BF005802580F040240000802401A
:1007100070B501794A1E072A1AD8144B0568144E81
:1007200003F14404B5420BD0124EB5421CBF124E29
:10073000B54205D0114EB5421CBF114EB54208D18D
:10074000012503EB8101C0E91B1405FA02F242679F
:1007500070BD0C4EB542F3D00B4EB542F0D00B4EEF
:10076000B5421CBF0A4B03F14404E9E7FC580258A8
:10077000085402581C540258305402584454025829
:10078000585402586C5402588054025894540258D9
:10079000FC0802407047042000F08ABE7047704792
:1007A00070470000B0B504460068056969070CD5BC
:1007B00004214161204AE06C40F00200E064A06C3A
:1007C000026584F8351000F019F9A8070ED52168E4
:1007D000A06C02224A61E16C41F00101E16416491A
:1007E0000165042184F8351000F008F9E80605D504
:1007F000206810214161204600F066F8280705D5E1
:10080000206808214161204600F0F6F8E80708BF9B
:10081000B0BD20680168890703D5C16821F01E01B9
:10082000C160C16821F00101C16001214161204620
:10083000BDE8B040FFF7B4BF7505000800283ED002
:10084000F8B5044690F8350010B9204600F03EF89F
:10085000022084F835001B4FD4F818C0BCF1000FFB
:100860001CBF00206062D4E9000ED4E9023506689E
:100870003E40066004F120076669D4E90B12354357
:10088000266935432B43E0CF2B4333433B43194386
:1008900011430268114341EA0C01BEF1100F41EA15
:1008A0000E01016001D1E1698161C16841F01E0161
:1008B000C1600020E064012184F83510F8BD0120FA
:1008C000704700BF07F0E0FF704700002DE9F04FD0
:1008D00085B004460068434A904240F08080424818
:1008E0006D46DFF808A14FF00D0800274FF0020910
:1008F000934650F8041C41F0010140F8041C50F8E4
:10090000041C01F0010100910099016841F01001FF
:100910000160016801F0100100910099016841F443
:1009200080710160016801F4807100910099016893
:1009300041F080010160016801F08001009100999F
:10094000016841F0010101600068294600F00100E2
:1009500000900098CDF81080CDE90277CDF8049092
:100960006020009002F11020D0473020204E03F08C
:100970006EF906F58060D0474FF4BC4003F067F98C
:100980003046D047502003F062F90BF18050D04739
:10099000184D4FF480304B264FF4807C4FF4806329
:1009A0004FF480414FF48052C5E908077048C5E90B
:1009B0000373C5E90521C5F81CC085E8C1002846B8
:1009C00000F0B4FB08B1FFF7E9FE4E20052100223C
:1009D000AC63A56400F0B2FF4E2000F09FFF05B0AD
:1009E000BDE8F08F00000248E0440258C51400083A
:1009F000001C02589407002470470000B0B500287E
:100A00005CD090F83510022956D10168584A9142BD
:100A100023D0584B99421CBF574B99421DD0574B7E
:100A200099421CBF564B994217D0564B99421CBF56
:100A3000554B994211D0554B99421CBF544B99428A
:100A40000BD0544B99421CBF534B994205D0534B8A
:100A500099421CBF524B994233D1042380F8353060
:100A6000914223D0434881421CBF434881421DD05C
:100A7000424881421CBF4248814217D041488142CE
:100A80001CBF4148814211D0404881421CBF4048B0
:100A900081420BD03F4881421CBF3F48814205D074
:100AA0003E4881421CBF3E4881424DD1086820F03B
:100AB00001000860002102E0802141650121084613
:100AC000B0BD384B9942C8D0374B9942C5D0374B4F
:100AD0009942C2D00A6822F00E020A600A6822F027
:100AE00001020A60324A91420BD0324A91421CBF45
:100AF000314A914205D0314A91421CBF304A91425D
:100B00002BD100F158041ECC1D6825F480751D60A2
:100B100002F01F02012303FA02F24A60816E616053
:100B2000C16E31B10A6822F480720A60D0E91C12E9
:100B30004A60002180F83410012280F83520026DCF
:100B4000002ABCD09047B5E716488142AED016487F
:100B50008142ABD015488142A8E71A4A9142D0D0D1
:100B6000194A9142CDD0194A9142CAD0E1E700BF5B
:100B7000100002402800024040000240580002409D
:100B80007000024088000240A0000240B80002400D
:100B9000100402402804024040040240580402406D
:100BA0007004024088040240B8040240A0040240DD
:100BB000085402581C5402583054025844540258E5
:100BC000585402586C540258945402588054025895
:100BD0002DE9F843044600200090C34FDFF8840C51
:100BE000D4F85890D0F800802068D9F80060D9F87F
:100BF0000010B8422AD0BD4A90421CBFBC4A904265
:100C000024D0BC4A90421CBFBB4A90421ED0BB4A73
:100C100090421CBFBA4A904218D0BA4A90421CBFB8
:100C2000B94A904212D0B94A90421CBFB84A904289
:100C30000CD0B84A90421CBFB74A904206D0B74A7F
:100C400090421CBFB64A904240F09A81E16D082262
:100C500001F01F018A40324236D004233D46B8429B
:100C600024D0A24FB8421CBFA14FB8421ED0A14F02
:100C7000B8421CBFA04FB84218D0A04FB8421CBF0A
:100C80009F4FB84212D09F4FB8421CBF9E4FB842F0
:100C90000CD09E4FB8421CBF9D4FB84206D09D4F0E
:100CA000B8421CBF9C4FB84240F0958107681F4274
:100CB0002F4609D0036823F004030360C9F8082015
:100CC000626D42F00102626501228A4032422FD0F9
:100CD000B84224D0854B98421CBF854B98421ED009
:100CE000844B98421CBF844B984218D0834B984247
:100CF0001CBF834B984212D0824B98421CBF824B40
:100D000098420CD0814B98421CBF814B984206D030
:100D1000804B98421CBF804B984240F069814369E8
:100D20001B0605D5C9F80820626D42F00202626513
:100D300004228A4032422FD0B84224D06B4B9842D2
:100D40001CBF6B4B98421ED06A4B98421CBF6A4B2B
:100D5000984218D0694B98421CBF694B984212D0F8
:100D6000684B98421CBF684B98420CD0674B984226
:100D70001CBF674B984206D0664B98421CBF664B1F
:100D8000984240F0438103689B0705D5C9F80820C5
:100D9000626D42F004026265102202FA01F13142F2
:100DA0003FD00822B84224D0CB4B98421CBFCB4B3B
:100DB00098421ED0CA4B98421CBFCA4B984218D0CA
:100DC000C94B98421CBFC94B984212D0C84B98429D
:100DD0001CBFC84B98420CD0C74B98421CBFC74B96
:100DE000984206D0C64B98421CBFC64B984240F072
:100DF0001B810368134214D0C9F808100268016807
:100E0000520306D4C90506D4016821F00801016027
:100E100001E0080301D4216C00E0A16C09B1204677
:100E20008847E06D00F01F01202000FA01F23242F5
:100E30007CD020681023B84224D0A74EB0421CBFFB
:100E4000A64EB0421ED0A64EB0421CBFA54EB04228
:100E500018D0A54EB0421CBFA44EB04212D0A44E32
:100E6000B0421CBFA34EB0420CD0A34EB0421CBF38
:100E7000A24EB04206D0A24EB0421CBFA14EB0421C
:100E800040F0DF8006681E4250D0C9F8082094F870
:100E900035300268042B16D122F016020260426936
:100EA00022F080024261226C0AB9A26C1AB1026877
:100EB00022F0080202603F208840C9F8080002F0D2
:100EC00004FF216D57E00168520308D4C90529D4F5
:100ED000016821F01001016002F0F7FE22E0080332
:100EE00020D4616C1FE000BF1000024028000240C7
:100EF000400002405800024070000240880002405A
:100F0000A0000240B8000240100402402804024041
:100F10004004024058040240700402408804024029
:100F2000A0040240E16B09B120468847606D0028AB
:100F30004FD0606DC0071DD04FF41650B8FBF0F1D4
:100F4000042084F835002068026822F00102026063
:100F5000009A013200928A4202D80268D207F7D181
:100F600002F01FFF0068C0074FF0030008BF012018
:100F700084F83500E16C61B32046BDE8F8430847CA
:100F8000634A90421CBF634A90420CD0624A90422E
:100F90001CBF624A904206D0614A90421CBF614A1F
:100FA000904240F08C80E26D02F01F03042202FAAE
:100FB00003F602680E4201D057074FD402269E4026
:100FC0000E4201D0970754D4D940090701D5110723
:100FD00062D4BDE8F8834C4FB8423FF467AE4B4F44
:100FE000B8423FF463AE504FB84218BF08235DE6E5
:100FF000454B98423FF493AE444B98423FF48FAE3A
:10100000494B98423FF48BAE026891E63E4B9842C2
:101010003FF4B9AE3D4B98423FF4B5AE424B9842D7
:101020003FF4B1AE0268B7E6374B98423FF4E1AE09
:10103000364B98423FF4DDAE3B4B984218BF04223A
:10104000D7E6314EB0423FF41DAF304EB0423FF4D0
:1010500019AF354EB04218BF022313E71104C9F887
:10106000046013D4910615D4016821F004010160D5
:1010700010E01104C9F804601BD491061DD4016866
:1010800021F00A01016002F020FE16E0D00301D435
:10109000A16C70E7216C6EE7016821F00E01016020
:1010A000012000FA03F1C9F80410606502F079FE2E
:1010B0005EE7D00301D4616C5DE7E16B5BE7EE4A6C
:1010C00090423FF470AFED4A90423FF46CAFEC4970
:1010D00088423FF4BBAD7CE728000240400002405C
:1010E000580002407000024088000240A000024008
:1010F000B8000240100402402804024040040240AC
:10110000580402407004024088040240A0040240D7
:1011100094540258085402581C540258305402582F
:101120004454025858540258B80402402DE9F84378
:10113000044600F095FA002C46D005462068B94FC9
:10114000B8422AD0B84988421CBFB849884224D046
:10115000B74988421CBFB74988421ED0B649884269
:101160001CBFB649884218D0B54988421CBFB54952
:10117000884212D0B44988421CBFB44988420CD07E
:10118000B34988421CBFB349884206D0B24988425D
:101190001CBFB249884240F0EB80022184F8351030
:1011A00002F0FFFD016821F0010101602068016883
:1011B000C9070CD000F054FA401B0628F6D32020B3
:1011C0006065032084F835000120BDE8F8830168DC
:1011D000AC4AB946D4E90257D4E906C301EA020889
:1011E000D4E90462D4E9081E45EA08053D433543C5
:1011F0002A431A43114341EA0C01BEF1040F03D103
:10120000D4E90B231A4311439F4A1268B2F1005FDD
:1012100014D365684F46A5F12902062A0BD3A5F120
:101220003F02042A07D3A5F14702022A03D3A5F1FE
:101230004F02032A03D841F4801100E04F460160B9
:10124000BEF1040F416921F0070141EA0E0128D1E6
:10125000D4E90A53294323B3BCF5005F08D0BCF19D
:10126000000F11D1022D12D0012D07D07DB118E051
:10127000032D16D8DFE805F00E0B0E02A3F1C072A5
:10128000B2FA82F2520904E0032D03D309D1C3F369
:10129000006232B140206065012084F83500BDE86D
:1012A000F883416102F015FE02F0D2FD2068B842D9
:1012B0003BD05D4988421CBF5C49884235D05C49BF
:1012C00088421CBF5B4988422FD05B4988421CBFC3
:1012D0005A49884229D05A4988421CBF59498842F4
:1012E00023D0594988421CBF584988421DD05849CB
:1012F00088421CBF5749884217D0574988421CBFB3
:101300005649884211D05E4988421CBF55498842DF
:101310000BD0554988421CBF5449884205D05449D6
:1013200088421CBF534988426FD12046FFF7AAF973
:10133000A06804F16003802806BF00206060606838
:10134000C5B20ECB013807280D60536005D8204682
:10135000FFF7DEF902F0D4FD03E00020C4E91B0032
:10136000606700206065012184F83510BDE8F883CE
:101370003B4988421CBF3B4988420BD03A498842CE
:101380001CBF3A49884205D0394988421CBF3949B7
:1013900088422ED1022104F1080584F8351002F0AC
:1013A00000FD2ECD06686FF3101646EAD202A1F1B9
:1013B0008006B6FA86F67609B603402908BF1026DD
:1013C00042EA0601D4E9066232432A431A4341EA5B
:1013D000D201226A41EA121140F80819C0B2142160
:1013E000B0FBF1F08000E06502F073FD02F00DFD4E
:1013F0005CE721498842CDD020498842CAD02049A3
:1014000088423FF4CAAE4020DAE61B4988428CD0BD
:10141000134988423FF489AF184988423FF485AFA9
:101420009FE700BF10000240280002404000024039
:10143000580002407000024088000240A0000240B4
:10144000B800024010040240280402404004024058
:10145000580402407004024088040240A004024084
:1014600094540258085402581C54025830540258DC
:1014700044540258585402586C540258805402582C
:10148000B80402403F8010FE0010005CB0B5044676
:1014900000F0E6F80546DD48611C007818BF0444FA
:1014A00000F0DEF8401BA042FAD3B0BD7047000048
:1014B00003490A68024208BF70470860FFF7F6BF99
:1014C000880000582DE9FC4F5B4A0A244FF0000ABF
:1014D0004FF0000B9042594A08BF092402444FEADA
:1014E000B223092B38BF4FEAB2240094012700220F
:1014F0000E6836FA02F500F09C8007FA02F916EA47
:10150000090E00F090800323D1F804C003FA0BF514
:101510000CF00308EE43A8F10105012D12D88568EF
:101520005346D1F80CA00AFA0BF435409A462C43E6
:101530008460CCF300144568944025EA09052C43E7
:10154000446005E0B8F1030F02D14FF0030820E03A
:10155000C4688D68344005FA0BF52C43C460B8F1BB
:10156000020F16D10AF01C040F2303FA04FC6FF0DB
:10157000030303EA520303441D6A25EA0C0C0D69B8
:1015800005FA04F444EA0C041C62D1F804C00CF01F
:101590000308046808FA0BF33440234303601CF487
:1015A000403F40D0DC4C274E236843F002032360C9
:1015B00023680F2403F002030193019D0AF00C033A
:1015C00022F003059C40AF5927EA0404009F07FA64
:1015D00003F32343AB514FF0B04633684D6843EA01
:1015E0000E04EF0258BF23EA0E043460144EAF021B
:1015F000336843EA0E0458BF23EA0E043460AF0395
:10160000D6F880304FF0010743EA0E0458BF23EAB2
:101610000E04C6F88040ED03F36F43EA0E0458BF92
:1016200023EA0E04F4670AF1040A0BF1020B0132FB
:101630005EE7BDE8FC8F00BF002402580000FEA753
:101640000400005808040058002A08BF09048161FA
:101650007047000001480068000C70470010005CF3
:101660006B480068704700BF90F84120202A03D1E2
:1016700090F84020012A01D1022111E0242280F8B3
:1016800041200268136823F001031360136823F4F8
:101690008053136013681943734602F0EEFA9E46B6
:1016A0000846704790F84120202A03D190F8402046
:1016B000012A01D1022110E0242280F84120026891
:1016C000136823F001031360136823F4706343EA83
:1016D0000121734602F0D1FA9E4608467047000089
:1016E00000B3B0B5044690F8410018B902F016FCFA
:1016F00000F044F8242084F84100D4E90003D4E940
:10170000021223F07063012A056825F001050560C7
:101710000361836823F40043836005D141F40041F1
:10172000816009E001207047022A41F40441816090
:1017300002D14FF40061416041680F4A04F1100585
:1017400011434160C16821F40041C1602ECD1143B5
:1017500041EA0321C160216A29430160016841F027
:101760000101016000206064202184F841102063A1
:1017700084F84200B0BD00BF00800002B0B5B8B030
:10178000044602A8B8210830FEF75DFE206818491B
:1017900088422AD1082000240394029002A800F075
:1017A0005DFF08B1FEF7FAFF124D286840F0020015
:1017B0002860286800F0020001900420CDE936403E
:1017C00001203590122034904FF4406033900198FE
:1017D00033A90948FFF776FEA86840F48000A860A6
:1017E000A86800F480000190019838B0B0BD00BF37
:1017F00000580040E04402580004025803480449DD
:1018000000780A6810440860704700BF0000002498
:10181000F099002480B5032000F0B6F801F058FCE0
:101820000E490F4B0A68096801F00F01C2F3032249
:10183000595C9A5C01F01F0102F01F02D040094A76
:101840001060C840084908600F2000F00FF808B188
:10185000012080BD00F04EF8002080BD18440258E1
:101860002A690008080000240C000024B0B58AB0E2
:101870000F282DD80446192000220025214600F00B
:101880005DF8192000F04AF8154804601548016811
:1018900041F001010160006800F00100029002982F
:1018A00002A801A901F0C0FB01F004FC4000104CAB
:1018B0000D490E4B40F2E732B0FBF4F00138C1E9BC
:1018C0000030C1E902520D61084602F078F808B113
:1018D000012002E0044802F083F80AB0B0BD00BF66
:1018E00004000024F0440258F40E002400000140DB
:1018F00040420F0081B008480022016841F0020117
:10190000016000680F2100F00200009000986FF065
:10191000010001B000F012B8F4440258002809D4C4
:1019200000F01F0180B2012202FA01F14009024ACF
:1019300042F82010704700BF00E100E0F0B5184BFE
:101940004FF0FF361C68C4F30224E51E84F0070440
:1019500038BF002506FA05F7BA43042C28BF042433
:1019600006FA04F4A14300F00F04A940043C11431B
:10197000044A234409010244002848BF03F10C0231
:101980001170F0BD00E400E005494FF6FF030A685E
:101990001A4060F30A22034810430860704700BFF2
:1019A0000CED00E00000FA0501688A6942F000626F
:1019B0008A610122C0F80025002280F8F424486DD5
:1019C000024A104348650020704700BF0300001022
:1019D0007047006841620020704770B50068436A34
:1019E000B1B1846A0139002503EB1443CCB2A5429E
:1019F00007D200EB85060135D6F8046103EB1643E8
:101A0000F5E700EB810043EA0241C0F8041102E06F
:101A100043EA02418162002070BDD0F8080502F05F
:101A200037BF01EBC10200EB8202D0F80805926CCF
:101A300002F0ABBE01EBC10200EB8202D0F8080558
:101A4000D2F8882202F0F2BED0F8080502F022BFD8
:101A500001F00F0249B2002902EBC20200EB82033F
:101A600003F51F7248BF03F13C020068114603F002
:101A7000B3BD10B5044601F00F0002F015F9C3BF65
:101A8000002281F87D2201F51F710122DCBF81F85F
:101A90003D203C31087094F8BC04012804BF0220AA
:101AA00010BD02F0F8F903F03FFB02F092B9B0B5B7
:101AB000044601F00F006268824201D201251BE05A
:101AC00002F0F2F8C3BF002281F87D2201F51F71F8
:101AD0000122DCBF81F83D203C31087000258D706B
:101AE00094F8BC04012801D1022505E002F0D3F9E5
:101AF00003F05EFC84F8BC542846B0BDB0B5044683
:101B000001F00F0002F0D0F8C3BF002581F87D522C
:101B100001F51F710125DCBF81F83D503C318A6021
:101B20000B7108704A7802B14883022B01D1002062
:101B3000487194F8BC04012804BF0220B0BD02F033
:101B4000AAF903F03DFA02F08EB9B0B501F00F0129
:101B5000002501EBC10400EB840404F5227784F82E
:101B60007C1284F87D5204F51F712CC7C368012BC9
:101B700008BFC4F89822DAB2006803F05BFC0020CA
:101B8000B0BDB0B5044601F00F054068854284BF82
:101B90000120B0BD48B2B0F1FF3F09DD01EBC1004B
:101BA000002104EB800080F87D1200F51F7108E031
:101BB00005EBC500012104EB800080F83D1000F129
:101BC0003C0194F8BC2401200D708870012A04BFE8
:101BD0000220B0BD84F8BC04206803F010FC2DB9CD
:101BE000217B206804F2C44203F0B6FB02F03BB94B
:101BF000B0B501F00F0505EBC50100EB81042146EE
:101C000001F83C5F01F10C0700252CC701234B7044
:101C1000C368012B08BFA265DAB2006803F00AFCB2
:101C20000020B0BD2DE9F04F89B0056882462846F6
:101C300003F05CFD10B109B0BDE8F08F02F00EF8C2
:101C40000028F8D0D5F80808C0F30D20CAF8FC0425
:101C500002F004F80146DAF80000890703D541696B
:101C600001F00201416105F50061049103F06AFD94
:101C70000146DAF800000595C9063BD5816921F0D7
:101C8000100181612C6A04F00F05C4F3434006285B
:101C900018D0022827D147F6F07014EA000622D0A7
:101CA00005EBC500340922460AEB80070598D7F8F2
:101CB000881203F04BFDD7F8880200EB1610C7F826
:101CC000880207E00AF2C4410598082203F03EFDAD
:101CD000C4F30A1405EBC5000AEB8000D0F890129B
:101CE0002144C0F89012DAF80000816941F0100137
:101CF0008161059D03F026FD00030DD401F0AEFFC8
:101D00004003049E00F1E18001F0A8FF002800F1EB
:101D1000A681DAF80000BAE1DAF8000003F0F1FC7D
:101D200006460AF527744FF430684FF0000B0AF2AC
:101D3000C4400890002EE1D0F00700F0B8805FFAB0
:101D40008BF9DAF80000494603F0F4FC0746C007B7
:101D50005CD005EB080001218160DAF8000008EB97
:101D60000001036C8A68DAF80C50012D24D11507A4
:101D70002FD4950647D412F0280F059D46D1AC46C6
:101D8000DD4DAB4202D9120400F198802268096946
:101D900065466FF3DF41511A44F80C1CB8F5306FFB
:101DA0002CD1DAF88C22002A00F08D80DAF8880233
:101DB0000844CAF8880221E0CF4D05F58075AB4292
:101DC00011D11004059D0AD4900617D520208860F3
:101DD00014E0C948059D834218D9100416D54FF464
:101DE0000040886012E0B8F5306F059D06D1DAF842
:101DF0008C1219B90021089A03F0AEFA50464946F0
:101E0000FFF718FE02E020208860059D380722D5E4
:101E100005EB08000821B84B8160DAF8001008EBE8
:101E200001000A6C81689A4212D9090402D54FF464
:101E300000418160504600F0B2FBDAF80C00012846
:101E400009D1DAF800000121089A03F085FA02E0CE
:101E5000504600F0A4FBF80603D505EB080010215E
:101E60008160B80716D56869000604D504994868EA
:101E700040F48060486014F81D0C012806D1002051
:101E800004F81D0C4946504600F05FFA05EB0800C7
:101E900002218160B80603D505EB0800202181608E
:101EA000B80404D505EB08004FF4005181602434D8
:101EB00008F1200876080BF1010B3BE74FF40040D6
:101EC00088606546A2E7012195E7DAF8000003F093
:101ED00011FC07460AF2C4400022029005F510608A
:101EE0000690002F3FF410AFF80700F0B580D1B294
:101EF000DAF800000792089103F00AFC0446C007D4
:101F000027D0079B0122716B03F00F0002FA00F04B
:101F100021EA00007063069800EB43108260DAF853
:101F20000C00012811D103EBC3000AEB8000D0E9BB
:101F300011121144816443B9DAF84C0028B9DAF877
:101F400000000121029A03F007FA50460899FFF7B2
:101F500068FD2007079A04D50698082100EB421077
:101F60008160E00604D50698102100EB42108160E4
:101F7000600604D50698402100EB42108160A0075E
:101F800018D52846114603F081FB079A02EBC200E0
:101F90000AEB800010F83F1F012906D100210170D3
:101FA0005046089900F0CDF9079A0698022100EBF7
:101FB0004210816020064FD502EBC2000AEB800B75
:101FC000D94659F84C1FC84658F8040F814243D3EC
:101FD000DAF800405BF8445F091A039757460BF1A3
:101FE0000406A94238BF0D4604EB421101F5106A00
:101FF00015E0DBF80050101A3B7B31680093A842D3
:1020000038BF0546ABB22046089A03F071FC306831
:1020100028443060D8F800002844C8F80000D9F8F7
:102020000020DAF81830E91C9BB2B3EB910F28BFFF
:102030008242DED88242BA46059DDDE90376079AE0
:102040000AD802F00F00012101FA00F0D4F8341888
:1020500021EA0000C4F834087F08013241E77068C3
:1020600020F0010070609AF8F404012807D10020E4
:102070008AF8F40400215046FFF7AAFC02E050461B
:1020800000F077FA01F0DCFE01F00041416103F05D
:1020900059FB000502D4DAF800000AE0B068C00776
:1020A00002D0504600F09AFA01F0CAFE01F4006135
:1020B000416103F047FB000117D501F0C1FE01F0BB
:1020C000006141619AF8F41419B1504600F086FAA3
:1020D0000BE001218AF8F414406D0121C0F3830064
:1020E000CAF8F8045046FFF773FC01F0B7FDC004CE
:1020F00004D4DAF8000055E00A30544FD5F804084B
:10210000102120F00100C5F80408DAF8000003F0FF
:10211000BDFA05F51060DAF804104FF67F32A9B168
:1021200082600139036823F400130360C0F80822B9
:10213000D0F8003223F40013C0F80032D0F8003297
:1021400043F00063C0F800322030E8E7F06940F067
:102150000110F061DAF8300040B1D6F8840040F0A8
:102160000B00C6F8840006F1440006E0706942F2F4
:102170002B010843706106F1100001680AF2C442A5
:1021800041F00B010160306820F4FE6030609AF885
:102190000C10DAF8000003F0DFF801F051FE01F452
:1021A0008051416103F0CEFA0146DAF8000089045B
:1021B00019D502F043FFDAF8000003F08BFACAF8F1
:1021C0001000DAF8004000F057FF9AF8102001469E
:1021D000204603F015FB504600F0B6F901F030FE42
:1021E00001F40051416103F0ADFA000702D4DAF8BE
:1021F000000007E0504600F0C0F901F021FE01F0B8
:102200000801416103F09EFA000606D401F026FDA4
:10221000C00219D4DAF8000038E00599012440F230
:10222000A325886920F080008861DAF804008442E0
:10223000ECD21AF80500012803D1E1B25046FFF7AD
:1022400007FC24350134F0E705980AF16304012600
:10225000012700F51265DAF80400874211D22868D8
:102260006178012909D1B0F1FF3F06DC47F0800019
:102270002670C1B25046FFF7EBFB243420350137FE
:10228000E9E701F0DDFD01F480114161059C03F0F7
:1022900059FA800202D4DAF8000030E004F5326125
:1022A0000AF52970DAF8042001230124944221D28E
:1022B0000D680678012E14D1B5F1FF3F11DCDAF874
:1022C000FC6405F4803506F00106B54209D1059E8F
:1022D000B56945F08005B56100F8013C75692D06CA
:1022E00003D5243020310134E0E70499486840F4F4
:1022F0000070486001F0A4FD01F40011416103F099
:1023000021FA400002D4DAF8000007E05046FFF757
:1023100084FB01F095FD01F08041416103F012FA68
:1023200040077FF588ACDAF800004468610704D5FF
:102330005046FFF789FBDAF800004168214341600D
:1023400079E4D0F8080502F0F8BAD0F8080502F0F0
:1023500003BB2DE9F04F8BB0002800F087800446C6
:10236000056890F8BD0428B9002084F8BC04204614
:1023700000F092F8032084F8BD04E86BC00501D496
:102380000020E060206802F0E1FF04F1040B04F19A
:10239000140E04F1240A20680A90D4E90C509BE83A
:1023A0000E089EE8C0509AE80007CDE90850CDE934
:1023B00000B602A880E8805005A880E800070A98C7
:1023C00002F04AFE00284ED120680021002503F0CB
:1023D000D8F9616801200022D3B2994210D903EBE9
:1023E000C30604EB860686F83C20A6F8563086F82D
:1023F0003D00C6E91155F56486F840500132EBE71F
:1024000000200022D3B299420FD903EBC30304EB9F
:10241000830383F87C22C3E9A100C3F88C0283F80C
:10242000800283F87D020132ECE704F1140E04F11E
:10243000240AA0680A902268D4E9033BD4E90C502E
:102440009EE8C0509AE80007CDE90850CDE900B6F3
:1024500002A880E8805005A880E8000710460A9A84
:1024600002F0B6FE30B1022084F8BD0401200BB0AA
:10247000BDE8F08F002084F83800012084F8BD0406
:10248000606A012802D12046FFF78EFA206802F028
:1024900093FE0020EBE7000070B5B8B0044602A838
:1024A000B8210830FDF7CFFF20682449884243D186
:1024B0004FF48020029002250024039410954FF4DD
:1024C000001024904FF44060139011900320CDE948
:1024D0000E5009200D9001200C9002A800F0BEF8CB
:1024E00008B1FEF75BF900F0B1F8154EB06840F0A6
:1024F0000100B060B06800F001000190CDE93454F3
:102500000A20CDE936404FF4C0503390019833A9EA
:102510000C48FEF7D7FF30680521002240F000602C
:102520003060306800F00060019001986520FFF78E
:1025300005FA6520FFF7F2F938B070BD00000840D9
:10254000D84402580000025810B50446006928B16A
:10255000022801D0FEF722F9012100E00021D4F881
:10256000080502F064FAD4F80805BDE8104002F04E
:1025700017BAD0F8080502F043BAD0F8080502F0FF
:1025800049BA10B501F0F8FB04BF022010BD84F871
:10259000381001F080FC03F023F901F01ABCD0F8E8
:1025A000082500F2C441104602F04DBA10B501F002
:1025B000E3FB04BF022010BD01F091FC06D4A16A28
:1025C000012903D1816B41F48031816303F038F834
:1025D000206802F0E5FD01F0FCBB000010B50446E8
:1025E000D0F8080502F071FA2068D0F8001E41F01A
:1025F0000101C0F8001E206A20B10348016841F0C3
:102600000601016010BD00BF10ED00E0B0B5124D35
:102610002A682968520705D401F00701081A18BF73
:102620000120B0BD21F00701084301F055FB04462D
:1026300055F8080C800406D4FFF712F801F019FBD6
:10264000F6D90120B0BD0020B0BD00BF024801682E
:1026500041F08071016070470C4802582DE9F04745
:102660000446C078A74F00071CD5A06E4FEA305132
:10267000032908D8DFE801F002090C11F96941F4D7
:102680000031F96109E001260DE001F050FB01E0A5
:1026900001F0B6FB064630B9A06E396C21F440114A
:1026A0000843386400266078BA46C00701D1354631
:1026B00020E0A06D04280BD83546DFE800F0030CBD
:1026C0000F121200F869354640F40030F86108E056
:1026D000012501270FE001F0F3FA01E001F022FBF0
:1026E00005462F463DB9A06D01F02BFB21F00701F7
:1026F00001F03EFB3746607880071ED5E06D4FEA5B
:10270000B010042807D8DFE800F003090C0F0F0011
:1027100001F03FFB08E0012501260FE001F0D0FAAF
:1027200001E001F0FFFA05462E463DB9E06D01F0EB
:1027300008FB21F4E07101F01BFB3E466078400786
:1027400002D4B046574623E0D4F8A80057464FEAD3
:102750007050042807D8DFE800F0030A0D101000BD
:1027600001F001FB09E001254FF0010810E001F044
:10277000A7FA01E001F0D6FA0546A84645B9D4F813
:10278000A800B96C0025B04621F460010843B86484
:102790006078000720D5D4F8AC004FEA30600428F8
:1027A00007D8DFE800F003090C0F0F0001F0DBFA97
:1027B00008E00125012710E001F082FA01E001F0B4
:1027C000B1FA05462F4645B9D4F8AC0001F0B4FA89
:1027D00021F0E06101F0BAFA4746E07880071DD5A4
:1027E000E06C4FEA3010032806D8DFE800F00B0257
:1027F000080B01F0CEFA05E0012501260FE001F0FB
:1028000096FA05462E4655B9E06CDAF83C100025DC
:10281000524621F030010843CAF83C003E46607839
:10282000C0061ED5206E4FEA3030042807D8DFE8F6
:1028300000F003090C0F0F0001F0ABFA08E00125CE
:1028400001270FE001F03CFA01E001F06BFA0546C8
:102850002F463DB9206E01F074FA21F4E04101F0F9
:1028600087FA3746607880061BD5606E4FEA3040A5
:10287000052807D8DFE800F00C03090C0C0C01F068
:102880003AFB04E0012501260CE001F02FFB054690
:102890002E463DB9606E01F054FA21F4E02101F0BA
:1028A00067FA3E46607840061DD5D4F8B0004FEA7E
:1028B0003070052807D8DFE800F00C03090C0C0C79
:1028C00001F019FB04E0012501270DE001F00EFBEA
:1028D00005462F4645B9D4F8B00001F02DFA21F095
:1028E000E04101F033FA37466078000618D5206FD2
:1028F00068B1B0F1005F07D0B0F1805F22D101F084
:1029000048FA04E01044025801F0F5FA05462E4654
:102910003DB9206F01F015FA21F0405101F028FA7D
:102920003E46E078C00702D1B04657461EE0A06C94
:102930005746032809D8DFE800F00F020C0F01F01A
:1029400012FA09E001250126EBE701254FF0010805
:102950000CE001F0ECF90546A8463DB9A06CF96B16
:102960000025B04621F003010843F863A078400633
:1029700001D4474616E0D7F8F00340F48070C7F85A
:10298000F003FEF76DFE0646D7F8F003C00507D446
:10299000FEF766FE801B6428F6D90325032701E0B5
:1029A0002F467DB12078C00746D0E06F4FEAF00097
:1029B000052832D8DFE800F037033437373701F025
:1029C0009AFA2FE0DAF86010D4F8B4005546414086
:1029D00011F4407F0BD0296E2A6E42F480322A66B1
:1029E00021F440712A6E22F480322A662966B0F5FD
:1029F000807F40F0FC81FEF733FE064641F28839C5
:102A00000327DAF86000800700F1EE81FEF728FE68
:102A1000801B03254845F4D9C4E7012501260CE0B5
:102A200001F064FA05462E463DB9E06F01F092F9D7
:102A300021F0380101F0C1F93E462078800719D510
:102A4000A06F052807D8DFE800F00C03090C0C0C78
:102A500001F051FA04E0012501270CE001F046FAEB
:102A600005462F463DB9A06F01F074F921F007012A
:102A700001F0A3F93746207840071BD5D4F894001D
:102A8000052807D8DFE800F00C03090C0C0C01F056
:102A900032FA04E0012501260DE001F027FA05468F
:102AA0002E4645B9D4F8940001F046F921F007010B
:102AB00001F04CF93E46207880061DD5D4F89000F0
:102AC0004FEA3070052807D8DFE800F00C03090C46
:102AD0000C0C01F0F5F804E0012501270DE001F0F0
:102AE0008FF905462F4645B9D4F8900001F032F928
:102AF00021F0E04101F061F93746207840061DD50C
:102B0000D4F89C004FEAB020052807D8DFE800F091
:102B10000C03090C0C0C01F0D3F804E0012501268C
:102B20000DE001F06DF905462E4645B9D4F89C003C
:102B300001F002F921F4E05101F008F93E46207855
:102B400000061DD5D4F8A0004FEA7030052807D83C
:102B5000DFE800F00C03090C0C0C01F0B1F804E004
:102B6000012501270DE001F04BF905462F4645B937
:102B7000D4F8A00001F0E0F821F4604101F0E6F89B
:102B800037462068010713D5D4F88400B0F5805F7C
:102B900006D101F035F9002818BF0127D4F88400C8
:102BA000DAF84410524621F4405101F006F9206849
:102BB000C10613D5D4F89800B0F5807F06D101F096
:102BC0001FF9002818BF0127D4F89800DAF8481038
:102BD000524621F4407101F0B9F82068000318D57D
:102BE000D4F8A400B0F5003F09D0B0F5803F03D081
:102BF00010BB01F065F801E001F002F905462E4630
:102C000045B9D4F8A40001F097F821F4403101F05F
:102C10009DF83E46A07840071ED5D4F88800B0F550
:102C2000401F0FD0B0F5001F09D0B0F5801F40F055
:102C3000D68001F0AEF805E001250126EAE701F0B3
:102C400055F905462F4645B9D4F8880001F082F8B9
:102C500021F4401101F0B1F83746A078C00701D146
:102C60003E4619E0206DB0F5803F03D090B901F0E9
:102C700090F802E001F05BF805462E4665B9206D3C
:102C8000DAF83C100025524621F480310843CAF896
:102C90003C00E5E7012501262168880001D4606831
:102CA00006E001F0ADF8002818BF0126D4E90010B5
:102CB0008A031BD5D4F880206FF0010303EB322385
:102CC000022B0BD34FEA322343B1012B40F08A8011
:102CD000DAF81C3043F40033CAF81C303DB9DAF896
:102CE000443023F440731A43CAF844203546CA02DC
:102CF00007D5626FDAF8403023F000431A43CAF870
:102D00004020CA0008D5D4F8B820DAF8003023F4FF
:102D100080431A43CAF800208A0207D5E26EDAF827
:102D2000403023F080731A43CAF840204A000CD583
:102D3000DAF8002022F40042CAF80020D4F8BC20BF
:102D4000DAF800301A43CAF80020CA0F07D0626DC3
:102D5000DAF83C3023F040531A43CAF83C20090209
:102D600008D5D4F88C10DAF8442022F4400211433C
:102D7000CAF84410C10705D000F0A2FF002818BF10
:102D800005466068810705D501F0B5F8002818BF31
:102D900005466068410705D500F0C9FF002818BF47
:102DA00005466068010705D500F0BCFF002818BF84
:102DB00005466068C10605D501F098F8002818BFDF
:102DC00005466068800604D501F01AF8002818BF8F
:102DD0000125002D18BF01252846BDE8F0870125F3
:102DE00001273AE7012582E75546D4F8B4002A685E
:102DF000094900F4407322F47C5201EA1011B3F542
:102E0000407F6FF31F3008BF0A432A60296E0843D2
:102E100028660025ADE500BFCFFFFF002DE9F84390
:102E2000002800F0FB80934D04468846286800F097
:102E30000F0088420BD2286820F00F0040EA0800FB
:102E40002860286800F00F00404540F0E7802068C7
:102E5000D54F410709D52169BA6900F0F5FF04D9BA
:102E6000BA6922F070021143B961010709D561699D
:102E7000FA6900F0E9FF04D9FA6922F070021143FF
:102E8000F961C1060AD5A169FA6902F4E0629142CA
:102E900004D9FA6922F4E0621143F961810609D587
:102EA000E1693A6A00F0D0FF04D93A6A22F0700270
:102EB0001143396210F002010AD0E268BB6903F0E5
:102EC0000F039A4204D9BB6923F00F031A43BA6176
:102ED000C2073AD0D4E90101BA6922F47062114301
:102EE000B961012807D0032809D002280BD139681D
:102EF00089030CD492E03968C90508D48EE039689A
:102F0000890104D48AE03968490740F1878039692A
:102F1000A94621F0070108433861FEF7A1FB0646E8
:102F200041F288356068396901F03801B1EBC00FB2
:102F300007D0FEF795FB801BA842F3D90320BDE81C
:102F4000F88320684D4600F0020151B1E168BA698A
:102F500002F00F02914204D2BA6922F00F0211432B
:102F6000B961296801F00F0141450AD9296821F0AA
:102F70000F0141EA08012960296801F00F0141456C
:102F80004CD1410709D52169BA6900F05DFF04D22F
:102F9000BA6922F070021143B961010709D561696C
:102FA000FA6900F051FF04D2FA6922F0700211436D
:102FB000F961C1060AD5A169FA6902F4E062914299
:102FC00004D2FA6922F4E0621143F96180060AD55D
:102FD000E069396A01F07001884204D2396A21F04F
:102FE00070010843386200F073F8B969374A2F4B13
:102FF000C1F30321515C01F01F01C840B969186099
:1030000001F00F01515C01F01F01C8402849086020
:1030100004480068BDE8F843FEF728BC0120BDE87D
:10302000F88300BF040000243F2202601E4A52F8C9
:10303000083C03F007034360136803F47063836084
:10304000136803F00F03C360136803F07003036198
:10305000536803F070034361536803F4E0638361D2
:10306000926802F07002C2610248006800F00F002E
:10307000086070470020005280B500F029F80A4926
:10308000124B0A68096801F00F01C2F30322595C70
:103090009A5C01F01F0102F01F02D040034A106049
:1030A000C8400349086080BD184402580800002445
:1030B0000C00002480B5FFF7DFFF0349034A0968CD
:1030C000C1F3022100F0D3BE1C4402582A69000853
:1030D00010B535490869C0F3C20003280FD0022893
:1030E00004BF334810BD40B90868800634485AD53B
:1030F0000968C1F3C101C84010BD2C4810BD8A6ADF
:10310000886ACC6A4B6BC0F3051000B304F001046D
:1031100002F00302644204EAD303022A6FF35F332E
:1031200000EE103AB8EE400A13D0AAB90A68920627
:1031300051BF9FED221A0A68C2F3C102204B42BF61
:1031400023FA02F201EE102AB8EE411A06E000203E
:1031500010BD9FED191A01E09FED161A0A6B9FED45
:10316000193A6FF35F2202EE102AB8EE422A00EEFF
:10317000032AB7EE000A32EE000A02EE100A086BCC
:10318000C0F34620B8EE422A013081EE021A21EE49
:10319000000A01EE100AB8EE411A80EE010ABCEEF8
:1031A000C00A10EE100A10BD0044025800093D008C
:1031B0000024F4000024744A0024744B0024744C4E
:1031C0000090D0030000003970B586B00D4601466E
:1031D00014462348234E09B3D6F8D01000F50060FA
:1031E00041F00401C6F8D010D6F8D01001F0040167
:1031F000009103210491022102914FF40071019189
:10320000002105910391009901A9FEF75BF930684F
:1032100020F07E4040EAC41028431DE0D6F8D010CC
:1032200041F00101C6F8D010D6F8D01001F001012C
:10323000009103210491022102914FF480710191C8
:10324000002105910391009901A9FEF73BF930682F
:1032500020F0FE7028432043306006B070BD00BFF0
:103260000000025810440258F8B5002800F03F81D1
:1032700004460078D74EC0071FD12078800740F160
:103280009C80306910F03801B06A35D0182901D11E
:10329000800731D03068E168002955D020F019004E
:1032A000084300F0E3FC0546306840073BD4FEF7D6
:1032B000D7F9401B0228F7D951E1306900F03801F5
:1032C000B06A102905D018290AD100F0030002289D
:1032D00006D130688003D0D560680028CDD106E1E2
:1032E000606800283ED0B0F5A02F4BD0B0F5803FED
:1032F0004CD000F046FD4CE0E0683168490702D54B
:10330000002800F0F480316821F01901084300F032
:10331000ADFC05463068400705D4FEF7A1F900F082
:10332000CBFCF7D9F8BDFEF795F941F203018842CD
:103330003CD82069716821F47C31402814BF41EAEF
:10334000003041F4003037E020F0010000F08EFC46
:1033500005463068400730D5FEF782F900F0ACFC36
:10336000F7D9DFE700F00DFD00F080FC054630687E
:1033700080037FF582AFFEF773F9411B03206429B8
:10338000F5D9CFE7306840F480203060306840F4F1
:10339000803000F06BFC0546306880033FF56DAF70
:1033A000FEF75EF9401B6428F6D9D8E02069716801
:1033B00021F0FE4141EA006070602078C0063ED5F1
:1033C000306900F03801B06A082905D018291CD1ED
:1033D00000F00300012818D13068C00503D5E0696A
:1033E000802840F08480FEF735F941F203018842DD
:1033F0001ED8206A716821F0F841202814BF41EAE4
:10340000806041F08040706019E03068E169002917
:1034100000F0D08040F0800000F028FC05463068C5
:10342000C005E0D4FEF71CF900F046FCF7D979E7B7
:10343000206AF16821F07C5141EA0060F060207858
:10344000000756D42078800665D42078400774D4CD
:10345000676A002F49D0306900F03800182840F022
:10346000BB80B16A306B012F41D0A26A01F0030327
:1034700093423CD1E26AC1F30511914237D1014632
:10348000226B6FF35F21013A914230D1626BC0F33E
:103490004621013A91422AD1A26BC0F30641013A7A
:1034A000914224D1E16BC0F30660013988421ED1FC
:1034B000A06C716BC1F3CC01884216D0F06A20F089
:1034C0000100F062FEF7CCF80546FEF7C9F8A84205
:1034D000FBD0706B4FF6F8718843A16C40EAC100D5
:1034E0007063F06A40F00100F0620020F8BD012036
:1034F000F8BD706F6169A1B340F001007067FEF71D
:10350000AFF80546706F80079CD4FEF7A9F8401B02
:103510000228F7D923E03068A169E1B340F4805074
:1035200000F0A4FB0546306880043FF58EAFFEF73F
:1035300097F8401B0228F6D911E0D6F8000440F4B1
:103540008070C6F80004FEF78BF80546D6F8000434
:10355000C00516D4FEF784F8401B6428F6D9032072
:10356000F8BD20F001007067FEF77AF80546706F2D
:1035700080077FF567AFFEF773F800F09DFBF6D983
:10358000D0E6A068002842D0052853D0012855D0A5
:1035900000F02EFC55E020F4805000F067FB05465B
:1035A000306880047FF551AFFEF75AF800F084FBD5
:1035B000F6D9B7E620F0800000F058FB05463068E9
:1035C000C0057FF53CAFFEF74BF800F075FBF6D970
:1035D000A8E600BF00440258306820F0807000F078
:1035E00045FB0546022F08D1306880013AD5FEF729
:1035F00037F800F061FBF7D994E6306880017FF579
:1036000074AFFEF72DF800F057FBF6D98AE600F00C
:10361000EFFB3067FEF724F8054641F28837306F3C
:1036200080077FF515AFFEF71BF8411B0320B94259
:10363000F5D977E6306F40F004003067306F40F026
:1036400001003067FEF70CF8054641F28837306F0D
:1036500080073FF5FDAEFEF703F8411B0320B9429A
:10366000F5D95FE604F12805B06A40F2F3318843EA
:103670002ECD0843591E40EA0210B0626FF35F215D
:103680004FF4FE024FF47E4000EB452080B2084428
:10369000A16B02EB01414FF0FE4201F4FE01084430
:1036A000E16B02EB016101F0FE41084430634FF62B
:1036B000F871F06A20F00100F062706B8843A16C31
:1036C00040EAC1007063206CF16A21F00C010843EC
:1036D000F062F06A616C20F002000843F062F06A68
:1036E00040F48030F062F06A40F40030F062F06A3A
:1036F00040F48020F062F06A40F00100F06230682F
:1037000040F0807000F0B2FA0446306880013FF566
:10371000ECAEFDF7A5FF011B03200229F5D901E658
:103720002DE9F84348B3044600205D4AA0622068B2
:10373000904208D05B49884205D09C49884202D01B
:10374000E1680F2919D8E168E36B0125083105EB21
:103750005313C908594390420DD0944A90420AD05D
:10376000504A904218BF082907D802F5744398427E
:1037700018BF904204D1102902D90120BDE8F88376
:1037800094F8810020B900F0EAFA204600F08CF8A5
:10379000022084F88100D4E90009D4F81880B8F137
:1037A000806F036823F001030360836803F4F81E4D
:1037B00012D1B9F1000F07D0B9F5800F0CD1A56B6C
:1037C00035B14FF480090DE0A56BB5F1805F64D190
:1037D000056845F4805505605FEA492502D44FF03D
:1037E000010C0DE0E668072E08D3256D07684FF041
:1037F000000C27F480773D43056006E04FF0000C95
:10380000066826F480760660E668E269A16AA76821
:10381000D4E9045342EA0E021143E26B11433143EF
:103820008160616A626B1143A26B1143226A294372
:1038300019431143D4E91223194339431143A26DAB
:10384000114341EA0801B9F1000F41EA0901C160E1
:103850000DD0016DBCF1000F21F00101016514D103
:10386000616DC26822F000421143C1600DE08168C1
:10387000012262F3CC2181600222816862F34A2135
:103880008160016D21F0010101650020C4F8840010
:10389000012184F88110BDE8F8834FF000099EE70C
:1038A00000380040003C004070B5B8B0044633A872
:1038B0001421FCF7C8FD02A8C021FCF7C4FD206854
:1038C000394988423FD0394988426AD14FF4805003
:1038D00000250395029002A8FEF7C0FE08B1FCF790
:1038E0005DFF3348334C0226016941F48051016188
:1038F000016901F4805101910199016841F00201CF
:103900000160016801F0020101910199016841F033
:1039100001010160006800F00100019001983496F7
:10392000052037900320CDE935503820339033A956
:1039300004F58060FDF7C6FD4FF400403695CDE9F3
:103940003465339027E04FF4005000240394029034
:1039500002A8FEF783FE08B1FCF720FF14480169B6
:1039600041F400510161016901F400510191019993
:10397000016841F010010160006800F01000019042
:10398000CDE93544022034904FF4F0403390019853
:10399000084800F580540520379033A92046FDF7EC
:1039A00091FD38B070BD00BF0034014000300140CF
:1039B000E04402580000025870477047704758B101
:1039C00010B500F05DFA03D100F0FEF900F006F842
:1039D00000F09DFA00F083B90120704770470000A5
:1039E00090F83D10012921D1022180F83D10016895
:1039F000B1F1804FC86840F00100C8600BD0124898
:103A000081421CBF1148814205D0114881421CBF30
:103A1000104881420CD18868114A734600F02CFA94
:103A20009E4618BFB2F5803F0BD17047012070470A
:103A300062488142EFD008488142ECD00748814279
:103A4000E9D000F022BA00BF0004004000080040A6
:103A5000000C0040001800400040014000040140FC
:103A600007000100704710B5044600680169890726
:103A700012D5C16889070FD56FF0020101610121DC
:103A800021778069800702D000F026FA01E000F07B
:103A9000CDF90020207720680169490713D5C16856
:103AA000490710D56FF00401016102212177806977
:103AB00010F4407F02D000F00FFA01E000F0B6F9F8
:103AC0000020207720680169090712D5C16809071D
:103AD0000FD56FF00801016104212177C0698007CB
:103AE00002D000F0F9F901E000F0A0F90020207701
:103AF00020680169C90613D5C168C90610D56FF0E1
:103B00001001016108212177C06910F4407F02D0C3
:103B100000F0E2F901E000F089F900202077206848
:103B20000169C90709D0C168C90706D06FF0010152
:103B30000161204600F03AF820680169090609D5BC
:103B4000C168090606D56FF0800101612046FFF7C4
:103B500034FF20680169C90509D5C168090606D581
:103B60006FF4807101612046FFF726FF206801692C
:103B7000490609D5C168490606D56FF040010161C3
:103B8000204600F01DF820680169890602D5C16849
:103B9000890600D410BD6FF0200101612046BDE808
:103BA0001040FFF70BBF70477047000000680349E3
:103BB000884218BF7047FDF721BE00BF00000140DA
:103BC0007047FEE770B501310023372472B1060F4C
:103BD00001F8023B04EB1075B0F1204F38BF06F13D
:103BE000300501F8035C013A0001EFE770BD000009
:103BF00080B50C480C49002200F0A2FD08B1FCF78A
:103C0000CDFD0848094900F081FF08B1FCF7C6FD69
:103C1000044800F0A0FF18B1BDE88040FCF7BEBD2D
:103C200080BD00BFB8040024680000249C0000246C
:103C3000FEE770470148FDF7F5BF00BFD808002434
:103C40000090009820687047214600F06CBC0090FE
:103C50002946CDE90378CDE901977047DAF80000ED
:103C600001F070BDC0F80418002070473060FDF707
:103C7000F7BC001BB0F57A7F70471160116841F006
:103C8000010111602022002180F8401080F84120BD
:103C90007047D0F8D42200EB8202D2F8B822002A72
:103CA0007047204600F08FBB49B2B1F1FF3F00EBF7
:103CB000C00104EB81017047411B032002297047BA
:103CC00004F10800002100F065B9002084F83400F8
:103CD000012084F8350070472860FDF7C1BC012041
:103CE00084F8480084F83E0084F83F0084F84000DF
:103CF00084F8410084F8420084F8430084F84400CA
:103D000084F8450084F8460084F8470084F83D00B4
:103D1000002010BD0020C4F8D402204610472046E1
:103D200000F074BB04F12800002100F093B904F105
:103D30000800022100F02EB9DAF84810002552469A
:103D40007047DAF840100025524670470843CAF819
:103D500048007047DAF844100025524670470020AA
:103D600084F880007047F86940F40030F8617047CB
:103D70000843CAF840007047044690F8BC04012884
:103D80007047306820F480303060306820F4802044
:103D90007047DAF81C00514640F40030CAF81C00A5
:103DA0007047002184F8341070470020C4F8D40212
:103DB00020460847204600F0E9BA0843CAF8440004
:103DC00070473860FDF74CBC002084F83C0020466A
:103DD0007047002084F8BC0410BD0A5842F000620D
:103DE0000A500A5842F080420A5042F2107270475C
:103DF000306F20F001003067306F20F00400704712
:103E000004F12800022100F025B9E16D012201F042
:103E10001F0102FA01F1416070474FF080510160CB
:103E2000704794F89C020138022870474DF808ED5D
:103E30002046FFF7B8FE20465DF808EBFFF7B4BE5A
:103E4000DAF800004169704702F070029142704751
:103E5000E16D3F2201F01F0102FA01F1816070471C
:103E6000044602F0A7B9002084F8BC04B0BD515C40
:103E700001F01F01C84080BD02400020062A7047A3
:103E8000044690F83D0000287047086840F00100A3
:103E9000086000207047012084F8BC042068704747
:103EA000B8626FF35F214FF47E4000EB42204FF089
:103EB000FE4280B208444FF4FE0101EB034101F4DD
:103EC000FE010844296902EB016101F0FE4108444A
:103ED00070472046FCF768BB2046FFF7C3BD20684B
:103EE000012184F8BC14C16BC905704704F1280096
:103EF000012100F0AFB804F10800012100F04AB838
:103F000004F16C02002307CA03604A607047022074
:103F100084F83D00211D206800F0D2B9002084F80B
:103F20004000204670470000000000000000000034
:103F3000EFF30980BFF36F8F154B1A681EF0100F57
:103F400008BF20ED108A20E9F04F10602DE909002C
:103F50004FF0500080F31188BFF34F8FBFF36F8F86
:103F600002F046FA4FF0000080F31188BDE8090026
:103F700019680868B0E8F04F1EF0100F08BFB0ECE9
:103F8000108A80F30988BFF36F8F704700BF00BFAE
:103F9000400F0024F8B5C34F0546B86A00F003008F
:103FA000032804BF0120F8BD38680C4620F080606B
:103FB000FFF707FF06463868000105D5FDF750FBFF
:103FC000801B0228F7D941E095E80F00BE6A26F46D
:103FD0007C36013946EA0030FFF762FFB863686952
:103FE000F96A21F0C0010843F862A869F96A21F072
:103FF00020010843F8624FF6F871F86A20F01000CB
:10400000F862F86B8843E969012C40EAC100F86363
:10401000F86A40F01000F8624FF4001008BF4FF447
:104020008010002C08BF4FF40020F96A0843F862A2
:10403000386840F08060FFF7C4FE0446386800012D
:1040400006D4FDF70DFB001B0328F7D30320F8BDB2
:104050000020F8BDF8B5934F0546B86A00F003009C
:10406000032804BF0120F8BD38680C4620F08050BA
:10407000FFF7A7FE06463868800005D5FDF7F0FA81
:10408000801B0228F7D941E095E80F00BE6A26F0B0
:104090007C76013946EA0050FFF702FF3864686910
:1040A000F96A21F440610843F862A869F96A21F4C9
:1040B00000710843F8624FF6F871F86A20F48070D6
:1040C000F862786C8843E969012C40EAC1007864A1
:1040D000F86A40F48070F8624FF0807008BF4FF4C7
:1040E0000000002C08BF4FF48000F96A0843F86212
:1040F000386840F08050FFF764FE0446386880005E
:1041000006D4FDF7ADFA001B0328F7D30320F8BD52
:104110000020F8BD000000000000000000000000CA
:10412000074B19680868B0E8F04F80F30988BFF3BF
:104130006F8F4FF0000080F31188704700BF00BF01
:10414000400F002480B5FFF753FD012001F05AFD18
:10415000FBE780B5012001F055FDFBE780B54FF08E
:10416000500080F31188BFF36F8FBFF34F8F02F0C1
:1041700093FA18B103484FF080510160002080F39A
:10418000118880BD04ED00E080B59CB009A84C21E9
:10419000FCF759F901A82021FCF755F90220FEF798
:1041A00035FA0020009001222348016821F0010126
:1041B0000160006800F0010000902048016862F38F
:1041C0008F310160016801F440410091009901685C
:1041D0008904FCD54FF440601B900C210220CDE9EE
:1041E000180109211A90CDE91600CDE912001591A8
:1041F0004FF4803001211491CDE9091009A8FFF78F
:1042000033F840204FF48061CDE90601089000208A
:104210000590CDE903000121032002903F20019089
:1042200001A8FEF7FBFD00204FF400014FF48012BF
:10423000FEF7CAFF1CB080BD2C0400581848025875
:1042400010B51748184CD0F8801041F47001C0F830
:10425000801014490A6842F001020A6000220A61D3
:104260000B6823400B608A61CA610A628A62CA6273
:104270000A634A638A63CA630A644A640B6823F464
:1042800080230B600A6609490968B2EB517F02D1AD
:10429000074901220A604FF00061016010BD00BFB4
:1042A00008ED00E0004402587FEDF6EA0010005CE3
:1042B000088100510148FFF7D6BB00BFF40E00246F
:1042C00070B52A4A0368904222D0B0F1804F1CBFDB
:1042D000274CA04240D123F070034C682343B0F137
:1042E000804F19D0224CA0421CBF224CA04213D0B8
:1042F000224CA0421CBF204CA0420DD0204CA0421A
:104300000AD0204CA04207D01F4CA04204D007E0A6
:1043100023F070034C682343CC6823F44073234399
:104320004E6923F080030C688D6833430360C562D7
:10433000846290420BD0104A904208D0104A9042BA
:1043400005D0104A904202D00F4A904201D109692B
:1043500001630121416170BD064CA042BBD0064CF7
:10436000A042B8D0054CA042B5D0B8E7000001404B
:10437000000400400008004000040140000C004020
:1043800000400140004801400044014080B5D0F8A1
:10439000B82252689047002818BF032080BD002033
:1043A00070470020704780B513460A46002100F090
:1043B000EEFA002080BD80B513460A46002100F0C9
:1043C00091FB002080BD10B58021044600F06BFBFE
:1043D00020460021BDE8104000F065BB80B50521F6
:1043E000C0F8941200220023002100F0D0FA00202F
:1043F00080BD80B513460A460221C0E90633C0F8E5
:104400009412002100F06EFB002080BD80B50421D5
:10441000C0F8941200220023002100F063FB00206A
:1044200080BD000010B5274C0A4602A0FFF70CFC27
:10443000204610BD48494420436F6E6669670000FE
:1044400012200880004870478800002410B51D4CD9
:104450000A4602A0FFF7F8FB204610BD4849442059
:10446000496E74657266616365000000042008800F
:10447000004870470401002410B5124C0A4602A0FF
:10448000FFF7E2FB204610BD53544D6963726F6520
:104490006C656374726F6E696373000010B5094CCC
:1044A0000A4602A0FFF7D0FB204610BD53544D33FF
:1044B000322048756D616E20696E74657266616345
:1044C00065000000A4020024B0B51A200880094944
:1044D00008688A6880180BD0074D4C680822A91C10
:1044E000FFF770FB05F1120120460422FFF76AFB7B
:1044F0000148B0BD00E8F11F0801002410B50278A2
:10450000438893420DD994B29C420AD20478204445
:1045100022444478052CF6D184788C4208BF10BD23
:10452000F1E7002010BDB0B5C8B1002304462578DE
:1045300015B101340133FAE7DCB2022303EB440482
:10454000148003224A700C70002204783CB1DDB262
:10455000023301304C5545F001040A55F5E7B0BD72
:10456000C100044A22FA01F1032888BF0321C8B21E
:10457000704700BF00030103D0F8D41200EB8100A4
:104580000021D0F8C002017300207047B0B581212E
:10459000044600F0F1F8D4F8D4020025A56304EB3A
:1045A0008000D0F8C00238B100F004FDD4F8D40285
:1045B00004EB8000C0F8C0520020B0BD0A21018089
:1045C00000487047F800002410B5044613488121C4
:1045D000FFF794FF08B10A218171222020800F4843
:1045E00010BD00BF10B504460C488121FFF786FFBF
:1045F00008B10721817122202080084810BD00BF2A
:1046000010B5044605488121FFF778FF08B10A215B
:10461000817122202080014810BD00BFD4000024F9
:10462000B0B50446102000F0C7FC0546D4F8D4020B
:1046300004EB800000F530709DB10560207C0A21FC
:10464000C4F8BC52002808BF072161872046812199
:104650000322042300F08FF9012020870020287313
:10466000B0BD002101600220B0BD0000BCB5D0F893
:10467000D42200EB8202D2F8C0320022ADF806202C
:10468000002B51D00A7812F060020ED0202A49D1B6
:104690004A78023A092A45D8DFE802F0051B44446B
:1046A000444444441D21191D2FE04C780B2C39D86B
:1046B0000022DFE804F0063A373737371837373744
:1046C000242F90F89C22032A2CD10DF106010222FE
:1046D0001CE0194619E0C8780022586025E0887867
:1046E0000022186021E0CA78212A20D0222A19D17C
:1046F000CA8812494A2A28BF4A220C3106E090F89B
:104700009C22032A0ED103F108010122FFF771FE5A
:1047100000220AE090F89C22032A03D18878002224
:10472000986002E0FFF74FFE03221046BCBDCA8826
:104730000249092A28BF0922E8E700BF1000002427
:1047400078B10023C0F8D032C0F8C432C0F8B83213
:1047500009B1C0F8B4120270012180F89C1200F077
:10476000A9B80320704780B5D0F8C802FDF79FF9BB
:10477000BDE88040FFF7F4BE80B5D0F8C802FDF771
:1047800078F9BDE88040FFF7EBBEB0B5044669B1EB
:1047900094F89C02032847D1D4F8B8024269002A51
:1047A00042D0FFF7B7FA00283ED0B0BDD4F894024B
:1047B000022833D1D4E9070188420DD9431A1146A2
:1047C0002046E3611A46FFF7F6FD2046002100224D
:1047D000002300F0DCF821E00FD1A16981420CD365
:1047E000D4F89802814208D22046002100220025F8
:1047F000FFF7E1FDC4F89852E7E794F89C0203281C
:1048000005D1D4F8B802C16809B1FFF7CEFA204645
:10481000802100F048F92046FFF7E0FD94F8A0025F
:1048200010B1002084F8A0020020B0BD10B50446ED
:1048300059B194F89C02032828D1D4F8B8028269AF
:1048400022B3FFF767FA08B310BDD4F89402032827
:104850001CD1D4E9570398420BD9C01AC4F85C01A3
:104860001146984238BF034620461A46FFF79BFD83
:104870000CE094F89C02032805D1D4F8B802016931
:1048800009B1FFF792FA2046FFF7C0FD002010BDE6
:104890000020704780B5012180F89C12D0F8B82222
:1048A00032B1017952689047002818BF032080BDBB
:1048B000002080BD10B5017839BB154C0921154A7F
:1048C000C0F8C842C4F808050220C4E9002100214C
:1048D000C4E90310A06104F11C001821FBF7B3FD2B
:1048E0002046FDF736FD08B1FBF758FF084C802144
:1048F0002046FDF76EF8204600214022FDF76DF8B6
:10490000204601218022FDF768F8002010BD00BF7D
:10491000D80800240000084001F07F02D0F8C80247
:1049200049B2002902EBC20200EB820000F27E22B3
:1049300048BF00F13E021078704780B5FFF7A9F933
:1049400008D090F89C32032B02D1126A02B1904732
:10495000002080BD032080BD80B5FFF79AF908D004
:1049600090F89C32032B02D1526A02B1904700208A
:1049700080BD032080BD10B514461A46D0F8C80289
:104980002346FDF7BBF8BDE81040FFF7E9BD80B551
:10499000D0F8C802FDF7D9F8BDE88040FFF7E0BDC8
:1049A000F8B5012680F89C620025C0F8A452456045
:1049B00080F8A052C0F894520446D0F8B80250B122
:1049C00042683AB12046002190470546002818BFAA
:1049D000032500E000252046002100224023402737
:1049E000FFF7C9FF2046802100224023A4F864611C
:1049F000C4F86071FFF7BFFF2846A6842762F8BDA0
:104A000090F89C12042903D190F89D1280F89C1212
:104A10000020704780B590F89C12032905D1D0F88A
:104A2000B81211B1C96901B18847002080BD017475
:104A30000020704780B5D0F8C802FDF7A2FDBDE8A0
:104A40008040FFF78DBDB0B500F2AA250446284688
:104A500000F051F80120C4F89402B4F8B002C4F890
:104A6000980294F8AA0200F01F01022908D0012937
:104A70000CD089B920462946BDE8B04000F06EB898
:104A800020462946BDE8B04000F0C6B92046294678
:104A9000BDE8B04000F05EBA00F080012046BDE8FD
:104AA000B040AFF3008080B5D0F8C802FDF769F8D8
:104AB000BDE88040FFF754BD80B5D0F8C802FDF7CF
:104AC00075FDBDE88040FFF74BBD90F89C120429AE
:104AD00003D090F89C1280F89D12042180F89C125B
:104AE0000020704780B5D0F8C802FDF781F8BDE816
:104AF0008040FFF735BD0A7802704A7842704A88D4
:104B000042808A888280C988C18070471CB504466B
:104B10000020ADF80600A9B1C4F8B812D4F8D40248
:104B200004F52E7151F82000C16A21B10DF1060083
:104B30008847C4F8D002D4F8D8020130C4F8D802AB
:104B400000201CBD03201CBDD0F8B8220AB1126899
:104B5000104700207047FFF7AFBF0000BCB5044608
:104B600008780D4610F0600011D0402818BF2028AA
:104B700040F02381D4F8D402294604EB8000D0F819
:104B8000B8028268204602B0BDE8B040104768789D
:104B9000092800F21281DFE810F00A001E0010015F
:104BA0002C00100137005600100170008200FFF742
:104BB00038F900F20281E888022840F0FE80D4F83B
:104BC000A40203222146002808BF0122204641F802
:104BD0000C2F0222EEE0FFF724F900F2EE80688845
:104BE0000025012840F0EC80C4F8A452FFF797F8A4
:104BF000E6E06888022800F07180012840F0DD803E
:104C00000120C4F8A402DDE0A888002840F0D58087
:104C1000E888002840F0D18068887F2800F2CD80A5
:104C200094F89C12032900F0C880C5B284F89E0253
:104C300020462946FFF7FEFEFFF771F8002D00F031
:104C4000E5800220E3E00020ADF806004FF0FF31E0
:104C5000688801EB10210E2900F2AF80DFE801F037
:104C600008484FADAD5B65ADADADADADADAD71005F
:104C7000D4F8B412207C0A6868E0E888012840F083
:104C80009C8094F89C02411E02292BD2214620468A
:104C90000122002541F8085FFFF7ABFB90E0688830
:104CA0005C4D10F0FE0F287003D0FEF7FAFF0325CD
:104CB00086E0C1B294F89C0203284CD0022861D14E
:104CC000002900F07F8020466160FFF73DFF00284B
:104CD00000F084800546FEF7E4FF4FE0687984F831
:104CE000A0026FE0032868D1211D2046012261E067
:104CF000217CD4F8B80200294AD0C16A49E0C0B288
:104D000005285AD8DFE800F0036E72767A7ED4F870
:104D1000B402426818E0207C00284ED1D4F8B802D2
:104D2000416B0DF10600884713E0207C002844D138
:104D3000D4F8B802016B0DF1060088470146072040
:104D40002CE0D4F8B402C269BAB3207C0DF106019C
:104D50009047014623E0C1B36068884232D0C1B2B7
:104D6000FFF728F8297820466160FFF7EDFE48B389
:104D70000546FEF796FF2179FFF71CF8022084F81C
:104D80009C021DE0FEF78DFF2978FFF713F88EE7F0
:104D9000816A0DF106008847014602204870EA88C2
:104DA00082B1BDF8060040B1904238BF0246ADF86E
:104DB00006202046FFF71DFB01E0FEF772FF0025ED
:104DC0002846BCBDFEF7ABFFF9E70220616084F81E
:104DD0009C0200210025FEF7EDFF07E7FEF79FFF8D
:104DE000032014E0D4F8B4028268ADE7D4F8B4022A
:104DF000C268A9E7D4F8B4020269A5E7D4F8B402FE
:104E00004269A1E7D4F8B40282699DE7012084F8E1
:104E10009C02D4E7A002002470B5044608780D79FE
:104E20000E4610F0600016D0402818BF202869D127
:104E300020462946FFF7B3FA002865D10020C4F8C0
:104E4000D402D4F8B8028268002A5DD020463146E8
:104E5000BDE870401047707868B1012823D003285E
:104E600050D194F89C02032821D17088002859D091
:104E7000FEF755FF48E094F89C02032824D002284E
:104E800040D168063ED1142115F0800008BF4FF4D0
:104E9000AA710022625004F114010028204608BFC4
:104EA00004F5AA7152E094F89C0203282ED002283F
:104EB00028D1680626D020462946FFF7F4FD204673
:104EC0008021FFF7F0FD1FE005F00F00802D00EBC3
:104ED000800004EB80002CBF808CB0F8640188B1A6
:104EE00005F07F00802D00EB800004EB800000F1D6
:104EF000140638BF00F5AA7645F0800080281BD143
:104F0000002020E0FEF7CDFE002070BD7088002854
:104F1000FAD1680603D020462946FFF724FCFEF7A5
:104F2000FEFE85E76806A3D0F0880028A0D12046C1
:104F30002946FFF7B8FD9BE720462946FFF7ECFC22
:104F4000002818BF01203060204631460222FFF7BA
:104F500050FAD9E7B0B5044608780D4610F0600065
:104F600018BF40280DD1FEF75CFF0CD8A88810F0C0
:104F7000FE0F08D1C1B22046FFF713FA38B1032063
:104F800010E02028EFD0FEF78CFE0020B0BDD4F852
:104F9000B8028268002AF2D00020C4F8D402294660
:104FA00020469047E9880029F0D10028EED1FEF78D
:104FB000B6FEEAE77047000000487047A4040024EA
:104FC00070B5D0F81C480A784E78530102F00F05EE
:104FD000012E16D1012606FA05F52C43C0F81C480F
:104FE0001844D0F800391B0423D400F5106003687E
:104FF00043EA82520B7989686FF3DF2141EA8341EA
:1050000013E04FF48032AA402243C0F81C28184411
:10501000D0F8002B12040CD40A79896800F53060AE
:105020006FF3DF2141EA824102681143024A1143D2
:105030000160002070BD00BF00800010D0F8001992
:1050400040F2FF729143C0F80019D0F8041841F4FF
:105050008071FEF707BE000070B5044606981D4635
:10506000012816D1A16B1C4A0D9821F48031A1634F
:10507000E1681140E160E168012821F44011E1603C
:1050800003D1E06840F48010E060204600F028F88A
:105090000FE0E0680A9E40F04000E060204600F02B
:1050A0001FF8A16B16B121F4803101E041F4803189
:1050B000A163012D0ED1E16D084A89B2E165E16D70
:1050C0001143E165A16841F00601A160A16841F0CA
:1050D0002001A16070BD00BFBFFFBDFF0000EE0357
:1050E00081B0002100910F49009A01320092009A8C
:1050F0008A4214D80269B2F1FF3FF5DC0022009227
:10510000026942F001020261009A01320092009AA3
:105110008A4204D80269D207F6D1002000E00320B9
:1051200001B07047400D0300B0B50A784B785101CB
:10513000012B24D14318012403F51061D3F8005941
:10514000164B002D07D50D6845F000650D600D6804
:1051500045F080450D6002F00F0204FA02F2D0F82B
:105160003C489443C0F83C48D0F81C4824EA02026A
:10517000C0F81C280868184008600020B0BD43181B
:105180004FF4803403F53061D3F8005B034B03F137
:105190007073B5F1FF3FDEDCD5E700BF007833EC7C
:1051A000D0F8001E21F00301C0F8001ED0F804184A
:1051B00021F00201FEF756BDD0F8001E21F00301D8
:1051C000C0F8001ED0F8041841F00201FEF74ABDF5
:1051D0002DE9F84F0E468046DDF844A00C990A9858
:1051E00041220024502A03D048F822400132F9E736
:1051F000BAF1000F06D0D8F8382042F40012C8F8EF
:10520000382017E0D8F8042842F00202C8F8042831
:10521000D8F8382022F40012C8F83820D8F8002036
:1052200042F04002C8F80020D8F8002042F0800286
:10523000C8F800200022C8F8002E08F500699B4637
:105240000129D8F80028C8F8002806D1D9F800109C
:10525000002818BF41F0010103E0D9F8000040F038
:105260000301C8F800184046102100F00FFA009022
:10527000404600F0EBF9002108F510624FF67F334D
:105280000027C9F81010C9F81410C9F81C10BE4244
:105290000ED04FF09045002F08BF4FF00065146806
:1052A000013705EAE4741460116193602032EEE77F
:1052B00008F5306100224FF67F330027BE420ED042
:1052C0004FF09044002F08BF4FF000640D68013785
:1052D00004EAE5740C600A618B602031EEE7D9F8CE
:1052E000101021F48071C9F810100021C8F81810AE
:1052F000BBF1000F6FF08041C8F8141005D1D8F849
:10530000181041F01001C8F81810D8F818100D4AFC
:105310001143C8F818100D9929B1D8F8181041F0A8
:105320000801C8F81810BAF1010F05D1D8F8181003
:10533000054A1143C8F818100099084318BF012006
:10534000BDE8F88F00383C8004000040816821F0FF
:10535000010181600020704710B5036C134CA3421B
:1053600003D3D0F8003B002B1ED40023C0F8103B21
:10537000D0F8103B012943F40023C0F8103BD0F8CB
:10538000103B43F01803C0F8103BD0F8103B43F03B
:10539000C043C0F8103B07D1C0F8142BD0F8001B55
:1053A00041F08021C0F8001B002010BD0B30544F8D
:1053B0000A784B7852011044012B0DD1D0F8002906
:1053C00022F40012C0F80029097901F0FE01022937
:1053D00013D100F510600CE0D0F8002B22F400127D
:1053E000C0F8002B097901F0FE01022905D100F572
:1053F0003060016841F080510160002070470A78F8
:105400004B7851010144012B19BF01F53060D1F8EF
:10541000001B01F51060D1F80019002904D41AB15D
:10542000016821F080410160016841F400110160D0
:1054300000207047F8B54B780C78012B1AD100EB9F
:10544000441C0CF51063DCF810590E69B6B36FF309
:1054500012051D61002C1D696FF3DC451D618D680F
:1054600058D07719013FB7FBF5F55A4F07EAC54702
:105470001D6956E000EB4413D3F8105B6FF312057F
:10548000C3F8105BD3F8105B6FF3DC45C3F8105B17
:1054900003F530638D680E69E4B1F6B17419013C0F
:1054A000B4FBF5F6B4B26C434A4D0C6205EAC6454E
:1054B0001E696FF3DF4435431D6115E06FF3DC4572
:1054C0001D6100261D6945F400251D611F696FF3EC
:1054D000120738E006B10D610D626FF3DF451C69FC
:1054E0002C431C614FF400241D692C431C61012ACC
:1054F00002D1CA6802B15A610979012938D1D0F8BC
:105500000808C0054FF0805058BF4FF00050196890
:1055100008432CE0AE4201D92E460D611F694FF4BD
:1055200000253D431D6135461F696FF3DF453D434F
:105530001D610D79012D07D11D6925F0C0451D6143
:105540001D6945F000571F61012A17D1CA690AB1C8
:10555000CCF81429097901290AD1D0F80818DCF807
:105560000009C9054CBF40F0805040F00050186061
:10557000186840F0044018600020F8BD630100F591
:105580001065EF5847F00447EF500F79012F13D102
:10559000D0F8087853F805C0FF054FF0805758BF82
:1055A0004FF0005747EA0C075F51B3B2C968009249
:1055B000224600F09DF9DFE7002EDDD004F00F0158
:1055C000012202FA01F1D0F834281143C0F834184E
:1055D000D2E700BF0000F81F81B0002200920A78D5
:1055E0004B785101012B13D100F510604258B2F1F4
:1055F000FF3F20DC7346FEF7F0FB9E46009B013325
:105600000093009B934218D80B58002BF6D412E05D
:1056100000F530604258B2F1FF3F0CDC7346FEF7F4
:10562000DCFB9E46009B01330093009B934204D811
:105630000B58002BF6D4002000E0012001B0704789
:10564000816841F0010181600020704781B0002134
:1056500000911F49009A01320092009A8A4212D8A2
:105660000269B2F1FF3FF5DC0022009210220261D4
:10567000009A01320092009A8A4204D80269D20646
:10568000F6D4002000E0032001B0704781B0002272
:1056900000920F4A009B01330093009B934213D862
:1056A0000369B3F1FF3FF5DC89010023009320314A
:1056B00001610099013100910099914204D801697A
:1056C0008906F6D4002000E0032001B0704700BF37
:1056D000400D0300D0F8080802A100F00600085CA5
:1056E000704700BF000F020F0F0F0200406900F06B
:1056F00001007047D0F81818D0F81C08084080B294
:105700007047D0F81818D0F81C080840000C7047F3
:1057100010B5D0F81028D0F8344801F00F0300EB92
:10572000411024FA03F3DB01D0F80809DBB21A4375
:10573000104010BD00EB4111D1F8081BD0F814083F
:10574000084070474169806908407047B0B59308C8
:105750004FF4805423B1055941F8045B013BF9E74C
:1057600012F003020BD04FF48053C058002320FAEC
:1057700003F40833013A01F8014B1404F7D1084649
:10578000B0BDB0B50446C06820F0C040E06099B13B
:1057900001291CBF0120B0BDE068002540F0005089
:1057A000E0600120FBF772FE681C6169C90712D135
:1057B000312D0546F5D30EE0E068002540F080402D
:1057C000E0600120FBF762FE681C6169C90702D036
:1057D000312D0546F5D33238B0FA80F04009B0BD1E
:1057E000D0F8002801F07F0122F4FE62C0F8002802
:1057F000D0F8002842EA0111C0F8001800207047D4
:10580000022A34D1284A294B0A449A4202D24FF440
:1058100070512EE0264A274B0A449A4202D24FF496
:10582000605126E0244A254B0A449A4202D24FF4A2
:1058300050511EE0224A234B0A449A4202D24FF4AE
:10584000405116E0204A214B0A449A4202D24FF4BA
:1058500030510EE01E4A1F4B0A449A4202D24FF4C6
:10586000205106E01C4A1D4B0A449A420AD24FF4CA
:105870001051C26822F47052C260C2681143C16004
:1058800000207047164A174B0A449A4202D24FF43E
:105890000051EEE7144A154B0A444FF4C0519A42A6
:1058A00038BF4FF4E051E4E7405327FF00350C00C8
:1058B000401E1BFF40420F0000DC0BFF804F120018
:1058C000808CF9FE20D6130060B6E5FE60E316007A
:1058D00000D3CEFE40771B00C05BB3FEC091210019
:1058E00000CA91FE20753800E05459FEE09C41004A
:1058F00010B5029C0CB1002010BD0333120300F55B
:1059000080509B08002BF6D051F8044B1450013BFB
:10591000F8E7FEE78EB0FBF77DFFFEF735FC9E4C07
:105920000025CDE90A559E4F4FF4E0710022206812
:1059300040F010002060206800F01000FEF780F9B1
:1059400040F002002060206800F00200FEF778F9C5
:1059500040F001002060206800F00100FEF770F9BF
:1059600040F480702060206800F48070FEF768F9D1
:1059700040F080002060206800F08000FEF760F9B1
:1059800040F040002060206800F04000FEF758F929
:1059900040F008002060206800F0080000900098A7
:1059A0007E4800F5406A81465046B84748464FF465
:1059B000E0610022B8477B480C2100228046B847AE
:1059C0004FF4041008900995DFF8DCB1042007902B
:1059D00007AF09F580603946D8474FF480700790CB
:1059E000394602260B95CDE9095508964046D84719
:1059F000012008903946CDE9095601264FF4E070A0
:105A000007905046D8474FF4E060079039460A9512
:105A1000CDE908654846D8470C20079039460A95D5
:105A2000CDE908654FF0010A4046D8470820052116
:105A30000022FBF783FF0820FBF770FF54F8080CE7
:105A4000032104224FF4804C4FF480634FF400761E
:105A5000802740F0010044F8080C5448C0E90921AF
:105A600053494FF480520562C0E90B55C0E9036306
:105A7000C0E9052CC56180E8A20054F8081C01F0BB
:105A8000010107910799FBF751FB0B20052100222B
:105A9000FBF754FF0B20FBF741FFDFF8189108F1EB
:105AA000704018214C4644F8080F09F10C00FAF731
:105AB000CAFC09F128001421FAF7C5FC2046FAF7C0
:105AC000BDFE3D4C3E493D488B462160211D81E88D
:105AD000210404F110001421FAF7B5FC2046FBF76D
