:020000040800F2
:1000000048A2002439030008133C00089F3B000865
:10001000113C000873050008EF58000800000000BC
:100020000000000000000000000000002141000866
:100030009907000800000000313F00085D410008FA
:100040005303000853030008530300085303000838
:100050005303000853030008530300085303000828
:100060009B07000853030008530300089D05000880
:100070005303000853030008530300085303000808
:1000800053030008530300085303000853030008F8
:1000900053030008530300085303000853030008E8
:1000A00053030008B5420008530300085303000837
:1000B00053030008530300085303000853030008C8
:1000C00053030008530300085303000853030008B8
:1000D00053030008530300085303000853030008A8
:1000E00053030008530300080000000053030008F6
:1000F0005303000853030008530300085303000888
:100100005303000853030008530300085303000877
:100110005303000853030008530300085303000867
:100120005303000853030008530300085303000857
:100130005303000853030008530300085303000847
:1001400000000000000000000000000000000000AF
:100150005303000853030008530300085303000827
:100160005303000853030008530300085303000817
:1001700053030008530300089105000853030008C7
:1001800053030008530300085303000853030008F7
:1001900053030008530300085303000853030008E7
:1001A00053030008530300085303000853030008D7
:1001B00053030008530300085303000853030008C7
:1001C00053030008530300085303000853030008B7
:1001D00053030008153C00085303000853030008AC
:1001E0005303000853030008530300085303000897
:1001F0005303000853030008530300085303000887
:100200005303000853030008530300085303000876
:100210005303000853030008530300085303000866
:1002200053030008530300085303000800000000B4
:1002300053030008530300080000000053030008A4
:100240005303000853030008530300085303000836
:100250005303000853030008530300085303000826
:100260005303000853030008530300085303000816
:100270005303000853030008530300080000000064
:100280005303000853030008530300080000000054
:10029000000000005303000800F002F800F03CF8F2
:1002A0000AA090E8000C82448344AAF10107DA45D1
:1002B00001D100F031F8AFF2090EBAE80F0013F0E7
:1002C000010F18BFFB1A43F00103184794660000A2
:1002D000B4660000103A24BF78C878C1FAD8520733
:1002E00024BF30C830C144BF04680C6070470000B0
:1002F0000023002400250026103A28BF78C1FBD82F
:10030000520728BF30C148BF0B6070471FB506F0C9
:10031000E5FA1FBD10B510BD00F0F1F81146FFF76A
:10032000F5FF05F0F7FA00F00FF903B4FFF7F2FF5D
:1003300003BC00F017F9000009488047094800474E
:10034000FEE7FEE7FEE7FEE7FEE7FEE7FEE7FEE785
:10035000FEE7FEE704480549054A064B70470000E2
:100360004142000899020008489C002448A2002449
:10037000489E0024489E0024032A40F2308010F05A
:10038000030C00F0158011F8013BBCF1020F624430
:1003900098BF11F801CB00F8013B38BF11F8013BC1
:1003A000A2F1040298BF00F801CB38BF00F8013B6E
:1003B00011F0030300F07180083AC0F0088051F892
:1003C000043B083A51F804CBA0E80810F5E7121DE9
:1003D0005CBF51F8043B40F8043BAFF30080D20708
:1003E00024BF11F8013B11F801CB48BF11F8012BD4
:1003F00024BF00F8013B00F801CB48BF00F8012BF7
:1004000070474FF000020429C0F0128010F0030C76
:1004100000F01B80CCF1040CBCF1020F18BF00F8F7
:10042000012BA8BF20F8022BA1EB0C0100F00DB8A6
:100430005FEAC17C24BF00F8012B00F8012B48BF04
:1004400000F8012B70474FF0000200B513469446A8
:100450009646203922BFA0E80C50A0E80C50B1F11C
:100460002001BFF4F7AF090728BFA0E80C5048BF30
:100470000CC05DF804EB890028BF40F8042B08BFCE
:10048000704748BF20F8022B11F0804F18BF00F8CA
:10049000012B704770477047704710B5203AC0F085
:1004A0000B80B1E81850A0E81850B1E81850A0E847
:1004B0001850203ABFF4F5AF5FEA027C24BFB1E8E0
:1004C0001850A0E8185044BF18C918C0BDE8104023
:1004D0005FEA827C24BF51F8043B40F8043B08BF2C
:1004E0007047D20728BF31F8023B48BF11F8012BF3
:1004F00028BF20F8023B48BF00F8012B7047754623
:1005000000F02CF8AE4605006946534620F007007F
:10051000854618B020B5FFF71DFFBDE820404FF01D
:1005200000064FF000074FF000084FF0000BAC46FC
:10053000ACE8C009ACE8C009ACE8C009ACE8C00947
:1005400021F007018D46704710B50446AFF30080D7
:100550002046BDE81040FFF7E8BE000000487047A5
:100560002801002401491820ABBEFEE72600020046
:100570007047FEE7806B816C496D022906D001212E
:1005800080F83510C16C41F04001C16400F009B938
:10059000014800F009B900BF90010024014800F0B3
:1005A00015BB00BF9407002410B50168234A91428F
:1005B00023D0234A91421CBF224A91421DD0224A95
:1005C00091421CBF214A914217D0214A91421CBF3F
:1005D000204A914211D0204A91421CBF1F4A9142A9
:1005E0000BD01F4A91421CBF1E4A914205D01E4AA1
:1005F00091421CBF1D4A914214D16FF00F02182383
:100600001EA452FA81F2B2FBF3F303F00703E35C9A
:10061000C36540F2FF3399435F2A88BF0431816587
:10062000084610BD124A9142E7D0124A9142E4D0E6
:10063000114A9142E1D021F0FF01F0E710000240A1
:100640002800024040000240580002407000024072
:1006500088000240A0000240B8000240100402409E
:100660002804024040040240580402407004024042
:1006700088040240B8040240A0040240000610169C
:100680000006101610B501683A4A91420BD03A4A5A
:1006900091421CBF394A914205D0394A91421CBF50
:1006A000384A914214D16FF00702174B52FA81F188
:1006B0001422B1FBF2F203F1800103EB820302F09A
:1006C0001F020124C0E9183104FA02F2826610BD4B
:1006D0002D4A9142E7D02E4A9142E4D02B4A9142D2
:1006E000E1D06FF00F021823084C52FA81F2A142B8
:1006F000B2FBF3F31A4688BF0832AA34A14228BFDE
:100700001A46034BD7E700BF005802580F040240B7
:100710000008024070B501794A1E072A1AD8144B06
:100720000568144E03F14404B5420BD0124EB54295
:100730001CBF124EB54205D0114EB5421CBF114E22
:10074000B54208D1012503EB8101C0E91B1405FA6C
:1007500002F2426770BD0C4EB542F3D00B4EB5426B
:10076000F0D00B4EB5421CBF0A4B03F14404E9E73D
:10077000FC580258085402581C540258305402586D
:1007800044540258585402586C5402588054025829
:1007900094540258FC0802407047042000F07EBECA
:1007A0007047704770470000B0B50446006805699F
:1007B00069070CD504214161204AE06C40F0020039
:1007C000E064A06C026584F8351000F015F9A80704
:1007D0000ED52168A06C02224A61E16C41F0010152
:1007E000E16416490165042184F8351000F004F92C
:1007F000E80605D5206810214161204600F062F826
:10080000280705D5206808214161204600F0F2F84C
:10081000E80708BFB0BD20680168890703D5C16833
:1008200021F01E01C160C16821F00101C1600121F8
:1008300041612046BDE8B040FFF7B4BF7505000830
:1008400088B1F8B5044690F8350010B9204600F09C
:100850003BF8022084F83500A26932B14FF0000C59
:10086000C4F824C003E001207047D4F824C094E801
:100870006900134907683940016043EA020162696F
:1008800011432269314304F128061143226A2943A6
:10089000114364CE41EA0C011143026829433143FC
:1008A00011430160102B01D1E1698161C16841F000
:1008B0001E01C1600020E064012184F83510F8BDFC
:1008C00007F0E0FF704700002DE9F04F85B00446C7
:1008D0000068434A904240F0808042486D46DFF80D
:1008E00008A14FF00D0800274FF00209934650F879
:1008F000041C41F0010140F8041C50F8041C01F0F4
:10090000010100910099016841F010010160016846
:1009100001F0100100910099016841F480710160BB
:10092000016801F4807100910099016841F0800133
:100930000160016801F0800100910099016841F0B7
:10094000010101600068294600F001000090009854
:10095000CDF81080CDE90277CDF8049060200090AA
:1009600002F11020D0473020204E03F060F906F548
:100970008060D0474FF4BC4003F059F93046D0476F
:10098000502003F054F90BF18050D047184D4FF42C
:1009900080304B264FF4807C4FF480634FF48041CD
:1009A0004FF48052C5E908077048C5E90373C5E9EB
:1009B0000521C5F81CC085E8C100284600F0A6FB4B
:1009C00008B1FFF7EDFE4E2005210022AC63A564BF
:1009D00000F0AEFF4E2000F09DFF05B0BDE8F08FA7
:1009E00000000248E0440258B1140008001C0258FC
:1009F0009407002470470000B0B500285CD090F840
:100A00003510022956D10168584A914223D0584BDB
:100A100099421CBF574B99421DD0574B99421CBF5E
:100A2000564B994217D0564B99421CBF554B994291
:100A300011D0554B99421CBF544B99420BD0544B8B
:100A400099421CBF534B994205D0534B99421CBF4E
:100A5000524B994233D1042380F83530914223D050
:100A6000434881421CBF434881421DD042488142D5
:100A70001CBF4248814217D0414881421CBF4148B7
:100A8000814211D0404881421CBF404881420BD076
:100A90003F4881421CBF3F48814205D03E488142C9
:100AA0001CBF3E4881424DD1086820F0010008601B
:100AB000002102E08021416501210846B0BD384B8C
:100AC0009942C8D0374B9942C5D0374B9942C2D0D2
:100AD0000A6822F00E020A600A6822F001020A6027
:100AE000324A91420BD0324A91421CBF314A914264
:100AF00005D0314A91421CBF304A91422BD100F1BE
:100B000058041ECC1D6825F480751D6002F01F027C
:100B1000012303FA02F24A60816E6160C16E31B155
:100B20000A6822F480720A60D0E91C124A6000212F
:100B300080F83410012280F83520026D002ABCD0E4
:100B40009047B5E716488142AED016488142ABD0F7
:100B500015488142A8E71A4A9142D0D0194A9142D9
:100B6000CDD0194A9142CAD0E1E700BF100002403F
:100B7000280002404000024058000240700002403D
:100B800088000240A0000240B80002401004024069
:100B9000280402404004024058040240700402400D
:100BA00088040240B8040240A004024008540258DD
:100BB0001C54025830540258445402585854025895
:100BC0006C54025894540258805402582DE9FC4148
:100BD000044600200190D54FDFF8800CA66DD0F8B8
:100BE0000080206835683168B8422AD0D04A9042E7
:100BF0001CBFD04A904224D0CF4A90421CBFCF4A5B
:100C000090421ED0CE4A90421CBFCE4A904218D08D
:100C1000CD4A90421CBFCD4A904212D0CC4A90425D
:100C20001CBFCC4A90420CD0CB4A90421CBFCB4A4E
:100C3000904206D0CA4A90421CBFCA4A904240F035
:100C40009381E16D082201F01F018A402A4235D0CC
:100C50000423BC46B84224D0B54FB8421CBFB54FA0
:100C6000B8421ED0B44FB8421CBFB44FB84218D0DF
:100C7000B34FB8421CBFB34FB84212D0B24FB842C4
:100C80001CBFB24FB8420CD0B14FB8421CBFB14FDD
:100C9000B84206D0B04FB8421CBFB04FB84240F087
:100CA000988107681F42674608D0036823F0040351
:100CB0000360B260626D42F00102626501228A4007
:100CC0002A422ED0B84224D0994B98421CBF994B4F
:100CD00098421ED0984B98421CBF984B984218D00F
:100CE000974B98421CBF974B984212D0964B984214
:100CF0001CBF964B98420CD0954B98421CBF954B0D
:100D0000984206D0944B98421CBF944B984240F0B6
:100D10006D8143691B0604D5B260626D42F0020228
:100D2000626504228A402A422ED0B84224D0804BE9
:100D300098421CBF7F4B98421ED07F4B98421CBFED
:100D40007E4B984218D07E4B98421CBF7D4B9842F8
:100D500012D07D4B98421CBF7C4B98420CD07C4BF0
:100D600098421CBF7B4B984206D07B4B98421CBFDD
:100D70007A4B984240F0488103689B0704D5B260E3
:100D8000626D42F004026265102202FA01F129420A
:100D90003ED00822B84224D0C74B98421CBFC74B54
:100DA00098421ED0C64B98421CBFC64B984218D0E2
:100DB000C54B98421CBFC54B984212D0C44B9842B9
:100DC0001CBFC44B98420CD0C34B98421CBFC34BB2
:100DD000984206D0C24B98421CBFC24B984240F08A
:100DE00021810368134213D0B16002680168520385
:100DF00006D4C90506D4016821F00801016001E0AC
:100E0000080301D4216C00E0A16C09B12046884799
:100E1000E06D00F01F01202000FA01F22A425BD0B1
:100E200020681023B84224D0A34DA8421CBFA34D74
:100E3000A8421ED0A24DA8421CBFA24DA84218D065
:100E4000A14DA8421CBFA14DA84212D0A04DA8425E
:100E50001CBFA04DA8420CD09F4DA8421CBF9F4D67
:100E6000A84206D09E4DA8421CBF9E4DA84240F00D
:100E7000E68005681D422FD0B26094F835300268D4
:100E8000042B15D122F016020260426922F0800282
:100E90004261226C0AB9A26C1AB1026822F00802FF
:100EA00002603F208840B06002F0FCFE216D37E018
:100EB0000168520308D4C9050AD4016821F0100161
:100EC000016002F0EFFE03E0080301D4616C00E072
:100ED000E16B09B120468847606D20B3606DC007A3
:100EE0001DD04FF41650B8FBF0F1042084F8350003
:100EF0002068026822F001020260019A0132019228
:100F00008A4202D80268D207F7D102F036FF0068A1
:100F1000C0074FF0030008BF012084F83500E16CE2
:100F200009B120468847BDE8FC8100BF100002409F
:100F30002800024040000240580002407000024079
:100F400088000240A0000240B800024010040240A5
:100F50002804024040040240580402407004024049
:100F600088040240A0040240614A90421CBF614ACA
:100F700090420CD0604A90421CBF604A904206D01A
:100F80005F4A90421CBF5F4A904240F08780E26D0A
:100F900002F01F03042202FA03F502680D4201D099
:100FA000570759D402259D400D4201D097075DD4C3
:100FB000D9400907B7D51107B5D5016821F00E0151
:100FC0000160012000FA03F17160606502F0D5FE56
:100FD000A3E7454FB8423FF464AE444FB8423FF4F4
:100FE00060AE494FB84218BF08235AE63E4B9842BC
:100FF0003FF48FAE3D4B98423FF48BAE424B98424C
:101000003FF487AE02688CE6374B98423FF4B4AEAB
:10101000364B98423FF4B0AE3B4B98423FF4ACAEF7
:101020000268B1E6304B98423FF4DBAE2F4B98425A
:101030003FF4D7AE344B984218BF0422D1E62A4D74
:10104000A8423FF416AF294DA8423FF412AF2E4DEF
:10105000A84218BF02230CE71104756012D4910650
:1010600014D4016821F0040101600FE011047560DF
:101070000ED4910610D4016821F00A01016002F03B
:1010800011FE09E0D00301D4A16C49E7216C47E7C8
:10109000D00301D4616C43E7E16B41E7F04A904231
:1010A0003FF475AFEF4A90423FF471AFEE4988428A
:1010B0003FF4C7AD37E700BF2800024040000240C0
:1010C000580002407000024088000240A000024028
:1010D000B8000240100402402804024040040240CC
:1010E000580402407004024088040240A0040240F8
:1010F00094540258085402581C5402583054025850
:101100004454025858540258B80402402DE9F84398
:10111000044600F09DFA002C7ED005462068BB4FA7
:10112000B8422AD0BA4988421CBFBA49884224D062
:10113000B94988421CBFB94988421ED0B849884283
:101140001CBFB849884218D0B74988421CBFB7496C
:10115000884212D0B64988421CBFB64988420CD09A
:10116000B54988421CBFB549884206D0B449884277
:101170001CBFB449884240F0EC80022184F835104D
:1011800002F0FBFD016821F0010101600168C9075F
:1011900006D000F05DFA401B052838D82068F5E736
:1011A0000168B34AB946D4E90257D4E906C301EA53
:1011B0000208D4E90462D4E9081E45EA08053D4363
:1011C00035432A4342EA0C021A431143BEF1040F8D
:1011D00003D1D4E90B2311431943A64A1268B2F193
:1011E000005F1CD365684F46A5F12902062A0BD380
:1011F000A5F13F02042A07D3A5F14702022A03D32F
:10120000A5F14F02032A0BD841F4801108E02020F9
:101210006065032084F835000120BDE8F8834F465F
:101220000160BEF1040F416921F0070141EA0E019E
:1012300028D1D4E90A53294323B3BCF5005F08D071
:10124000BCF1000F11D1022D12D0012D07D07DB1BC
:1012500018E0032D16D8DFE805F00E0B0E02A3F1FF
:10126000C072B2FA82F2520904E0032D03D309D10D
:10127000C3F3006232B140206065012084F835007C
:10128000BDE8F883416102F019FE02F0CDFD20684F
:10129000B8423BD05E4988421CBF5E49884235D087
:1012A0005D4988421CBF5D4988422FD05C49884215
:1012B0001CBF5C49884229D05B4988421CBF5B49FE
:1012C000884223D05A4988421CBF5A4988421DD0BF
:1012D000594988421CBF5949884217D05849884209
:1012E0001CBF5849884211D05F4988421CBF5749EA
:1012F00088420BD0564988421CBF5649884205D0C7
:10130000554988421CBF5549884272D12046FFF793
:10131000B9F9A06804F16003802806BF002060606E
:101320006068C5B20ECB013807280D60536005D840
:101330002046FFF7EFF902F0DEFD03E00020C4E9EC
:101340001B00606700206065012184F83510BDE84E
:10135000F8833D4988421CBF3C4988420BD03C4938
:1013600088421CBF3B49884205D03B4988421CBF8C
:101370003A49884231D1022184F83510142204F10F
:10138000080502F0FAFC39490144B1FBF2F1890089
:10139000E1652ECD06686FF3101646EAD202A1F180
:1013A0008006B6FA86F67609B603402908BF1026ED
:1013B00042EA0601A26941EAD30141EAD50141EAC4
:1013C000D201E26941EAD201226A41EA12110160C6
:1013D00002F074FD02F004FD59E721498842CAD0A9
:1013E00020498842C7D0204988423FF4C6AE4020F9
:1013F0000EE71B4988423FF489AF134988423FF406
:1014000085AF184988423FF481AF9BE71000024046
:101410002800024040000240580002407000024094
:1014200088000240A0000240B800024010040240C0
:101430002804024040040240580402407004024064
:1014400088040240A00402409454025808540258F0
:101450001C540258305402584454025858540258EC
:101460006C54025880540258B8040240F8ABFDA7EF
:101470003F8010FE0010005CB0B5044600F0E8F8B4
:101480000546E048611C007818BF044400F0E0F80D
:10149000401BA042FAD3B0BD7047000003490A6860
:1014A000024208BF70470860FFF7F6BF8800005887
:1014B0002DE9FC4F5C4A0A244FF0000A4FF0000966
:1014C00090425A4A08BF092402444FEAB223092B2A
:1014D00038BF4FEAB224009400220E6836FA02F7B1
:1014E00000F0A080012303FA02F716EA070B00F0D0
:1014F0009380D1F804E003230EF0030CACF1010556
:10150000012D13D803FA09F58468CB68AC4303FABC
:1015100009F36FEA050823438360CEF300134468A0
:10152000BC4393405700234343600BE003FA09F3A5
:10153000BCF1030F4F466FEA030803D14F464FF04B
:10154000030C20E0C3688C6803EA0803BC40234313
:10155000C360BCF1020F16D10AF01C030F2404FA79
:1015600003FC6FF0030404EA520505442C6A24EAE4
:101570000C0C0C6904FA03F343EA0C032B62D1F858
:1015800004E00EF0030C04680CFA07F304EA080404
:10159000234303601EF4403F3ED0DD4C254E2368BC
:1015A00043F00203236023680F2403F00203019336
:1015B000019D0AF00C0322F003059C40AF5927EA75
:1015C0000404009F07FA03F32343AB514FF0B046E6
:1015D00033684D6843EA0B04EF0258BF23EA0B045B
:1015E0003460134EAF02336843EA0B0458BF23EA5A
:1015F0000B043460AF03D6F8803043EA0B0458BFC5
:1016000023EA0B04C6F88040ED03F36F43EA0B04B2
:1016100058BF23EA0B04F4670AF1040A09F102092E
:1016200001325AE7BDE8FC8F002402580000FEA7F3
:101630000400005808040058002A08BF090481610A
:101640007047000001480068000C70470010005C03
:101650006D480068704700BF90F84120202A03D1F0
:1016600090F84020012A01D1022111E0242280F8C3
:1016700041200268136823F001031360136823F408
:101680008053136013681943734602F0E2FA9E46D2
:101690000846704790F84120202A03D190F8402056
:1016A000012A01D1022110E0242280F841200268A1
:1016B000136823F001031360136823F4706343EA93
:1016C0000121734602F0C5FA9E46084670470000A5
:1016D00000B3B0B5044690F8410018B902F01EFC02
:1016E00000F044F8242084F84100D4E90003D4E950
:1016F000021223F07063012A056825F001050560D8
:101700000361836823F40043836005D141F4004101
:10171000816009E001207047022A41F404418160A0
:1017200002D14FF40061416041680F4A04F1100595
:1017300011434160C16821F40041C1602ECD1143C5
:1017400041EA0321C160216A29430160016841F037
:101750000101016000206064202184F841102063B1
:1017600084F84200B0BD00BF00800002B0B5B8B040
:10177000044633A81421FEF766FE02A8B8210830FB
:10178000FEF761FE2068184988422BD1082000240A
:1017900003940290239402A800F056FF08B1FEF7CC
:1017A000FFFF124D286840F002002860286800F012
:1017B000020001900420CDE936400120359012202E
:1017C00034904FF440603390019833A90848FFF7F4
:1017D0006FFEA86840F48000A860A86800F480004C
:1017E0000190019838B0B0BD00580040E044025864
:1017F000000402580348044900780A68104408604D
:10180000704700BF00000024F099002480B5032039
:1018100000F0AAF801F058FC0E490F4B0A6809685D
:1018200001F00F01C2F30322595C9A5C01F01F0121
:1018300002F01F02D040094A1060C8400849086001
:101840000F2000F00FF808B1012080BD00F04EF825
:10185000002080BD184402583069000808000024A8
:101860000C000024B0B58AB00F282DD804461920EA
:1018700000220025214600F05BF8192000F04AF80C
:10188000154804601548016841F0010101600068D5
:1018900000F001000290029802A801A901F0C0FB2B
:1018A00001F004FC4000104C0D490E4B40F2E732B1
:1018B000B0FBF4F00138C1E90030C1E902520D611A
:1018C000084602F06AF808B1012002E0044802F07C
:1018D00075F80AB0B0BD00BF04000024F0440258FF
:1018E000F40E00240000014040420F0081B008487F
:1018F0000022016841F00201016000680F2100F040
:101900000200009000986FF0010001B000F010B8E4
:10191000F4440258002808D400F01F0101224009B5
:1019200002FA01F1014A42F82010704700E100E09C
:1019300070B5134B4FF0FF351B68C3F30223DC1E59
:1019400083F0070338BF002405FA04F6B243042BE2
:1019500028BF042305FA03F39943A1401143BDE8CE
:10196000704003F0C5BF00BF05494FF6FF030A688A
:101970001A4060F30A22034810430860704700BF12
:101980000CED00E00000FA0501688A6942F000628F
:101990008A610122C0F80025002280F8F424486DF5
:1019A000024A104348650020704700BF0300001042
:1019B00070470068416200207047B0B50068436A14
:1019C000B1B1846A013903EB14430024E5B2A942A2
:1019D00007D900EB85050134D5F8045103EB154315
:1019E000F4E700EB810043EA0241C0F8041102E091
:1019F00043EA024181620020B0BDD0F8080502F040
:101A000045BF01EBC10200EB8202D0F80805926CE1
:101A100002F0B9BE01EBC10200EB8202D0F808056A
:101A2000D2F8882202F000BFD0F8080502F030BFDB
:101A300001F00F02090602EBC20200EB820303F180
:101A40003C0258BF03F51F720068114603F0AABD9F
:101A500010B5044601F00F0002F011FA5DBF00223C
:101A600081F87D2201F51F71012244BF81F83D20DC
:101A70003C31087094F8BC04012804BF022010BD5A
:101A800002F0C9F903F04AFB02F063B9B0B50446AD
:101A900001F00F006268904201D901251BE002F0BD
:101AA000EEF95DBF002281F87D2201F51F71012250
:101AB00044BF81F83D203C31087000258D7094F8BA
:101AC000BC04012801D1022505E002F0A4F903F0CD
:101AD00063FC84F8BC542846B0BDB0B5044601F0A0
:101AE0000F0002F0CCF95DBF002581F87D5201F5B1
:101AF0001F71012544BF81F83D503C318A600B7154
:101B000008704A7802B14883022B01D10020487145
:101B100094F8BC04012804BF0220B0BD02F07BF998
:101B200003F04EFA02F08BB9B0B501F00F010025B9
:101B300001EBC10400EB840404F5227784F87C12E5
:101B400084F87D5204F51F712CC7C368012B08BFB0
:101B5000C4F89822DAB2006803F052FC0020B0BD4D
:101B6000B0B5044601F00F054068854284BF0120EE
:101B7000B0BD080609D401EBC100002104EB8000D0
:101B800080F87D1200F51F7108E005EBC50001210A
:101B900004EB800080F83D1000F13C0194F8BC2477
:101BA00001200D708870012A04BF0220B0BD84F8A6
:101BB000BC04206803F008FC2DB9217B206804F2E6
:101BC000C44203F0BDFB02F03AB9B0B501F00F0515
:101BD00005EBC50100EB8104214601F83C5F01F1F2
:101BE0000C0700252CC701234B70C368012B08BFCD
:101BF000A265DAB2006803F003FC0020B0BD00006B
:101C00002DE9F04F89B005688246284603F059FD5A
:101C100010B109B0BDE8F08F02F010F80028F8D03C
:101C2000D5F80808C0F30D20CAF8FC0402F006F845
:101C30000146DAF80000890703D5416901F0020185
:101C4000416105F50061049103F067FD0146DAF892
:101C500000000595C9063FD5816921F01001816119
:101C60002C6A04F00F05C4F3434006281CD0022858
:101C70002BD147F6F070044027D005EBC5002209B0
:101C80000AEB80050598D5F8881203F04AFDD5F8CF
:101C90008802D5F8901200EB1410C5F8880201EB09
:101CA0001410C5F8900210E00AF2C4410598082209
:101CB00003F037FD05EBC500C4F30A120AEB800000
:101CC000D0F890121144C0F89012DAF8000081693F
:101CD00041F010018161059D03F01FFD00030DD44B
:101CE00001F0ACFF4003049E00F1E18001F0A6FF8B
:101CF000002800F1A681DAF80000BAE1DAF8000065
:101D000003F0EAFC06460AF527744FF430684FF0FA
:101D1000000B0AF2C4400890002EE1D0F00700F05A
:101D2000B8805FFA8BF9DAF80000494603F0EDFC61
:101D30000746C0075CD005EB080001218160DAF896
:101D4000000008EB0001036C8A68DAF80C50012DE2
:101D500024D115072FD4950647D412F0280F059DDE
:101D600046D1AC46DD4DAB4202D9120400F1988059
:101D70002268096965466FF3DF41511A44F80C1C6B
:101D8000B8F5306F2CD1DAF88C22002A00F08D8063
:101D9000DAF888020844CAF8880221E0CF4D05F538
:101DA0008075AB4211D11004059D0AD4900617D559
:101DB0002020886014E0C948059D834218D910048A
:101DC00016D54FF40040886012E0B8F5306F059DDD
:101DD00006D1DAF88C1219B90021089A03F0B0FA8A
:101DE00050464946FFF716FE02E020208860059D18
:101DF000380722D505EB08000821B84B8160DAF8D6
:101E0000001008EB01000A6C81689A4212D909049B
:101E100002D54FF400418160504600F0B6FBDAF87D
:101E20000C00012809D1DAF800000121089A03F01A
:101E300087FA02E0504600F0A8FBF80603D505EB50
:101E4000080010218160B80716D56869000604D51E
:101E50000499486840F48060486014F81D0C01281B
:101E600006D1002004F81D0C4946504600F05FFAE8
:101E700005EB080002218160B80603D505EB0800D8
:101E800020218160B80404D505EB08004FF400510F
:101E90008160243408F1200876080BF1010B3BE740
:101EA0004FF4004088606546A2E7012195E7DAF823
:101EB000000003F00AFC07460AF2C4400022029028
:101EC00005F510600690002F3FF410AFF80700F002
:101ED000B580D1B2DAF800000792089103F003FC54
:101EE0000446C00727D0079B0122716B03F00F0047
:101EF00002FA00F021EA00007063069800EB43103C
:101F00008260DAF80C00012811D103EBC3000AEB60
:101F10008000D0E911121144816443B9DAF84C0011
:101F200028B9DAF800000121029A03F009FA5046B4
:101F30000899FFF766FD2007079A04D5069808213F
:101F400000EB42108160E00604D50698102100EBFA
:101F500042108160600604D50698402100EB4210D3
:101F60008160A00718D52846114603F077FB079A31
:101F700002EBC2000AEB800010F83F1F012906D1D6
:101F8000002101705046089900F0CDF9079A069893
:101F9000022100EB4210816020064FD502EBC20007
:101FA0000AEB800BD94659F84C1FC84658F8040F65
:101FB000814243D3DAF800400D1A5BF8441F0397BF
:101FC00057460BF104068D4288BF0D4604EB4211C3
:101FD00001F5106A15E03D7B3168DBF800300095B3
:101FE000151A20469D4288BF1D46ABB2089A03F0E1
:101FF0006DFC306828443060D8F800002844C8F8E8
:102000000000D9F80020DAF81830E91C9BB2B3EBD5
:10201000910F28BF8242DED88242BA46059DDDE993
:102020000376079A0AD802F00F00012101FA00F0A6
:10203000D4F8341821EA0000C4F834087F080132CB
:1020400041E7706820F0010070609AF8F4040128FC
:1020500007D100208AF8F40400215046FFF7A8FCBD
:1020600002E0504600F07BFA01F0A0FE01F00041D2
:10207000416103F052FB000502D4DAF800000AE0E7
:10208000B068C00702D0504600F09EFA01F08EFE04
:1020900001F40061416103F040FB000117D501F03C
:1020A00085FE01F0006141619AF8F41419B15046BF
:1020B00000F08AFA0BE001218AF8F414406D012146
:1020C000C0F38300CAF8F8045046FFF771FC01F032
:1020D000B5FDC00404D4DAF8000055E00A30544FCE
:1020E000D5F80408102120F00100C5F80408DAF83A
:1020F000000003F0B3FA05F51060DAF804104FF6AB
:102100007F32A9B182600139036823F400130360B0
:10211000C0F80822D0F8003223F40013C0F80032CF
:10212000D0F8003243F00063C0F800322030E8E716
:10213000F06940F00110F061DAF8300040B1D6F8F3
:10214000840040F00B00C6F8840006F1440006E06D
:10215000706942F22B010843706106F110000168BA
:102160000AF2C44241F00B010160306820F4FE60C5
:1021700030609AF80C10DAF8000003F0E1F801F092
:1021800015FE01F48051416103F0C7FA0146DAF807
:102190000000890419D502F04BFFDAF8000003F0C3
:1021A00081FACAF81000DAF8004000F061FF9AF8EE
:1021B00010200146204603F011FB504600F0BAF90A
:1021C00001F0F4FD01F40051416103F0A6FA0007AB
:1021D00002D4DAF8000007E0504600F0C4F901F03C
:1021E000E5FD01F00801416103F097FA000606D40D
:1021F00001F024FDC00219D4DAF8000038E0059996
:10220000012440F2A325886920F080008861DAF873
:1022100004008442ECD21AF80500012803D1E1B28F
:102220005046FFF705FC24350134F0E705980AF124
:1022300063040126012700F51265DAF804008742DD
:1022400011D260782968B1F1FF3F08DC012806D17E
:1022500047F080002670C1B25046FFF7E9FB2434F6
:1022600020350137E9E701F0A1FD01F4801141615A
:10227000059C03F052FA800202D4DAF8000030E044
:1022800004F532610AF52970DAF8042001230124EB
:10229000944221D206780D68B5F1FF3F13DC012E80
:1022A00011D1DAF8FC6405F4803506F00106B54278
:1022B00009D1059EB56945F08005B56100F8013C7E
:1022C00075692D0603D5243020310134E0E70499E7
:1022D000486840F40070486001F068FD01F40011A6
:1022E000416103F01AFA400002D4DAF8000007E076
:1022F0005046FFF782FB01F059FD01F0804141613A
:1023000003F00BFA40077FF584ACDAF8000044686C
:10231000610704D55046FFF787FBDAF800004168F3
:102320002143416075E4D0F8080502F003BBD0F802
:10233000080502F00EBB2DE9F04F8BB0002800F02D
:1023400087800446056890F8BD0428B9002084F809
:10235000BC04204600F092F8032084F8BD04E86B2A
:10236000C00501D40020E060206802F0E3FF04F122
:10237000040B04F1140E04F1240A20680A90D4E935
:102380000C509BE80E089EE8C0509AE80007CDE983
:102390000850CDE900B602A880E8805005A880E882
:1023A00000070A9802F052FE00284ED12068002152
:1023B000002503F0D1F9616801200022D3B29942CF
:1023C00010D903EBC30604EB860686F83C20A6F87A
:1023D000563086F83D00C6E91155F56486F8405040
:1023E0000132EBE700200022D3B299420FD903EB70
:1023F000C30304EB830383F87C22C3E9A100C3F881
:102400008C0283F8800283F87D020132ECE704F14C
:10241000140E04F1240AA0680A902268D4E9033B50
:10242000D4E90C509EE8C0509AE80007CDE9085066
:10243000CDE900B602A880E8805005A880E8000732
:1024400010460A9A02F0B8FE30B1022084F8BD04AA
:1024500001200BB0BDE8F08F002084F83800012087
:1024600084F8BD04606A012802D12046FFF78CFA87
:10247000206802F095FE0020EBE7000070B5B8B0D0
:10248000044633A81421FDF7DEFF02A8B821083066
:10249000FDF7D9FF20682449884243D14FF48020BA
:1024A000029002250024039410954FF4001024900C
:1024B0004FF44060139011900320CDE90E50092095
:1024C0000D9001200C9002A800F0BEF808B1FEF7B4
:1024D00067F900F0B1F8154EB06840F00100B06047
:1024E000B06800F001000190CDE934540A20CDE934
:1024F00036404FF4C0503390019833A90C48FEF792
:10250000D7FF30680521002240F00060306030685D
:1025100000F00060019001986520FFF709FA65203E
:10252000FFF7F8F938B070BD00000840D8440258F1
:102530000000025810B50446006928B1022801D0F5
:10254000FEF72EF9012100E00021D4F8080502F081
:102550006BFAD4F80805BDE8104002F01EBAD0F8B6
:10256000080502F04ABAD0F8080502F050BA10B5D2
:1025700001F086FB04BF022010BD84F8381001F082
:102580004AFC03F01AF901F0E4BBD0F8082500F288
:10259000C441104602F054BA10B501F071FB04BFFB
:1025A000022010BD01F090FC06D4A16A012903D1DC
:1025B000816B41F48031816303F02AF8206802F0D6
:1025C000E3FD01F0C6BB000010B50446D0F80805D5
:1025D00002F078FA2068D0F8001E41F00101C0F83E
:1025E000001E206A20B10348016841F00601016025
:1025F00010BD00BF10ED00E0B0B5124D2A6829688B
:10260000520705D401F00701081A18BF0120B0BD18
:1026100021F00701084301F04CFB044655F8080C73
:10262000800406D4FFF714F801F00FFBF6D901205F
:10263000B0BD0020B0BD00BF0248016841F080710C
:10264000016070470C4802582DE9F0470446C078F5
:10265000A74F00071CD5A06E4FEA3051032908D8B8
:10266000DFE801F002090C11F96941F40031F96168
:1026700009E001260DE001F047FB01E001F0ABFBB2
:10268000064630B9A06E396C21F440110843386415
:1026900000266078BA46C00701D1354620E0A06D1B
:1026A00004280BD83546DFE800F0030C0F121200A7
:1026B000F869354640F40030F86108E0012501274B
:1026C0000FE001F0EAFA01E001F019FB05462F46A0
:1026D0003DB9A06D01F022FB21F0070101F035FBAF
:1026E0003746607880071ED5E06D4FEAB0100428A9
:1026F00007D8DFE800F003090C0F0F0001F035FBED
:1027000008E0012501260FE001F0C7FA01E001F021
:10271000F6FA05462E463DB9E06D01F0FFFA21F4C8
:10272000E07101F012FB3E466078400702D4B046EB
:10273000574623E0D4F8A80057464FEA70500428C3
:1027400007D8DFE800F0030A0D10100001F0F8FAD6
:1027500009E001254FF0010810E001F09EFA01E0C8
:1027600001F0CDFA0546A84645B9D4F8A800B96CE1
:102770000025B04621F460010843B8646078000782
:1027800020D5D4F8AC004FEA3060042807D8DFE841
:1027900000F003090C0F0F0001F0D2FA08E0012548
:1027A000012710E001F079FA01E001F0A8FA0546EE
:1027B0002F4645B9D4F8AC0001F0ABFA21F0E06146
:1027C00001F0B6FA4746E07880071DD5E06C4FEA85
:1027D0003010032806D8DFE800F00B02080B01F0E8
:1027E000C4FA05E0012501260FE001F08DFA054647
:1027F0002E4655B9E06CDAF83C100025524621F01F
:1028000030010843CAF83C003E466078C0061ED539
:10281000206E4FEA3030042807D8DFE800F00309C3
:102820000C0F0F0001F0A1FA08E0012501270FE0CD
:1028300001F033FA01E001F062FA05462F463DB996
:10284000206E01F06BFA21F4E04101F07EFA374688
:10285000607880061BD5606E4FEA3040052807D8A7
:10286000DFE800F00C03090C0C0C01F04BFB04E05A
:10287000012501260CE001F039FB05462E463DB945
:10288000606E01F04BFA21F4E02101F05EFA3E4661
:10289000607840061DD5D4F8B0004FEA30700528A6
:1028A00007D8DFE800F00C03090C0C0C01F02AFB40
:1028B00004E0012501270DE001F018FB05462F4635
:1028C00045B9D4F8B00001F024FA21F0E04101F05C
:1028D0002FFA37466078000618D5206F68B1B0F13E
:1028E000005F07D0B0F1805F22D101F03EFA04E032
:1028F0001044025801F006FB05462E463DB9206FF4
:1029000001F00CFA21F0405101F01FFA3E46E07848
:10291000C00702D1B04657461EE0A06C57460328B8
:1029200009D8DFE800F00F020C0F01F009FA09E006
:1029300001250126EBE701254FF001080CE001F02D
:10294000E3F90546A8463DB9A06CF96B0025B046F1
:1029500021F003010843F863A078400601D44746FC
:1029600016E0D7F8F00340F48070C7F8F003FEF7E4
:102970006FFE0646D7F8F003C00507D4FEF768FEE1
:10298000801B6428F6D90325032701E02F467DB17B
:102990002078C00747D0E06F4FEAF000052832D812
:1029A000DFE800F037033437373701F0ABFA2FE0B8
:1029B000DAF86010D4F8B4005546414011F4407F75
:1029C0000BD0296E2A6E42F480322A6621F44071BF
:1029D0002A6E22F480322A662966B0F5807F40F0A4
:1029E0000382FEF735FE064641F288390327DAF8FE
:1029F0006000800700F1F581FEF72AFE801B0325A9
:102A00004845F4D9C4E7012501260DE001F06EFA2E
:102A100005462E4645B9E06F01F085F921F03801F1
:102A20000843CAF844003E46207880071AD5A06FB4
:102A3000052807D8DFE800F00C03090C0C0C01F0A6
:102A400061FA04E0012501270DE001F04FFA054687
:102A50002F4645B9A06F01F066F921F00701084340
:102A6000CAF844003746207840071BD5D4F89400B4
:102A7000052807D8DFE800F00C03090C0C0C01F066
:102A800041FA04E0012501260DE001F02FFA054688
:102A90002E4645B9D4F8940001F03BF921F0070126
:102AA00001F046F93E46207880061ED5D4F8900005
:102AB0004FEA3070052807D8DFE800F00C03090C56
:102AC0000C0C01F0EAF804E0012501270EE001F00A
:102AD00082F905462F464DB9D4F8900001F023F94C
:102AE00021F0E0410843CAF8440037462078400608
:102AF0001DD5D4F89C004FEAB020052807D8DFE8A0
:102B000000F00C03090C0C0C01F0C7F804E00125DF
:102B100001260DE001F05FF905462E4645B9D4F8CF
:102B20009C0001F0F6F821F4E05101F001F93E4675
:102B3000207800061DD5D4F8A0004FEA7030052893
:102B400007D8DFE800F00C03090C0C0C01F0A5F825
:102B500004E0012501270DE001F03DF905462F466F
:102B600045B9D4F8A00001F0D4F821F4604101F097
:102B7000DFF837462068010714D5D4F88410B1F582
:102B8000805F07D101F027F9002818BF01272068CE
:102B9000D4F88410DAF84420534622F4405211430A
:102BA000CAF84410C10614D5D4F89810B1F5807F46
:102BB00007D101F010F9002818BF01272068D4F8C8
:102BC0009810DAF84820534622F440721143CAF8AC
:102BD0004810000318D5D4F8A400B0F5003F09D080
:102BE000B0F5803F03D010BB01F057F801E001F0D1
:102BF000F2F805462E4645B9D4F8A40001F089F84C
:102C000021F4403101F094F83E46A07840071FD5EA
:102C1000D4F88800B0F5401F0FD0B0F5001F09D0E0
:102C2000B0F5801F40F0D88001F09FF805E0012545
:102C30000126EAE701F05AF905462F464DB9D4F8C6
:102C4000880001F070F821F440110843CAF84400EC
:102C50003746A078C00701D13E4619E0206DB0F597
:102C6000803F03D090B901F080F802E001F04CF809
:102C700005462E4665B9206DDAF83C10002552460F
:102C800021F480310843CAF83C00E5E7012501261C
:102C90002168880001D4606806E001F09CF80028F3
:102CA00018BF0126D4E900108A031BD5D4F8802070
:102CB0006FF0010303EB3223022B0BD34FEA3223D5
:102CC00043B1012B40F08B80DAF81C3043F4003321
:102CD000CAF81C303DB9DAF8443023F440731A4383
:102CE000CAF844203546CA0207D5626FDAF8403088
:102CF00023F000431A43CAF84020CA0008D5D4F88C
:102D0000B820DAF8003023F480431A43CAF80020D0
:102D10008A0207D5E26EDAF8403023F080731A4356
:102D2000CAF840204A000CD5DAF8002022F400420C
:102D3000CAF80020D4F8BC20DAF800301A43CAF8E8
:102D40000020B1F1FF3F07DC626DDAF83C3023F080
:102D500040531A43CAF83C20090208D5D4F88C1015
:102D6000DAF8442022F440021143CAF84410C107A3
:102D700005D000F092FF002818BF05466068810763
:102D800005D501F0BFF8002818BF05466068410767
:102D900005D500F0B9FF002818BF05466068010797
:102DA00005D500F0ACFF002818BF05466068C106D5
:102DB00005D501F09BF8002818BF0546606880061D
:102DC00004D501F008F8002818BF0125002D18BF10
:102DD00001252846BDE8F0870125012739E70125AF
:102DE00081E75546D4F8B4002A68094900F44073D5
:102DF00022F47C5201EA1011B3F5407F6FF31F30CB
:102E000008BF0A432A60296E084328660025A6E504
:102E1000CFFFFF002DE9F843002800F0FB80934D21
:102E200004468846286800F00F0088420BD22868C4
:102E300020F00F0040EA08002860286800F00F002A
:102E4000404540F0E7802068D44F410709D521690B
:102E5000BA6900F0E5FF04D9BA6922F070021143A3
:102E6000B961010709D56169FA6900F0D9FF04D990
:102E7000FA6922F070021143F961C1060AD5A1690D
:102E8000FA6902F4E062914204D9FA6922F4E0623C
:102E90001143F961810609D5E1693A6A00F0C0FF82
:102EA00004D93A6A22F070021143396210F002012B
:102EB0000AD0E268BB6903F00F039A4204D9BB69E8
:102EC00023F00F031A43BA61C2073AD0D4E90101D3
:102ED000BA6922F470621143B961012807D003284E
:102EE00009D002280BD1396889030CD492E03968E3
:102EF000C90508D48EE03968890104D48AE03968AC
:102F0000490740F187803969A94621F00701084344
:102F10003861FEF79DFB064641F2883560683969E5
:102F200001F03801B1EBC00F07D0FEF791FB801B19
:102F3000A842F3D90320BDE8F88320684D4600F08D
:102F4000020151B1E168BA6902F00F02914204D264
:102F5000BA6922F00F021143B961296801F00F012B
:102F600041450AD9296821F00F0141EA0801296089
:102F7000296801F00F0141454CD1410709D521696C
:102F8000BA6900F04DFF04D2BA6922F07002114311
:102F9000B961010709D56169FA6900F041FF04D2FE
:102FA000FA6922F070021143F961C1060AD5A169DC
:102FB000FA6902F4E062914204D2FA6922F4E06212
:102FC0001143F96180060AD5E069396A01F07001A0
:102FD000884204D2396A21F070010843386200F057
:102FE00073F8B969374A2F4BC1F30321515C01F0E3
:102FF0001F01C840B969186001F00F01515C01F070
:103000001F01C8402849086004480068BDE8F8432B
:10301000FEF728BC0120BDE8F88300BF04000024AF
:103020003F2202601E4A52F8083C03F00703436047
:10303000136803F470638360136803F00F03C360C5
:10304000136803F070030361536803F07003436176
:10305000536803F4E0638361926802F07002C26116
:103060000248006800F00F0008607047002000521E
:1030700080B500F029F80A49124B0A68096801F086
:103080000F01C2F30322595C9A5C01F01F0102F0A8
:103090001F02D040034A1060C8400349086080BD49
:1030A00018440258080000240C00002480B5FFF7E3
:1030B000DFFF0349034A0968C1F3022100F0CBBED8
:1030C0001C4402583069000810B534490869C0F33F
:1030D000C20003280FD0022804BF324810BD40B9F7
:1030E00008688006334858D50968C1F3C101C84053
:1030F00010BD2B4810BD8A6A886ACB6A4C6BC0F33E
:103100000510F0B103F00103C4F3CC0402F0030294
:103110006343022A00EE103AB8EE400A13D0AAB96F
:103120000A68920651BF9FED221A0A68C2F3C102D3
:10313000204B42BF23FA02F201EE102AB8EE411AE8
:1031400006E0002010BD9FED191A01E09FED161A50
:103150000A6B9FED193A6FF35F2202EE102AB8EE68
:10316000422A00EE032AB7EE000A32EE000A02EE0F
:10317000100A086BC0F34620B8EE422A013081EEF7
:10318000021A21EE000A01EE100AB8EE411A80EE92
:10319000010ABCEEC00A10EE100A10BD004402582D
:1031A00000093D000024F4000024744A0024744BFC
:1031B0000024744C0090D0030000003970B586B034
:1031C0000D46014614462248224EF9B1D6F8D010D9
:1031D00000F5006041F00401C6F8D010D6F8D01018
:1031E00001F00401009103210491022102914FF4A6
:1031F00000710191002105910391009901A9FEF749
:1032000057F93068E40120F07E401BE0D6F8D0107A
:1032100041F00101C6F8D010D6F8D01001F001013C
:10322000009103210491022102914FF480710191D8
:10323000002105910391009901A9FEF739F9306841
:1032400020F0FE7044EA05010843306006B070BD0E
:103250000000025810440258F8B5002800F03F81E1
:1032600004460078D74EC0071FD12078800740F170
:103270009C80306910F03801B06A35D0182901D12E
:10328000800731D03068E168002955D020F019005E
:10329000084300F0D7FC0546306840073BD4FEF7F2
:1032A000D7F9401B0228F7D951E1306900F0380105
:1032B000B06A102905D018290AD100F003000228AD
:1032C00006D130688003D0D560680028CDD106E1F2
:1032D000606800283ED0B0F5A02F4BD0B0F5803FFD
:1032E0004CD000F03AFD4CE0E0683168490702D567
:1032F000002800F0F480316821F01901084300F043
:10330000A1FC05463068400705D4FEF7A1F900F09E
:10331000C0FCF7D9F8BDFEF795F941F203018842E8
:103320003CD82069716821F47C31402814BF41EAFF
:10333000003041F4003037E020F0010000F082FC62
:1033400005463068400730D5FEF782F900F0A1FC51
:10335000F7D9DFE700F001FD00F074FC05463068A6
:1033600080037FF582AFFEF773F9411B03206429C8
:10337000F5D9CFE7306840F480203060306840F401
:10338000803000F05FFC0546306880033FF56DAF8C
:10339000FEF75EF9401B6428F6D9D8E02069716811
:1033A00021F0FE4141EA006070602078C0063ED501
:1033B000306900F03801B06A082905D018291CD1FD
:1033C00000F00300012818D13068C00503D5E0697A
:1033D000802840F08480FEF735F941F203018842ED
:1033E0001ED8206A716821F0F841202814BF41EAF4
:1033F000806041F08040706019E03068E169002928
:1034000000F0D08040F0800000F01CFC05463068E1
:10341000C005E0D4FEF71CF900F03BFCF7D979E7D2
:10342000206AF16821F07C5141EA0060F060207868
:10343000000756D42078800665D42078400774D4DD
:10344000676A002F49D0306900F03800182840F032
:10345000BB80B16A306B012F41D0A26A01F0030337
:1034600093423CD1E26AC1F30511914237D1014642
:10347000226B6FF35F21013A914230D1626BC0F34E
:103480004621013A91422AD1A26BC0F30641013A8A
:10349000914224D1E16BC0F30660013988421ED10C
:1034A000A06C716BC1F3CC01884216D0F06A20F099
:1034B0000100F062FEF7CCF80546FEF7C9F8A84215
:1034C000FBD0706B4FF6F8718843A16C40EAC100E5
:1034D0007063F06A40F00100F0620020F8BD012046
:1034E000F8BD706F6169A1B340F001007067FEF72D
:1034F000AFF80546706F80079CD4FEF7A9F8401B13
:103500000228F7D923E03068A169E1B340F4805084
:1035100000F098FB0546306880043FF58EAFFEF75B
:1035200097F8401B0228F6D911E0D6F8000440F4C1
:103530008070C6F80004FEF78BF80546D6F8000444
:10354000C00516D4FEF784F8401B6428F6D9032082
:10355000F8BD20F001007067FEF77AF80546706F3D
:1035600080077FF567AFFEF773F800F092FBF6D99E
:10357000D0E6A068002842D0052853D0012855D0B5
:1035800000F021FC55E020F4805000F05BFB054684
:10359000306880047FF551AFFEF75AF800F079FBF0
:1035A000F6D9B7E620F0800000F04CFB0546306805
:1035B000C0057FF53CAFFEF74BF800F06AFBF6D98B
:1035C000A8E600BF00440258306820F0807000F088
:1035D00039FB0546022F08D1306880013AD5FEF745
:1035E00037F800F056FBF7D994E6306880017FF594
:1035F00074AFFEF72DF800F04CFBF6D98AE600F028
:10360000E2FB3067FEF724F8054641F28837306F59
:1036100080077FF515AFFEF71BF8411B0320B94269
:10362000F5D977E6306F40F004003067306F40F036
:1036300001003067FEF70CF8054641F28837306F1D
:1036400080073FF5FDAEFEF703F8411B0320B942AA
:10365000F5D95FE604F12805B06A40F2F3318843FA
:103660002ECD0843591E40EA0210B0626FF35F216D
:103670004FF4FE024FF47E4000EB452080B2084438
:10368000A16B02EB01414FF0FE4201F4FE01084440
:10369000E16B02EB016101F0FE41084430634FF63B
:1036A000F871F06A20F00100F062706B8843A16C41
:1036B00040EAC1007063206CF16A21F00C010843FC
:1036C000F062F06A616C20F002000843F062F06A78
:1036D00040F48030F062F06A40F40030F062F06A4A
:1036E00040F48020F062F06A40F00100F06230683F
:1036F00040F0807000F0A6FA0446306880013FF583
:10370000ECAEFDF7A5FF011B03200229F5D901E668
:103710002DE9F84338B3044600205749A0622068D9
:10372000884208D0554A904205D0974A904202D02C
:10373000E2680F2A17D8E268E36B0125083205EB2F
:103740005313D2085A4388420BD08F49884208D07D
:103750004A4B984218BF082A05D8884218BF984299
:1037600004D1102A02D90120BDE8F88394F8811011
:1037700029B900F0E1FA204600F082F82068022121
:1037800084F8811000F00DFBD4F81880616883681C
:1037900003F4F81CB8F1806F10D139B1B1F5800F86
:1037A0000CD1A56B35B14FF480010EE0A56BB5F1DE
:1037B000805F5ED1056845F4805505604D0204D4F4
:1037C000D4F80C904FF0010E0EE0D4F80C90B9F143
:1037D000070F07D3256D07684FF0000E27F4807799
:1037E0002F4304E04FF0000E076827F4807707604E
:1037F000E269A66AA768D4E9043542EA0C023243BA
:10380000E66B324342EA0902826041EA0802666BD3
:103810003243666A3243A66B32431A43236A2A4311
:103820001A43D4E912352A433A431A43A36D1A4383
:10383000C26049B98168012262F3CC218160022211
:10384000816862F34A218160016DBEF1000F21F0B1
:103850000101016505D1616DC26822F0004211438A
:10386000C1600020C4F88400012184F88110BDE803
:10387000F8830021A4E700BF00380040003C00406E
:1038800070B5B8B0044633A81421FCF7DCFD02A8DB
:10389000C021FCF7D8FD20683A49884240D03A4917
:1038A00088426CD14FF480500025039502901A9500
:1038B00002A8FEF7C9FE08B1FCF772FF3348344C8A
:1038C0000226016941F480510161016901F48051CE
:1038D00001910199016841F002010160016801F064
:1038E000020101910199016841F001010160006844
:1038F00000F00100019001983496052037900320D4
:10390000CDE935503820339033A904F58060FDF7B8
:10391000CFFD4FF400403695CDE93465339028E073
:103920004FF400500024039402901B9402A8FEF769
:103930008BFE08B1FCF734FF1448016941F40051D3
:103940000161016901F4005101910199016841F09F
:1039500010010160006800F010000190CDE93544CD
:10396000022034904FF4F04033900198084800F55D
:1039700080540520379033A92046FDF799FD38B0D3
:1039800070BD00BF0034014000300140E0440258E7
:103990000000025870477047704758B110B500F0EA
:1039A00063FA03D100F0F8F900F006F800F0AFFA7E
:1039B00000F082B9012070477047000090F83D1078
:1039C000012921D1022180F83D100168B1F1804F19
:1039D000C86840F00100C8600BD0124881421CBF8B
:1039E0001148814205D0114881421CBF10488142D4
:1039F0000CD18868114A734600F032FA9E4618BF0F
:103A0000B2F5803F0BD17047012070476248814278
:103A1000EFD008488142ECD007488142E9D000F05D
:103A200028BA00BF0004004000080040000C00401D
:103A30000018004000400140000401400700010060
:103A4000704710B5044600680169890712D5C1683E
:103A500089070FD56FF0020101610121217780698B
:103A6000800702D000F02DFA01E000F0CAF9002032
:103A7000207720680169490713D5C168490710D527
:103A80006FF00401016102212177806910F4407F09
:103A900002D000F016FA01E000F0B3F90020207720
:103AA00020680169090712D5C16809070FD56FF0B1
:103AB0000801016104212177C069800702D000F06C
:103AC00000FA01E000F09DF90020207720680169EC
:103AD000C90613D5C168C90610D56FF01001016180
:103AE00008212177C06910F4407F02D000F0E9F985
:103AF00001E000F086F90020207720680169C907FD
:103B000009D0C168C90706D06FF0010101612046E4
:103B100000F03AF820680169090609D5C16809066C
:103B200006D56FF0800101612046FFF734FF206861
:103B30000169C90509D5C168090606D56FF4807108
:103B400001612046FFF726FF20680169490609D573
:103B5000C168490606D56FF040010161204600F0BA
:103B60001DF820680169890602D5C168890600D45C
:103B700010BD6FF0200101612046BDE81040FFF745
:103B80000BBF70477047000000680349884218BFA8
:103B90007047FDF72FBE00BF000001407047FEE7F1
:103BA000F0B55200002337240025AA4208BFF0BD1B
:103BB000070F04EB1076B0F1204F38BF07F1300645
:103BC0004E5545F00106023500018B55EDE700002A
:103BD00080B50C480C49002200F0B0FD08B1FCF79C
:103BE000DFFD0848094900F08EFF08B1FCF7D8FD59
:103BF000044800F0ADFF18B1BDE88040FCF7D0BD2F
:103C000080BD00BFB8040024680000249C0000248C
:103C1000FEE770470148FDF7F3BF00BFD808002456
:103C20000090009820687047214600F07ABC009010
:103C30002946CDE90378CDE901977047DAF800000D
:103C400001F06BBD3060FDF703BD001BB0F57A7F5E
:103C500070471160116841F00101116020220021BC
:103C600080F8401080F841207047D0F8D42200EB53
:103C70008202D2F8B822002A7047204600F0A1BB89
:103C8000044690F8BC0401287047C0F804180020CE
:103C90007047411B03200229704704F108000021EE
:103CA00000F078B9002084F83400012084F8350051
:103CB00070472860FDF7CCBC012084F8480084F8E8
:103CC0003E0084F83F0084F8400084F8410084F806
:103CD000420084F8430084F8440084F8450084F8E6
:103CE000460084F8470084F83D00002010BD002005
:103CF000C4F8D40220461047204600F085BB04F1EA
:103D00002800002100F0A6B904F10800022100F00B
:103D100041B9DAF84810002552467047DAF84010E9
:103D2000002552467047DAF8441000255246704785
:103D30000843CAF848007047002084F880007047A4
:103D4000F86940F40030F86170470843CAF8400051
:103D50007047002084F8BC0410BD306820F4803027
:103D60003060306820F480207047DAF81C0051463B
:103D700040F40030CAF81C007047002184F8341069
:103D800070470020C4F8D40220460847204600F0BF
:103D9000FBBA3860FDF75CBC002084F83C0020468C
:103DA0007047016821F0010101607047DAF80000F6
:103DB000416970471C6844F000641C601C6844F052
:103DC00080441C607047306F20F001003067306F16
:103DD00020F00400704704F12800022100F03AB9F5
:103DE000E16D012201F01F0102FA01F1416070470B
:103DF0004FF080510160704794F89C02013802280E
:103E000070474DF808ED2046FFF7BBFE20465DF8F1
:103E100008EBFFF7B7BE012084F8BC0420687047A8
:103E200002F0700291427047E16D3F2201F01F01E4
:103E300002FA01F181607047044602F09FB9002048
:103E400084F8BC04B0BD04FA03F3D0F81C48234343
:103E5000C0F81C387047515C01F01F01C84080BD9C
:103E600002400020062A7047044690F83D000028D2
:103E70007047086840F0010008600020704709069C
:103E800000EBC00104EB81017047B8626FF35F2162
:103E90004FF47E4000EB42204FF0FE4280B20844D7
:103EA0004FF4FE0101EB034101F4FE0108442969CE
:103EB00002EB016101F0FE41084470472046FCF727
:103EC00073BB2046FFF7BCBD2068012184F8BC14F9
:103ED000C16BC90570470A5842F000620A500A587F
:103EE00042F080420A5042F21072704704F12800FA
:103EF000012100F0AFB804F16C02002307CA03608F
:103F00004A60704704F10800012100F043B8022024
:103F100084F83D00211D206800F0D2B9002084F80B
:103F20004000204670470000000000000000000034
:103F3000EFF30980BFF36F8F154B1A681EF0100F57
:103F400008BF20ED108A20E9F04F10602DE909002C
:103F50004FF0500080F31188BFF34F8FBFF36F8F86
:103F600002F02AFA4FF0000080F31188BDE8090042
:103F700019680868B0E8F04F1EF0100F08BFB0ECE9
:103F8000108A80F30988BFF36F8F704700BF00BFAE
:103F9000400F0024F8B5C34F0546B86A00F003008F
:103FA000032804BF0120F8BD38680C4620F080606B
:103FB000FFF7EFFE06463868000105D5FDF748FB20
:103FC000801B0228F7D941E095E80F00BE6A26F46D
:103FD0007C36013946EA0030FFF757FFB86368695D
:103FE000F96A21F0C0010843F862A869F96A21F072
:103FF00020010843F8624FF6F871F86A20F01000CB
:10400000F862F86B8843E969012C40EAC100F86363
:10401000F86A40F01000F8624FF4001008BF4FF447
:104020008010002C08BF4FF40020F96A0843F862A2
:10403000386840F08060FFF7ACFE04463868000145
:1040400006D4FDF705FB001B0328F7D30320F8BDBA
:104050000020F8BDF8B5934F0546B86A00F003009C
:10406000032804BF0120F8BD38680C4620F08050BA
:10407000FFF78FFE06463868800005D5FDF7E8FAA1
:10408000801B0228F7D941E095E80F00BE6A26F0B0
:104090007C76013946EA0050FFF7F7FE386468691C
:1040A000F96A21F440610843F862A869F96A21F4C9
:1040B00000710843F8624FF6F871F86A20F48070D6
:1040C000F862786C8843E969012C40EAC1007864A1
:1040D000F86A40F48070F8624FF0807008BF4FF4C7
:1040E0000000002C08BF4FF48000F96A0843F86212
:1040F000386840F08050FFF74CFE04463868800076
:1041000006D4FDF7A5FA001B0328F7D30320F8BD5A
:104110000020F8BD000000000000000000000000CA
:10412000074B19680868B0E8F04F80F30988BFF3BF
:104130006F8F4FF0000080F31188704700BF00BF01
:10414000400F002480B5FFF743FD012001F042FD40
:10415000FBE780B5012001F03DFDFBE780B54FF0A6
:10416000500080F31188BFF36F8FBFF34F8F02F0C1
:1041700079FA18B103484FF080510160002080F3B4
:10418000118880BD04ED00E080B59CB009A84C21E9
:10419000FCF759F901A82021FCF755F90220FEF798
:1041A0002BFA0020009001222348016821F0010130
:1041B0000160006800F0010000902048016862F38F
:1041C0008F310160016801F440410091009901685C
:1041D0008904FCD54FF440601B900C210220CDE9EE
:1041E000180109211A90CDE91600CDE912001591A8
:1041F0004FF4803001211491CDE9091009A8FFF78F
:104200002BF840204FF48061CDE906010890002092
:104210000590CDE903000121032002903F20019089
:1042200001A8FEF7F7FD00204FF400014FF48012C3
:10423000FEF7C4FF1CB080BD2C040058184802587B
:1042400010B51748184CD0F8801041F47001C0F830
:10425000801014490A6842F001020A6000220A61D3
:104260000B6823400B608A61CA610A628A62CA6273
:104270000A634A638A63CA630A644A640B6823F464
:1042800080230B600A6609490968B2EB517F02D1AD
:10429000074901220A604FF00061016010BD00BFB4
:1042A00008ED00E0004402587FEDF6EA0010005CE3
:1042B000088100510148FFF7C4BB00BFF40E002481
:1042C00070B5294A0368904205D0B0F1804F1CBFF9
:1042D000264CA04234D123F070034C682343904213
:1042E0000ED0B0F1804F0BD0204CA0421CBF204C10
:1042F000A04205D0204CA0421CBF1E4CA04229D198
:10430000CC6823F4407323434E6923F080030C6888
:104310008D6833430360C562846290420BD0154AB6
:10432000904208D0154A904205D0154A904202D0DA
:10433000144A904201D1096901630121416170BDB4
:104340000B4CA042C7D00B4CA042C4D00A4CA04298
:10435000C1D0C6E7094CA042D2D0094CA042CFD070
:10436000084CA042CCD0CFE7000001400004004040
:104370000008004000040140000C004000400140E3
:10438000004801400044014080B5D0F8B82252688E
:104390009047002818BF032080BD002070470020F0
:1043A000704780B513460A46002100F0EDFA002060
:1043B00080BD80B513460A46002100F090FB002026
:1043C00080BD10B58021044600F06AFB2046002124
:1043D000BDE8104000F064BB80B50521C0F8941220
:1043E00000220023002100F0CFFA002080BD80B51C
:1043F00013460A460221C0E90633C0F89412002190
:1044000000F06DFB002080BD80B50421C0F894123F
:1044100000220023002100F062FB002080BD00008C
:1044200010B5274C0A4602A0FFF7FEFB204610BD40
:1044300048494420436F6E66696700001220088077
:10444000004870478800002410B51D4C0A4602A0A1
:10445000FFF7EAFB204610BD48494420496E7465C9
:1044600072666163650000000420088000487047A0
:104470000401002410B5124C0A4602A0FFF7D4FB39
:10448000204610BD53544D6963726F656C6563744B
:10449000726F6E696373000010B5094C0A4602A082
:1044A000FFF7C2FB204610BD53544D3332204875F0
:1044B0006D616E20696E74657266616365000000EF
:1044C000A4020024B0B51A200880094908688A6847
:1044D00080180BD0074D4C680822A91CFFF760FB21
:1044E00005F1120120460422FFF75AFB0148B0BD36
:1044F00000E8F11F0801002410B5027843889342B8
:104500000DD994B29C420AD20478204422444478C3
:10451000052CF6D184788C4208BF10BDF1E700204D
:1045200010BDB0B5C8B100230446257815B10134DB
:104530000133FAE7DCB2022303EB440414800322C4
:104540004A700C70002204783CB1DDB202330130B5
:104550004C5545F001040A55F5E7B0BD032805D8D0
:10456000C000034921FA00F0C0B270470320704731
:1045700000030103D0F8D41200EB81000021D0F831
:10458000C002017300207047B0B58121044600F0DD
:10459000F1F8D4F8D4020025A56304EB8000D0F82C
:1045A000C00238B100F006FDD4F8D40204EB80005C
:1045B000C0F8C0520020B0BD0A21018000487047F9
:1045C000F800002410B5044613488121FFF794FF3A
:1045D00008B10A218171222020800F4810BD00BF40
:1045E00010B504460C488121FFF786FF08B107216A
:1045F000817122202080084810BD00BF10B50446FC
:1046000005488121FFF778FF08B10A218171222036
:104610002080014810BD00BFD4000024B0B504467E
:10462000102000F0C9FC0546D4F8D40204EB800049
:1046300000F530709DB10560207C0A21C4F8BC52A1
:10464000002808BF07216187204681210322042317
:1046500000F08EF90120208700202873B0BD0021D2
:1046600001600220B0BD0000BCB5D0F8D42200EB40
:104670008202D2F8C0320022ADF80620002B51D0C1
:104680000A7812F060020ED0202A49D14A78023A04
:10469000092A45D8DFE802F0051B44444444444459
:1046A0001D21191D2FE04C780B2C39D80022DFE892
:1046B00004F0063A3737373718373737242F90F852
:1046C0009C22032A2CD10DF1060102221CE019467E
:1046D00019E0C8780022586025E088780022186028
:1046E00021E0CA78212A20D0222A19D1CA88124969
:1046F0004A2A28BF4A220C3106E090F89C22032A5D
:104700000ED103F108010122FFF771FE00220AE039
:1047100090F89C22032A03D188780022986002E056
:10472000FFF74FFE03221046BCBDCA880249092A82
:1047300028BF0922E8E700BF1000002478B1002359
:10474000C0F8D032C0F8C432C0F8B83209B1C0F8ED
:10475000B4120270012180F89C1200F0A9B8032065
:10476000704780B5D0F8C802FDF790F9BDE88040E9
:10477000FFF7F4BE80B5D0F8C802FDF769F9BDE8CF
:104780008040FFF7EBBEB0B5044669B194F89C02D7
:10479000032847D1D4F8B8024269002A42D0FFF773
:1047A000A6FA00283ED0B0BDD4F89402022833D136
:1047B000D4E9070188420DD9431A11462046E36126
:1047C0001A46FFF7F6FD204600210022002300F0E4
:1047D000DBF821E00FD1A16981420CD3D4F8980213
:1047E000814208D22046002100220025FFF7E1FD8A
:1047F000C4F89852E7E794F89C02032805D1D4F84E
:10480000B802C16809B1FFF7BCFA2046802100F068
:1048100047F92046FFF7E0FD94F8A00210B1002010
:1048200084F8A0020020B0BD10B5044659B194F838
:104830009C02032828D1D4F8B802826922B3FFF77A
:1048400056FA08B310BDD4F8940203281CD1D4E959
:10485000570398420BD9C01AC4F85C01114698421C
:1048600038BF034620461A46FFF79BFD0CE094F83C
:104870009C02032805D1D4F8B802016909B1FFF7F9
:1048800080FA2046FFF7C0FD002010BD00207047D1
:1048900080B5012180F89C12D0F8B82232B101799C
:1048A00052689047002818BF032080BD002080BDBB
:1048B00010B5017839BB154C0921154AC0F8C8421A
:1048C000C4F808050220C4E900210021C4E903104E
:1048D000A06104F11C001821FBF7B5FD2046FDF78F
:1048E0002AFD08B1FBF75CFF084C80212046FDF74C
:1048F00060F8204600214022FDF75FF820460121A4
:104900008022FDF75AF8002010BD00BFD80800240F
:104910000000084001F07F02D0F8C802090602EB4F
:10492000C20200EB820000F13E0258BF00F27E227C
:104930001078704780B5FFF798F908D090F89C324E
:10494000032B02D1126A02B19047002080BD0320E0
:1049500080BD80B5FFF789F908D090F89C32032B11
:1049600002D1526A02B19047002080BD032080BD71
:1049700010B514461A46D0F8C8022346FDF7ADF824
:10498000BDE81040FFF7EABD80B5D0F8C802FDF7DA
:10499000CBF8BDE88040FFF7E1BDF8B5012680F80F
:1049A0009C620025C0F8A452456080F8A052C0F86F
:1049B00094520446D0F8B80250B142683AB1204649
:1049C000002190470546002818BF032500E0002578
:1049D00020460021002240234027FFF7C9FF204640
:1049E000802100224023A4F86461C4F86071FFF7BD
:1049F000BFFF2846A6842762F8BD90F89C120429C0
:104A000003D190F89D1280F89C120020704780B569
:104A100090F89C12032905D1D0F8B81211B1C969D8
:104A200001B18847002080BD01740020704780B527
:104A3000D0F8C802FDF79BFDBDE88040FFF78EBDB2
:104A4000B0B500F2AA250446284600F051F801202E
:104A5000C4F89402B4F8B002C4F8980294F8AA0218
:104A600000F01F01022908D001290CD089B9204685
:104A70002946BDE8B04000F06DB820462946BDE8A3
:104A8000B04000F0C5B920462946BDE8B04000F06E
:104A900061BA00F080012046BDE8B040AFF300806D
:104AA00080B5D0F8C802FDF75BF8BDE88040FFF79D
:104AB00055BD80B5D0F8C802FDF76EFDBDE8804059
:104AC000FFF74CBD90F89C12042903D090F89C127B
:104AD00080F89D12042180F89C120020704780B558
:104AE000D0F8C802FDF771F8BDE88040FFF736BD89
:104AF0000A7802704A7842704A8842808A888280A6
:104B0000C988C18070471CB504460020ADF8060076
:104B1000A9B1C4F8B812D4F8D40204F52E7151F832
:104B20002000C16A21B10DF106008847C4F8D00207
:104B3000D4F8D8020130C4F8D80200201CBD0320EC
:104B40001CBDD0F8B8220AB1126810470020704787
:104B5000FFF7AFBFBCB5044608780D4610F0600003
:104B600011D0402818BF202840F02381D4F8D40267
:104B7000294604EB8000D0F8B8028268204602B0D3
:104B8000BDE8B04010476878092800F21281DFE8DC
:104B900010F00A001E0010012C0010013700560012
:104BA000100170008200FFF727F900F20281E88807
:104BB000022840F0FE80D4F8A402032221460028F7
:104BC00008BF0122204641F80C2F0222EEE0FFF739
:104BD00013F900F2EE8068880025012840F0EC808F
:104BE000C4F8A452FFF788F8E6E06888022800F0CD
:104BF0007180012840F0DD800120C4F8A402DDE0CE
:104C0000A888002840F0D580E888002840F0D180AE
:104C100068887F2800F2CD8094F89C12032900F068
:104C2000C880C5B284F89E0220462946FFF7FFFEE1
:104C3000FFF762F8002D00F0E5800220E3E000209D
:104C4000ADF806004FF0FF31688801EB10210E2906
:104C500000F2AF80DFE801F008484FADAD5B65AD15
:104C6000ADADADADADAD7100D4F8B412207C0A6825
:104C700068E0E888012840F09C8094F89C02411E7E
:104C800002292BD2214620460122002541F8085F47
:104C9000FFF7ADFB90E068885C4D10F0FE0F2870C8
:104CA00003D0FEF7EAFF032586E0C1B294F89C0228
:104CB00003284CD0022861D1002900F07F802046D3
:104CC0006160FFF73EFF002800F084800546FEF794
:104CD000D4FF4FE0687984F8A0026FE0032868D120
:104CE000211D2046012261E0217CD4F8B802002970
:104CF0004AD0C16A49E0C0B205285AD8DFE800F0BE
:104D0000036E72767A7ED4F8B402426818E0207C92
:104D100000284ED1D4F8B802416B0DF10600884747
:104D200013E0207C002844D1D4F8B802016B0DF1C7
:104D300006008847014607202CE0D4F8B402C26977
:104D4000BAB3207C0DF106019047014623E0C1B3C0
:104D50006068884232D0C1B2FFF718F8297820463F
:104D60006160FFF7EEFE48B30546FEF786FF217946
:104D7000FFF70CF8022084F89C021DE0FEF77DFF8F
:104D80002978FFF703F88EE7816A0DF1060088475E
:104D9000014602204870EA8882B1BDF8060040B1A1
:104DA000904238BF0246ADF806202046FFF71FFBB1
:104DB00001E0FEF762FF00252846BCBDFEF79CFF20
:104DC000F9E70220616084F89C0200210025FEF7CB
:104DD000DDFF07E7FEF790FF032014E0D4F8B402EC
:104DE0008268ADE7D4F8B402C268A9E7D4F8B40287
:104DF0000269A5E7D4F8B4024269A1E7D4F8B40285
:104E000082699DE7012084F89C02D4E7A002002477
:104E100070B5044608780D790E4610F0600016D083
:104E2000402818BF202877D120462946FFF7B5FA39
:104E3000002873D10020C4F8D402D4F8B8028268E4
:104E4000002A6BD020463146BDE87040104770788C
:104E5000B0B101282ED003285ED194F89C0203281B
:104E60002CD1708848B945F08000802805D0F088A2
:104E700018B920462946FFF713FEFEF73DFF4DE027
:104E800094F89C02032828D0022845D145F08000E0
:104E9000802841D105F07F002A0600EB800004EB5A
:104EA000800000F1140158BF00F5AA7100200860CD
:104EB00020464BE094F89C02032831D002282BD1E5
:104EC00045F08000802827D020462946FFF7E8FDDE
:104ED00020468021FFF7E4FD20E005F00F0115F0EA
:104EE000800001EB810104EB810114BF898CB1F8D2
:104EF000641189B105F07F01002845F0800001EBC5
:104F0000810104EB810101F1140608BF01F5AA76C5
:104F1000802811D1002016E0FEF7AFFE002070BD02
:104F200070880028FAD1680603D020462946FFF78A
:104F300018FCFEF7E1FE77E720462946FFF7EAFC7A
:104F40000028E7D001203060204631460222FFF7DA
:104F50004EFAE3E7B0B5044608780D4610F060005D
:104F600018BF40280DD1FEF747FF0CD8A88810F0D5
:104F7000FE0F08D1C1B22046FFF711FA38B1032065
:104F800010E02028EFD0FEF778FE0020B0BDD4F866
:104F9000B8028268002AF2D00020C4F8D402294660
:104FA000204690470028F1D1E9880029EED1FEF78C
:104FB000A3FEEAE77047000000487047A4040024FD
:104FC000B0B50A784C7802F00F03012C16D10124F9
:104FD000FEF739FF00F510605301C458240422D4B1
:104FE0001C588D6809796FF3DF2545EA8252224308
:104FF00042EA81410D4A1143195014E04FF48034C4
:105000005201FEF720FF00F5306083581B040AD4DC
:1050100013588C6809796FF3DF24234343EA8141F5
:10502000024B194311500020B0BD00BF008000109A
:10503000D0F8001940F2FF729143C0F80019D0F87F
:10504000041841F48071FEF720BE000070B50446DC
:1050500006981D46012816D1A16B1C4A0D9821F413
:105060008031A163E1681140E160E168012821F429
:105070004011E16003D1E06840F48010E060204618
:1050800000F028F80FE0E0680A9E40F04000E06081
:10509000204600F01FF8A16B16B121F4803101E029
:1050A00041F48031A163012D0ED1E16D084A89B22E
:1050B000E165E16D1143E165A16841F00601A16080
:1050C000A16841F02001A16070BD00BFBFFFBDFF1E
:1050D0000000EE0381B0002100910F49009A0132D7
:1050E0000092009A8A4214D80269B2F1FF3FF5DCBF
:1050F00000220092026942F001020261009A01322C
:105100000092009A8A4204D80269D207F6D10020A0
:1051100000E0032001B07047400D030010B50A788D
:105120004B781849012B00EB42140AD104F51063A7
:10513000D4F80049B4F1FF3F01DCFEF73BFE012447
:105140000CE004F53063D4F8004B01F17071B4F158
:10515000FF3F01DCFEF72EFE4FF4803402F00F0219
:1051600004FA02F2D0F83C489443C0F83C48D0F826
:105170001C4824EA0202C0F81C281868084018607D
:10518000002010BD007833ECD0F8001E21F00301A0
:10519000C0F8001ED0F8041821F00201FEF775BD1A
:1051A000D0F8001E21F00301C0F8001ED0F804184A
:1051B00041F00201FEF769BD2DE9F84F0E46804629
:1051C000DDF844A00C990A9841220024502A03D00B
:1051D00048F822400132F9E7BAF1000F06D0D8F8BA
:1051E000382042F40012C8F8382017E0D8F8042814
:1051F00042F00202C8F80428D8F8382022F400123D
:10520000C8F83820D8F8002042F04002C8F8002042
:10521000D8F8002042F08002C8F80020002208F5EB
:105220000069C8F8002E9B460129D9F80020C9F86A
:10523000002006D1D9F80010002818BF41F0010164
:1052400003E0D9F8000040F00301C9F8001040461F
:10525000102100F003FA0090404600F0DFF9002131
:1052600008F510624FF67F330027C9F81010C9F80F
:105270001410C9F81C10BE420ED04FF09045002FFC
:1052800008BF4FF000651468013705EAE474146044
:10529000116193602032EEE708F5306100224FF68D
:1052A0007F330027BE420ED04FF09044002F08BF3E
:1052B0004FF000640D68013704EAE5740C600A6180
:1052C0008B602031EEE7D9F8101021F48071C9F815
:1052D00010100021C8F81810BBF1000F6FF08041CA
:1052E000C8F8141005D1D8F8181041F01001C8F80A
:1052F0001810D8F818100D4A1143C8F818100D9955
:1053000029B1D8F8181041F00801C8F81810BAF1FE
:10531000010F05D1D8F81810054A1143C8F8181024
:105320000099084318BF0120BDE8F88F00383C8081
:1053300004000040816821F0010181600020704775
:1053400010B5036C134CA34203D3D0F8003B002BE1
:105350001ED40023C0F8103BD0F8103B012943F4C1
:105360000023C0F8103BD0F8103B43F01803C0F8FE
:10537000103BD0F8103B43F0C043C0F8103B07D1BE
:10538000C0F8142BD0F8001B41F08021C0F8001B9E
:10539000002010BD0B30544F0A784B785201012B7E
:1053A00014BF00F5306000F51060835823F400133B
:1053B0008350097901F0FE01022903D1115841F00F
:1053C00080511150002070470A784978012900EB7C
:1053D000421019BFD0F8001B00F53060D0F800195A
:1053E00000F510602AB1002903D4016821F0804142
:1053F0000160016841F40011016000207047000065
:10540000F8B54B780C78012B1AD100EB441C0CF545
:105410001063DCF810590E69B6B36FF312051D6105
:10542000002C1D696FF3DC451D618D6858D077191C
:10543000013FB7FBF5F55A4F07EAC5471D6956E02E
:1054400000EB4413D3F8105B6FF31205C3F8105B45
:10545000D3F8105B6FF3DC45C3F8105B03F53063E2
:105460008D680E69E4B1F6B17419013CB4FBF5F630
:10547000B4B26C434A4D0C6205EAC6451E696FF32F
:10548000DF4435431D6115E06FF3DC451D610026E7
:105490001D6945F400251D611F696FF3120738E08F
:1054A00006B10D610D626FF3DF451C692C431C6171
:1054B0004FF400241D692C431C61012A02D1CA68E3
:1054C00002B15A610979012938D1D0F80808C0051C
:1054D0004FF0805058BF4FF00050196808432CE03F
:1054E000AE4201D92E460D611F694FF400253D43A0
:1054F0001D6135461F696FF3DF453D431D610D7921
:10550000012D07D11D6925F0C0451D611D6945F0BC
:1055100000571F61012A17D1CA690AB1CCF81429B2
:10552000097901290AD1D0F80818DCF80009C90561
:105530004CBF40F0805040F000501860186840F0B8
:10554000044018600020F8BD630100F51065EF58B5
:1055500047F00447EF500F79012F13D1D0F80878A6
:1055600053F805C0FF054FF0805758BF4FF0005764
:1055700047EA0C075F51B3B2C9680092224600F0B7
:10558000A5F9DFE7002EDDD004F00F01012202FAB9
:1055900001F1D0F834281143C0F83418D2E700BF25
:1055A0000000F81F81B0002200924A78012A15D12C
:1055B000097800F5106049014258B2F1FF3F22DC42
:1055C0007346FEF788FC9E46009B01330093009BC8
:1055D00093421AD80B58002BF6D414E0097800F542
:1055E000306049014258B2F1FF3F0CDC7346FEF7D0
:1055F00072FC9E46009B01330093009B934204D8AB
:105600000B58002BF6D4002000E0012001B07047B9
:10561000816841F0010181600020704781B0002164
:1056200000911F49009A01320092009A8A4212D8D2
:105630000269B2F1FF3FF5DC002200921022026104
:10564000009A01320092009A8A4204D80269D20676
:10565000F6D4002000E0032001B0704781B00022A2
:1056600000920F4A009B01330093009B934213D892
:105670000369B3F1FF3FF5DC89010023009320317A
:1056800001610099013100910099914204D80169AA
:105690008906F6D4002000E0032001B0704700BF67
:1056A000400D0300D0F8080810F0060005D00628C9
:1056B00018BF022803D102207047002070470F2036
:1056C0007047406900F001007047D0F81818D0F812
:1056D0001C08084080B27047D0F81818D0F81C0891
:1056E0000840000C704710B5D0F81028D0F83448A6
:1056F00001F00F0300EB411024FA03F3DB01D0F8B3
:105700000809DBB21A43104010BD00EB4111D1F87B
:10571000081BD0F8140808407047416980690840A8
:105720007047B0B593084FF4805423B1055941F840
:10573000045B013BF9E712F003020BD04FF48053F6
:10574000C058002320FA03F40833013A01F8014B52
:105750001404F7D10846B0BDB0B50446C06820F0C7
:10576000C040E060A1B101291CBF0120B0BDE068CC
:10577000002540F00050E0600120FBF77DFE681C32
:105780006169302D14D811F001010546F4D00FE005
:10579000E068002540F08040E0600120FBF76CFEEF
:1057A000681C6169302D03D811F001010546F4D160
:1057B0003238B0FA80F04009B0BDD0F8002801F0CE
:1057C0007F0122F4FE62C0F80028D0F8002842EAE7
:1057D0000111C0F80018002070470000022A34D1DF
:1057E000284A294B0A449A4202D24FF470512EE0C3
:1057F000264A274B0A449A4202D24FF4605126E0CF
:10580000244A254B0A449A4202D24FF450511EE0DA
:10581000224A234B0A449A4202D24FF4405116E0E6
:10582000204A214B0A449A4202D24FF430510EE0F2
:105830001E4A1F4B0A449A4202D24FF4205106E0FE
:105840001C4A1D4B0A449A420AD24FF41051C268B6
:1058500022F47052C260C2681143C16000207047D8
:10586000164A174B0A449A4202D24FF40051EEE70F
:10587000144A154B0A444FF4C0519A4238BF4FF4B2
:10588000E051E4E7405327FF00350C00401E1BFFAA
:1058900040420F0000DC0BFF804F1200808CF9FEAD
:1058A00020D6130060B6E5FE60E3160000D3CEFEFE
:1058B00040771B00C05BB3FEC091210000CA91FE7F
:1058C00020753800E05459FEE09C410010B5029C60
:1058D0000CB1002010BD0333120300F580509B086B
:1058E000002BF6D051F8044B1450013BF8E7FEE7CB
:1058F00010B500F00F03064CB0F1FF3F034A2344FC
:10590000C8BF83180801187010BD00BF00E400E094
:1059100014ED00E08EB0FBF779FFFEF735FC9E4CEE
:105920000025CDE90A559E4F4FF4E0710022206812
:1059300040F010002060206800F01000FEF770F9C1
:1059400040F002002060206800F00200FEF768F9D5
:1059500040F001002060206800F00100FEF760F9CF
:1059600040F480702060206800F48070FEF758F9E1
:1059700040F080002060206800F08000FEF750F9C1
:1059800040F040002060206800F04000FEF748F939
:1059900040F008002060206800F0080000900098A7
:1059A0007E4800F5406A81465046B84748464FF465
:1059B000E0610022B8477B480C2100228046B847AE
:1059C0004FF4041008900995DFF8DCB1042007902B
:1059D00007AF09F580603946D8474FF480700790CB
:1059E000394602260B95CDE9095508964046D84719
:1059F000012008903946CDE9095601264FF4E070A0
:105A000007905046D8474FF4E060079039460A9512
:105A1000CDE908654846D8470C20079039460A95D5
:105A2000CDE908654FF0010A4046D8470820052116
:105A30000022FBF77DFF0820FBF76CFF54F8080CF1
:105A4000032104224FF4804C4FF480634FF400761E
:105A5000802740F0010044F8080C5448C0E90921AF
:105A600053494FF480520562C0E90B55C0E9036306
:105A7000C0E9052CC56180E8A20054F8081C01F0BB
:105A8000010107910799FBF741FB0B20052100223B
:105A9000FBF74EFF0B20FBF73DFFDFF8189108F1F5
:105AA000704018214C4644F8080F09F10C00FAF731
:105AB000CAFC09F128001421FAF7C5FC2046FAF7C0
:105AC000BFFE3D4C3E493D488B462160211D81E88B
:105AD000210404F110001421FAF7B5FC2046FBF76D
