:020000040800F2
:10000000806C07246D030008297E000891730008A6
:10001000D57D000881110008CDA400080000000073
:10002000000000000000000000000000AD02000819
:10003000E11800080000000009030008598E0008BC
:100040008703000887030008870300088703000868
:100050008703000887030008870300088703000858
:10006000E3180008870300088703000869140008E4
:100070007514000887030008870300088703000839
:100080008703000887030008870300088703000828
:100090008703000887030008870300088703000818
:1000A0008703000887030008870300088703000808
:1000B00087030008870300088703000887030008F8
:1000C00087030008870300088703000887030008E8
:1000D00087030008870300088703000887030008D8
:1000E000870300088703000800000000870300085A
:1000F00087030008870300088703000887030008B8
:1001000087030008870300088703000887030008A7
:100110008703000887030008870300088703000897
:100120008703000887030008870300088703000887
:100130008703000887030008870300088703000877
:1001400000000000000000000000000000000000AF
:100150008703000887030008870300088703000857
:100160008703000887030008870300088703000847
:1001700087030008870300085D1400088703000850
:100180008703000887030008870300088703000827
:100190008703000887030008870300088703000817
:1001A0008703000887030008870300088703000807
:1001B00087030008870300088703000887030008F7
:1001C00087030008870300088703000887030008E7
:1001D00087030008F17E00088703000887030008F2
:1001E00087030008870300088703000887030008C7
:1001F00087030008870300088703000887030008B7
:1002000087030008870300088703000887030008A6
:100210008703000887030008870300088703000896
:100220008703000887030008870300080000000018
:100230008703000887030008000000008703000808
:100240008703000887030008870300088703000866
:100250008703000887030008870300088703000856
:100260008703000887030008870300088703000846
:1002700087030008870300088703000800000000C8
:1002800087030008870300088703000800000000B8
:100290000000000087030008DFF80CD000F008FB26
:1002A0000048004791B60008806C07242C4B196861
:1002B0000868B0E8F04F80F30988BFF36F8F4FF004
:1002C000000080F3118870470000000008480068B3
:1002D000006880F308884FF0000080F3148862B64D
:1002E00061B6BFF34F8FBFF36F8F00DF00BF00BF5A
:1002F00008ED00E0DFF80C00016841F470010160D6
:10030000704700BF88ED00E0EFF30980BFF36F8F07
:10031000134B1A681EF0100F08BF20ED108A20E959
:10032000F04F106009B44FF0500080F31188BFF314
:100330004F8FBFF36F8F0CF08DF94FF0000080F3FB
:10034000118809BC19680868B0E8F04F1EF0100F5A
:1003500008BFB0EC108A80F30988BFF36F8F704735
:1003600028010024EFF3058070470000064880470D
:1003700006480047FEE7FEE7FEE7FEE7FEE7FEE78A
:10038000FEE7FEE7FEE7FEE7598F00089902000846
:100390002DE9F05F0546002092469B4688460646BA
:1003A000814640241BE0284641464746224600F04D
:1003B000C7F953465A46C01A914110D31146184600
:1003C000224600F0AEF92D1A67EB01084F4622468F
:1003D0000120002100F0A5F917EB00094E41201E75
:1003E000A4F10104DFDC484631462A464346BDE815
:1003F000F09F2DE9F0410024061B254671F100060F
:1004000005DA01240027D0EB070067EB0101161E77
:1004100073F1000605DA0027D2EB0702012567EB2E
:100420000303FFF7B5FF86460E4617469C46AC42CF
:1004300004D00025D0EB050E65EB010624B10020A9
:10044000D2EB000760EB030C704631463A46634638
:10045000BDE8F08140EA01039B0703D009E008C929
:10046000121F08C0042AFAD203E011F8013B00F879
:10047000013B521EF9D27047D2B201E000F8012BC5
:10048000491EFBD270470022F6E710B513460A4614
:1004900004461946FFF7F0FF204610BD421C10F835
:1004A000011B0029FBD1801A704710B5002200E023
:1004B000521C835C8C5CA34201D1002BF8D1D8B2D2
:1004C000E1B2401A10BD00000FB400B58DB010A904
:1004D00009900B9000914FF0FF300A9000200C9093
:1004E00005480690054807906A4609A80F9900F04C
:1004F0003DF90DB05DF814FB89070008A707000857
:100500002DE9FF5FD2E901A74FF0000891699946F4
:100510001446DDF838B0464601988847054659EA42
:100520000B0005D009E0A169761C019888470546B3
:10053000216A284688470028F5D1681C03D05FEA65
:10054000CA7005D015E04FF0FF3004B0BDE8F09F51
:100550002068011D2160D0F800800AE05FEACA70BF
:1005600001D108F8015BA169761C7F1E01988847BC
:100570000546002F1ADD681C18D0B9F1000F0DD008
:10058000E81705EBD060421120F01F0059F8221047
:100590002A1A012090400142E0D107E0BBF1000F90
:1005A000DCD1216A284688470028D7D0E169019824
:1005B0008847BBF1000F07D1002E05DD5FEACA7046
:1005C00002D1002188F80010A068B84203DDBBF119
:1005D000000F03D017B16FF00100B6E73046B4E763
:1005E0002DE9F04D81EA030404F0004B21F00045B1
:1005F00014464FF0000A23F0004150EA050220D0D3
:1006000054EA01021DD0C5F30A570246C5F313038D
:10061000C1F31300C1F30A5640F4801543F480136C
:10062000A7EB0608101BD64608F2FD3873EB050051
:1006300002D308F1010801E092185B41B8F1000F04
:1006400003DA00200146BDE8F08D00204FF4801150
:10065000064684460EE0171B73EB050705D3121BF5
:1006600063EB050306434CEA010C49084FEA3000EE
:1006700092185B4150EA0107EDD152EA030012D013
:1006800082EA040083EA0501084305D0101BAB4150
:1006900006D20122002306E000224FF0004302E0D0
:1006A0006FF0010253101AEB06004CEB085110EBEF
:1006B0000A0041EB0B01BDE8F04D00F085B80EB526
:1006C00040F2334102910021CDE900110A460B4668
:1006D00000F089F803B000BD0EB540F2334202923B
:1006E0000022CDE90022134600F07DF803B000BDE2
:1006F000C1F30A5210B5C1F3130140F2FF3341F4C4
:1007000080119A4201DA002010BD40F233439A4230
:10071000A2F2334203DC524200F012F810BD9040C6
:1007200010BD202A04DB203A00FA02F100207047B5
:100730009140C2F1200320FA03F31943904070471F
:10074000202A04DB203A21FA02F00021704721FA26
:1007500002F3D040C2F1200291400843194670478D
:10076000026811441378016018467047D16004494B
:1007700051610449116200211161114600F0B0B8C5
:1007800061070008D5080008426842B1016811F805
:10079000013B23B1521EC0E90012184670470121E7
:1007A000C160881E704742685AB1C368016843B986
:1007B00083688B4205D0491E521CC0E900120020FC
:1007C00070474FF0FF30704710B5141E73F10004EE
:1007D00008DA401C41F1000192185B411A4301D133
:1007E00020F0010010BD2DE9F04D92469B4611B15D
:1007F000B1FA81F202E0B0FA80F220329046FFF7BF
:1008000090FF04460F4640EA0A0041EA0B015346B6
:100810005A46084313D0114653EA010019D0C8F1D3
:1008200040025046FFF78CFF05460E46504659469B
:100830004246FFF776FF084305D0012004E020463A
:100840003946BDE8F08D0020054346EAE0762C43AA
:1008500037430A986305E40AA0EB08000022FD0A6A
:1008600044EA47540A3002D500200146E9E7010571
:1008700010196941DDE9084500196941BDE8F04DED
:10088000A2E770B521F0004303430CD0C1F30A5531
:100890000024D5EB040564EB0403D617AD1AB3416D
:1008A00002DB0020014670BD201841EB025170BDF3
:1008B000064C074D06E0E06840F0010394E80700AD
:1008C00098471034AC42F6D3FFF7EAFC94CD000809
:1008D000B4CD0008C0B24FF4F05100F097B9000059
:1008E0002DE9F34F8BB04FF0000801F10C000C46DE
:1008F0004FF0010B46460DF1080A01906269012193
:1009000001989047051E2DD0252D2CD0216A8847AF
:10091000C0B16269012101989047216A8847002887
:10092000F7D1411E62690198904700E0761CA169E9
:100930000B988847216A88470028F7D1E1690B980E
:100940008847DBE7A1690B9888470746A84201D191
:10095000761CD3E7E1690B9888477F1C02D1B8F178
:10096000000F6FD046E1002762693D463946019885
:1009700090472A2804D162690121019890470125F6
:10098000DFF884926269012101989047A0F130015B
:100990000A290AD24F45E5DC07EB870100EB410746
:1009A000303FDFD445F01005ECE7E90601D46FF0E5
:1009B00000476C280AD04C2814D0682815D06A2823
:1009C0000DD074281CD07A281AD01DE0626901214C
:1009D000019890476C2802D045F0040514E045F0DA
:1009E00002050DE045F020050AE062690121019849
:1009F0009047682802D045F0080505E045F40065F9
:100A00006269012101989047C4E9015765283DD0EA
:100A100019DC58287AD00CDC452837D004DC25288E
:100A200026D0412831D131E046282FD047282CD17B
:100A30002CE05B2877D0612828D063287CD06428FC
:100A400023D15AE0D0E06F2848D008DC66281DD0BA
:100A500067281BD0692821D06E2816D127E070287E
:100A600045D0732868D0752847D078280DD14DE03F
:100A7000A1690B988847054625283FF469AFE169CD
:100A80000B9888476D1C3FF46AAFB3E023466A4673
:100A90006FF001000B99AFF300809EE045F040003D
:100AA0006060A80723464FF0000236D43EE0E80716
:100AB0007FF447AF2068011D21600068290501D53A
:100AC00006701BE7290701D5068017E7A90703D59C
:100AD000F117C0E9006111E706600FE745F040003B
:100AE0006060A80723464FF0080216D41EE040F6C7
:100AF0000E0125EA0100606016E045F040006060EC
:100B0000A80723464FF00A0207D40FE045F0400043
:100B10006060A80708D5234610226FF001000B99EA
:100B2000AFF3008059E007E0234610226FF0010088
:100B30000B99AFF3008050E04FF000094F464B4651
:100B4000632802D05B2806D040E0E80601D40120EB
:100B5000A06001273AE062690121019890475E2870
:100B600005D14FF001096269494601989047216912
:100B700039B900210A46534643F82120491C082967
:100B8000FADBB0B3216969B9C11700EBD162531127
:100B90000AEB830122F01F02821A01200B689040A9
:100BA00003430B6062690121019890475D28E8D1F9
:100BB000B9F1000F09D00020514651F82020D2434E
:100BC00041F82020401C0828F7DB02AB22460097A2
:100BD0006FF001000B99FFF793FC00280CDA401C22
:100BE00008D1BBF1000F05D04FF0FF300DB0BDE8CC
:100BF000F08FFFE74046F9E7E90701D108F1010866
:100C000006444FF0000B79E6CCCCCC0C7F2801D900
:100C1000002208E0064A02EB5002C007127800D119
:100C2000120902F00F0201209040084070470000B6
:100C300038CD000870B58C1810F8015B15F007036B
:100C400001D110F8013B2A1106D110F8012B03E065
:100C500010F8016B01F8016B5B1EF9D12B0705D46D
:100C60000023521E0DD401F8013BFAE710F8013BB6
:100C7000CB1A921C03E013F8015B01F8015B521ED2
:100C8000F9D5A142D8D3002070BD0000044A00234A
:100C900010601068506091601161D360704700006F
:100CA000A0E80524F0B40E4B050C0E0E049C0F0AB0
:100CB0004FEA114C5D801880250A83F88562200C6C
:100CC00083F8897283F88D1283F88AC25A67DC76BA
:100CD0009D7683F84C001846F0BC06F0C7BC0000B7
:100CE000B4E805240A490A6982420FD30A686AB146
:100CF0008A685AB14A684B6803444B600B691B1AF7
:100D00000B61CB681844C8601046704700207047DC
:100D1000A0E8052438B5040303F048FD054620206B
:100D20008DF80000210C8DF80110220A8DF80220A8
:100D300000238DF8033000F057F90C4804224FF4DB
:100D40007A73694606F06AF840F6B83407E000BFE7
:100D500003F02CFD401BA04201D9032038BD00F058
:100D600007F80228F4D0002038BD000044D7022440
:100D70000EB509A200214FF47A70126802238DE8A3
:100D80000700064801AA02A906F05EF99DF80500D1
:100D9000C00700D002200EBD0500000044D7022489
:100DA00038B5662069464FF47A748DF80000012248
:100DB0000848234606F032F899208DF800000548CF
:100DC00001222346694606F029F8BDE83840FFF7BE
:100DD000CFBF000044D702242DE9F74F0403154686
:100DE000064603F0E3FC07463046FFF793FF2E0A62
:100DF000DFF8C4804FF47A794FF0020A4FF4807B19
:100E0000EDB22BE088F800A0220C88F80120230A1C
:100E100088F8023008F1040088F803405A46019926
:100E2000FFF718FB00F0E0F823494FF482722348E3
:100E30004B4605F0F3FF70BB05E000BF03F0B6FCC6
:100E4000C01B48452FD8FFF793FF0228F6D0019822
:100E5000761E04F5807400F580700190002ED1D1CB
:100E60003DB388F800A0220C88F80120230A88F8F6
:100E7000023008F1040088F803402A460199FFF780
:100E8000E9FA00F0B1F80C492A1D0C484C464B46D3
:100E900005F0C4FF48B10120BDE8FE8F03F086FCD9
:100EA000C01BA04201D90320F6E7FFF761FF02282B
:100EB000F4D00020F0E7000060E1022444D70224CF
:100EC0002DE9F84F0403214D170A8A464FF47A7929
:100ED0004FF003084FF4827BD6B21AE085F8008009
:100EE000220C6A70230A194AAB705B46EC701146FB
:100EF0001748CDF8009006F0A7F8E8B9291D50462C
:100F00004FF48072FFF7A6FA7F1E0AF5807A04F587
:100F10008074002FE2D1BEB185F80080220C6A7087
:100F2000230A0A4AAB70331DEC7011460848CDF80D
:100F3000009006F089F810B10120BDE8F88F291D56
:100F400032465046FFF786FA0020F6E760E10224B9
:100F500044D702242DE9F84F0403214D170A8A468D
:100F60004FF47A794FF003084FF4827BD6B21AE03F
:100F700085F80080220C6A70230A194AAB705B4620
:100F8000EC7011461748CDF8009006F05DF8E8B90E
:100F9000291D50464FF48072FFF75CFA7F1E0AF558
:100FA000807A04F58074002FE2D1BEB185F800800C
:100FB000220C6A70230A0A4AAB70331DEC7011468A
:100FC0000848CDF8009006F03FF810B10120BDE8C8
:100FD000F88F291D32465046FFF73CFA0020F6E70D
:100FE00060E1022444D7022438B503F0DFFB054654
:100FF000694606208DF800004FF47A7409480122F2
:10100000234605F00BFF06E003F0D0FB401BA04297
:1010100001D9032038BDFFF7ABFE0228F4D0002031
:1010200038BD000044D7022470B5002000210D4CCB
:1010300042F63025E36833F81120520823F81120D6
:101040001044491C89B2A942F5D3FFF738FB9FED44
:10105000061B53EC112BFFF7C3FAFFF749FB208166
:1010600070BD0000E4020024000000000018C5402C
:1010700030B50021074A42F63023D26830F81150CB
:1010800032F811402C4422F81140491C89B299428F
:10109000F4D330BDE402002403480021018145F26D
:1010A0006041C068FFF7EFB9E40200242DE9F05F6A
:1010B000012B914683464FF0000502D0022B03D04E
:1010C00004E04FF4B47601E04FF4C8762A4CC1F343
:1010D0000B02DFF8A8A0090B09EB020080B2C4E9FB
:1010E00001124FF480576080B8420CD870183A460D
:1010F0000103504607F0A4F9A1684A4658465144F6
:10110000FFF7A8F934E0000B4FF0000820702CE046
:1011100060683A46304440440103184807F090F9AB
:10112000B8F1000F0BD02078804514DA13490BEB8F
:1011300005003A46FFF78EF905F5805513E0A068E3
:10114000C0F580520AEB00015846FFF783F9A0680A
:10115000C0F5805507E006D10849A9EB05020BEB65
:101160000500FFF777F908F1010821788845CFDD00
:101170000020BDE8F09F00008C010024941F032490
:10118000FEE700001C480023F0B50360BFF34F8F5B
:10119000001F1A4D43F6FF740068C0F34E31C0F3D0
:1011A000C90204EA4116104646EA80772F60401EC5
:1011B000FAD2491EF5D2BFF34F8F0F48703801683D
:1011C00041F480310160BFF34F8FBFF36F8FBFF3E6
:1011D0004F8FBFF36F8F094910390B60BFF34F8FEB
:1011E000BFF36F8F016841F400310160BFF34F8F8F
:1011F000BFF36F8FF0BD000084ED00E060EF00E012
:10120000F0B593B00546482101A8FFF73CF900234B
:10121000002001462A2401AE3922C4EB041705EB55
:10122000071737F812C026F813C05B1CDBB2521C3C
:10123000D2B23F2AF5D3641CE4B2302CECD30023A5
:101240001C465A1C1746D2B20FE036F8125036F838
:1012500014C0654507D9144636F813C0224626F84F
:1012600012C026F81350521CD2B2242AEDD3FBB27E
:10127000232BE5D30122002536F8123018186941D6
:10128000521CD2B2232AF7D322220023FFF780F880
:1012900013B080B2F0BD00002DE9F04184460D4648
:1012A0001746984603261C4C00202178002909D0B7
:1012B00001290DD0022928D0207060700026304608
:1012C000BDE8F08160700120207080202870F6E772
:1012D0006046FFF795FF0221B84202D92878E070F6
:1012E00003E040450DD82878A0706078401CC0B25B
:1012F0006070142807D2A078E1780844400828706C
:10130000DDE72170DBE72170D9E702262070A070AD
:10131000FF21E1706070D2E7E402002410B507F00D
:1013200075FD4FF4A074204600F0D8FA07F089FD4F
:10133000204600F0D3FA012010BD00002DE9F04155
:1013400084461F4604251B4C0022042005262379D1
:10135000062B29D2DFE803F003090F151A2408220F
:101360000A7020710120607121E009220A70207149
:10137000022060711BE00A220A7020710320607154
:1013800015E00B220A702071667110E06046FFF7CD
:1013900037FFB84202D26079207108E0267106E07A
:1013A00062712271032502E00025227162712846D4
:1013B000BDE8F081E402002410B5806B816C496DBA
:1013C000022906D0012180F83510C16C41F040019E
:1013D000C16401F0FBF910BD10B5816B0C468A6B3E
:1013E000886C0168CAB10A68A36B02F40022DB07AB
:1013F00006D12AB1C968E26B01EBC201002207E005
:101400000A68120319D40969E26B01EBC2010122D7
:1014100001F0C8FBA06B401E0EE00868000302D577
:10142000606CC86009E00868000306D4E26B606C79
:1014300000EB82000861206CA063A06B216C8842E5
:101440000BD12068C16841F00101C16020680068CB
:10145000800702D5012084F8350010BD014801F055
:10146000CBB9000020D60224014801F025BF0000BE
:1014700044D80224014801F01FBF0000CCD7022449
:10148000294A016891423AD0274A1832914236D00F
:10149000254A3032914232D0234A483291422ED0EE
:1014A000214A603291422AD01F4A7832914226D096
:1014B0001D4A9032914222D01B4AA83291421ED03E
:1014C0001A4A91421BD0194A1832914217D0174A32
:1014D0003032914213D0154A483291420FD0134A0C
:1014E000603291420BD0114A7832914207D00F4AB4
:1014F0009032914203D00D4AA832914211D1CAB222
:101500001823103AB2FBF3F26FF30901032A02F039
:101510000703074AD25CC26500D9091D81650846E8
:10152000704721F0FF01F9E710000240100402406B
:1015300034CC000830B5224A012301689142CAB276
:101540001BD01F4C1434A14217D01D4C2834A1428B
:1015500013D01B4C3C34A1420FD0194C5034A14243
:101560000BD0174C6434A14207D0154C7834A142FB
:1015700003D0134C8C34A1420CD11421114C083AE5
:10158000B2FBF1F10F4A803201F01F0504EB81013B
:10159000AB4010E00C4D1824103A0D44B2FBF4F1AE
:1015A000A82D00D80831094A01F01F0402EB81017F
:1015B000064AA3408032603080E80E0030BD000053
:1015C0000854025800580258F0FBFDBF00080240C2
:1015D00010B50279531E072B2DD8174C0168A14274
:1015E0001BD0154C1434A14217D0134C2834A142FF
:1015F00013D0114C3C34A1420FD00F4C5034A142B7
:101600000BD00D4C6434A14207D00B4C7834A1426E
:1016100003D0094C8C34A14203D10849074C443112
:1016200002E00749064C443104EB8202C0E91B2169
:1016300001219940416710BD08540258FC580258D6
:10164000FC08024010B583694FF0C074826A0146FD
:10165000002053B1B3F5005F15D072B1012A0CD050
:10166000022A0AD0032A09D104E01AB1012A06D0BD
:10167000022A03D1C96AC90100D5012010BDC96A77
:10168000A142FAD010BD002AF7D0012AF2D0022AD6
:10169000F3D0032AF3D010BDF0B59FB0144600225A
:1016A000054613484FF4003C0E46CDE900020715ED
:1016B0000692CDE90472CDE9072C43150C928021E6
:1016C00068460992CDE902130B9202F06DF90028E9
:1016D0000CD123462A463146684602F09DFC00287C
:1016E00004D1C8226846002102F0C8FA1FB0F0BD3C
:1016F000100402407047000030B5254D0468AC422C
:1017000038D0234D1835AC4234D0214D3035AC4261
:1017100030D01F4D4835AC422CD01D4D6035AC4209
:1017200028D01B4D7835AC4224D0194D9035AC42B1
:1017300020D0174DA835AC421CD0164DAC4219D064
:10174000144D1835AC4215D0124D3035AC4211D085
:10175000104D4835AC420DD00E4D6035AC4209D02D
:101760000C4D7835AC4205D00A4D9035AC4201D0D5
:10177000084DA83563608368402B036803D09960E7
:101780000068C26030BD9A600068C16030BD000072
:10179000100002401004024070B5D0E91964856D54
:1017A0007460C46E14B1D0E91C466660404E046893
:1017B000B4423AD03E4E1836B44236D03C4E303663
:1017C000B44232D03A4E4836B4422ED0384E60360B
:1017D000B4422AD0364E7836B44226D0344E9036B3
:1017E000B44222D0324EA836B4421ED0314EB4425A
:1017F0001BD0304E1836B44217D02E4E3036B4427D
:1018000013D02C4E4836B4420FD02A4E6036B44224
:101810000BD0284E7836B44207D0264E9036B442CC
:1018200003D0244EA836B44214D190F85C603F2413
:1018300006F01F06B440AC600468256825F48025D6
:1018400025602DE09A600068C16070BD99600068F5
:10185000C26070BD184EB4421BD0174E1436B4424D
:1018600017D0154E2836B44213D0134E3C36B4422E
:101870000FD0114E5036B4420BD00F4E6436B442E6
:1018800007D00D4E7836B44203D00B4E8C36B4429E
:10189000DFD190F85C60012406F01F06B4406C6054
:1018A000046863608368402B0368CFD1CAE70000F7
:1018B0001000024010040240085402583EB5069C35
:1018C0008DE81C00044A0B4603490C3192F8D420E1
:1018D00009F08EFD3EBD00002005002402F050BD41
:1018E0007047042002F04CBE704700002DE9FF4F06
:1018F00016460F462DED0E8B9BB0DDE936459FED6C
:10190000C08A02EB46014FF0000B07EB860AB0EEEF
:1019100048AA95F8600007EB4109F0EE489AB0EE4E
:1019200048BAF0EE48AAF0EE48DAB0EE48DAF0EE47
:1019300048CAB0EE489AF0EE488AB0EE48CAF0EED7
:1019400048BA40B39DF8E02007EB460838A990421A
:101950004FF05C0203A83BD1FEF77CFDCDF800B050
:101960000123CDE9014529983246394600F07CFC37
:101970005C22B0EE40AA38A903A8FEF76BFD012057
:1019800041468DE8310003462998324600F06CFC50
:10199000B0EE40BA5CE05C2238A903A8FEF75AFD1D
:1019A000CDF800B00123CDE90145299851463246D2
:1019B00000F05AFC5C22F0EE409A38A903A8FEF72A
:1019C00049FD012049468DE83100034632463AE0A0
:1019D000FEF740FDCDF800B00123CDE9014529987F
:1019E0003246394600F040FC5C22B0EE40AA38A9ED
:1019F00003A8FEF72FFD01270097CDE9014529989F
:101A000041463B46324600F02FFC5C22B0EE40BA25
:101A100038A903A8FEF71EFDCDF800B00123CDE9DB
:101A2000014529985146324600F01EFC5C22F0EE3A
:101A3000409A38A903A8FEF70DFD00970123CDE9D0
:101A4000014549463246299800F00EFCF0EE40AAC6
:101A500095F86000B7EE00EA30B19DF8E0108842DA
:101A600005D1F0EE4EDA17E0B0EE4E8A14E038A958
:101A700001EB800095ED0A0AD0EC020A70EE60BA24
:101A800031EE40CA3CEE2B0ACCEE000A8BEE801AF7
:101A90003EEE608A7EEE41DA95ED190A9DED441A1C
:101AA000B4EEC10AF1EE10FA02D8F0EE4E8A23E04D
:101AB000DDED450AB4EEE00AF1EE10FA02DBB0EE1D
:101AC0004E9A19E070EE41CA30EEC0DAB7EE000B64
:101AD000B7EEEC2A3CEE8D1AB7EECD4AB7EEC11A3E
:101AE00082EE013B84EE012B30EE431BF7EEC18BFF
:101AF00030EE420BB7EEC09BE878012873D02AEE97
:101B00002D0A09EE880A00BFDDED48DA3D491DEED9
:101B1000900A88422EDA287960B3B7EEED1A9FED6D
:101B20003A5B9FED3B2B9FED3C6B9FED3D3B9FED6B
:101B30003E7B9FED3F4B11EE052B1DEE900A3E497B
:101B4000884201EE063B01EE074BB7EEC00A22EEDB
:101B5000001B21EE001B03EE001B31EE040BB7EE61
:101B6000C00B07DD7EEE6D1ADDED4A0A81EEAD1A7F
:101B700001EE600ADDED490A30496FF07C5210EE4B
:101B8000900A1044884205D2687918B180EE201A74
:101B9000B0EE410A84ED0BBA84ED0AAAC4ED0DAA99
:101BA000C4ED0C9AD5ED190AC4ED080AD5ED0A0A60
:101BB000C4ED090A2998A08395F86000A070C4EDCF
:101BC0000F8A84ED109A84ED128AC4ED14BA84ED64
:101BD00013CAC4ED15CA84ED16DA1BB0BDEC0E8B2A
:101BE000BDE8FF8FFFE72BEE2D0A6AEE2D0A0AEE05
:101BF000880A49EE880A29EE000A08EEA00A83E75F
:101C00000000000048E17A3F98CBAE8152102A3F95
:101C10000E59782D151A273F26C808A87004E8BF6A
:101C20003DF0315871EAFB3F3D61890794FD10C0DA
:101C3000F5A276BF0A0013406666663FFFFF7F008D
:101C40002DE9FF4F16460F462DED0E8B9BB0DDE9BB
:101C500036459FEDC08A02EB46014FF0000B07EBC3
:101C6000860AF0EE489A95F8600007EB4109B0EE5D
:101C7000489AF0EE48AAB0EE48AAF0EE488AB0EED4
:101C800048DAF0EE48CAF0EE48DAB0EE48CAF0EEB4
:101C900048BAB0EE48BA40B39DF8E02007EB4608DA
:101CA00038A990424FF05C0203A83BD1FEF7D2FB6B
:101CB000CDF800B00023CDE90145299832463946D8
:101CC00000F0D2FA5C22F0EE409A38A903A8FEF7A1
:101CD000C1FB012041468DE831002998002332469E
:101CE00000F0C2FAF0EE40AA5CE05C2238A903A83A
:101CF000FEF7B0FBCDF800B00023CDE901452998EF
:101D00005146324600F0B0FA5C22B0EE409A38A953
:101D100003A8FEF79FFB012049468DE83100002310
:101D200032463AE0FEF796FBCDF800B00023CDE94D
:101D3000014529983246394600F096FA5C22F0EEC9
:101D4000409A38A903A8FEF785FB01270097CDE943
:101D50000145299800234146324600F085FA5C226D
:101D6000F0EE40AA38A903A8FEF774FBCDF800B046
:101D70000023CDE9014529985146324600F074FA16
:101D80005C22B0EE409A38A903A8FEF763FB0097E7
:101D90000023CDE9014549463246299800F064FA0E
:101DA000B0EE40AA95F86000B7EE00EA30B19DF8B9
:101DB000E010884205D1F0EE4E8A17E0B0EE4E8A70
:101DC00014E038A901EB800095ED0A0AD0EC020A74
:101DD00030EE60BA71EE40BA3BEE8B0ACBEE800A71
:101DE0008BEE001A3EEE608A7EEE418A95ED190A6E
:101DF0009DED441AB4EEC10AF1EE10FA02D8B0EE2D
:101E00004ECA23E0DDED450AB4EEE00AF1EE10FA29
:101E100002DBF0EE4EDA19E070EE41CA30EEC0DAC5
:101E2000B7EE000BB7EEEC2A3CEE8D1AB7EECD4ABA
:101E3000B7EEC11A82EE013B84EE012B30EE431B5C
:101E4000B7EEC1CB30EE420BF7EEC0DBE8780128ED
:101E500073D029EEA80A09EE080A00BFDDED48DAC2
:101E60003D491DEE900A88422EDA287960B3B7EE1C
:101E7000ED1A9FED3A5B9FED3B2B9FED3C6B9FED89
:101E80003D3B9FED3E7B9FED3F4B11EE052B1DEE45
:101E9000900A3E49884201EE063B01EE074BB7EE41
:101EA000C00A22EE001B21EE001B03EE001B31EEE8
:101EB000040BB7EEC00B07DD7EEE6D1ADDED4A0AAE
:101EC00081EEAD1A01EE600ADDED490A30496FF08E
:101ED0007C5210EE900A1044884205D2687918B1FD
:101EE00080EE201AB0EE410AC4ED0BAAC4ED0A9AA6
:101EF00084ED0DAA84ED0C9AD5ED190AC4ED080AFB
:101F0000D5ED0A0AC4ED090A2998A08395F8600066
:101F1000A07084ED0FCAC4ED108A84ED128A84ED9E
:101F200014BAC4ED13BAC4ED15CA84ED16DA1BB0A9
:101F3000BDEC0E8BBDE8FF8FFFE72AEEA80A69EE25
:101F4000A80A0AEE080A49EE080A2DEE800A0CEEED
:101F5000200A83E70000000048E17A3F98CBAE8179
:101F600052102A3F0E59782D151A273F26C808A867
:101F70007004E8BF3DF0315871EAFB3F3D618907CD
:101F800094FD10C0F5A276BF0A0013406666663F56
:101F9000FFFF7F002DE9F041964F012605462DED0C
:101FA000028B9FED958B7878954C00287ED009F0B8
:101FB0005DFB00EE100AB8EEC00B80EE081BB7EE1A
:101FC000C10B84ED050A09F033FB00EE100AB8EEF0
:101FD000C00B80EE081BB7EEC10B84ED040ADFF8DE
:101FE0001482387808F1140800287DD009F02CFB01
:101FF00000EE100AB8EEC00B80EE081BB7EEC10B66
:1020000084ED080A09F002FB00EE100AB8EEC00BDE
:1020100080EE081BB7EEC10B84ED090A09F00EFB38
:10202000208109F0EDFAE080414626716671667004
:10203000A670B5F90200F3EE0E0A00EE100AB7EE34
:10204000001AF0EE041AB8EEC02B82EE083BB7EE91
:10205000C30B84ED0A0AB5F9000000EE100AB8EED1
:10206000C02B82EE083BB7EEC30B84ED060AB5F930
:10207000040000EE100AB8EEC02B82EE083BB7EE6B
:10208000C30B84ED070AC4ED030A84ED0B1AC4EDFB
:102090000C1A91F866010246401E022800D3002067
:1020A000EA8100EB80009FED570B00E069E005EB53
:1020B0000010B2EE042BB0F9262001EE102AB8EE83
:1020C000C11B81EE003BB7EEC31B84ED0F1AB0F9C4
:1020D000222001EE102AB8EEC11B81EE083BB7EEBC
:1020E000C31B84ED101A00E05BE0B0F9242001EE80
:1020F000102AB8EEC11B81EE003BB7EEC30B84ED96
:102100000D0AB0F9202000EE102AB8EEC00B80EEC8
:10211000081BB7EEC10B84ED0E0AB5F9162000EED0
:10212000102AB8EEC00B80EE021BB7EEC10B84ED97
:10213000190A91F86721AA8191F8672184F8602033
:1021400090F86800E070D8F8780190ED170A84EDF7
:102150001A0A90ED180A84ED1B0A90ED190A84ED15
:102160001C0A90ED1A0A84ED1D0A90ED1B0A84EDFD
:102170001E0A90ED1C0A84ED1F0ABDEC028BBDE81F
:10218000F08109F073FA00EE100AB8EEC00B80EE91
:10219000081BB7EEC10B84ED050A84ED040A7E70BE
:1021A0001DE7D8F87C01DFED190A90ED051A81EEE4
:1021B000200A84ED110AD0ED041A81EEA01A84EDF4
:1021C000121A84ED130A84ED141A09F03DFA00EE98
:1021D000100AB8EEC00B80EE081BB7EEC10B84ED01
:1021E000080A84ED090A09F029FA2081E0803E708E
:1021F0001AE700000C050024000000000000594010
:1022000048EB0524000000000088C3400000C842DD
:10221000F0B5DFF844E047F6FF77DDE905C617E0E3
:10222000054611E034884C430CEB440434F9154066
:10223000744502DD3581A6467181BC4202DAB58063
:102240002746F1806D1CADB29542EBD3491C89B293
:102250009942E5D3F0BD00000080FFFF014800690E
:1022600070470000E4020024F0B5F2EE040A2DED00
:10227000048BDDED1F3ADDE90A54099F94ED061A3F
:102280009FED870A4FF0000C21EE202AF0EE401A55
:10229000B0EE401A03EEE02AFDEEC20A10EE906A9C
:1022A00023B1D4ED130AD4ED0B2A03E0D4ED140AC4
:1022B000D4ED0C2A27B194ED0F2A94ED103A03E0E7
:1022C00094ED0D2A94ED0E3A6778E7B394ED084A41
:1022D000D4ED094ADFF8CCE134EE640AB0EEC05A1E
:1022E00015EE107A774561DBB4F9067067B3F5EE49
:1022F000C04AF1EE10FA59D0B4F908E0002BB7EE5D
:10230000C08AAEEB070300EE103AB0EE007BF0EEB1
:10231000004AB8EEC00BB6EE006BB6EE005A80EE87
:10232000089BF7EEC90B22D094ED110AF0EEC05ACB
:10233000B0EEE08AB7EEC89AB7EEE58A28EE077BE2
:10234000B4EEC79B01E046E030E0F1EE10FA02DDAA
:1023500060EE240A08E028EE066BB4EEC69BF1EEB0
:1023600010FA01D260EE050AC4ED130A1EE0B0EEC9
:10237000E08A94ED120AB7EEC89AF0EEC05AB7EEB2
:10238000E58A28EE077BB4EEC79BF1EE10FA02DD7A
:1023900060EE240A08E028EE066BB4EEC69BF1EE70
:1023A00010FA01D260EE050AC4ED140AD4ED074A12
:1023B00000EE100AC5ED0E0A74EEC44AB8EEC04A2B
:1023C00024EEA00A85ED030A34EE404ABDEEC44A6D
:1023D00014EE100A00B2A37893B194ED064AD4ED3E
:1023E000034A01EE900A74EE644AB8EEE14A64EEE4
:1023F000A21A34EE214ABDEEC44A14EE100A00B20D
:10240000002E03DD964201DA31F816C004EE100A00
:1024100004EE90CA0888B8EEC44AF8EEE44A44EEE6
:10242000024ABDEEE44A14EE103A98421CDC01EB7D
:102430004200B2EE044B30F8020C984202DA01EE90
:10244000102A07E000200DE031F810409C4208DD22
:1024500001EE100AB8EEC15B85EE046BB7EEC61B49
:1024600002E0401C9042EFDBB7EEE34A85ED052A1F
:1024700085ED063AC5ED020AB7EEC15A85ED030AAD
:10248000C5ED012AC5ED041AB7EEC36ABDEC048B95
:1024900034EE050B30EE060BB7EEC00BF0BD0000BE
:1024A00000000000CDCCCC3D0D4A70B586B092F84E
:1024B000D45002F10C03B2F81461D2F80C41CDE90A
:1024C0000335CDE90146D2F808310093D2E9402323
:1024D00009F028FA034880ED010A06B070BD00003B
:1024E00020050024FC0200242DE9FC41DDE90964FB
:1024F000089D0B9FCDE90054FFF78AFE2088628972
:102500002189504305EB400030F811003946801B0B
:1025100000B2FFF7C9FF2088E288A18884ED050A90
:10252000504305EB400030F811003946801B00B2E3
:10253000FFF7BAFF2088E289A18984ED040A50439D
:1025400005EB400030F811003946801B00B2FFF760
:10255000ABFF84ED060ABDE8FC8100000148B0F93C
:1025600010007047C20100242DE9F74F9CB051883C
:102570009246029192F87C001488401E234600EB9C
:10258000D070C0F347000090019001EB4001506C07
:102590001FFA81FB029A1D9905F06FFD641C1094CF
:1025A00001200BE10298401C0990012400E100BFCA
:1025B000A9F101000890DAF844206FF0010E00FB49
:1025C0000B4509FB0B470EEB450132F81700515A3A
:1025D0001391431A01D41E4600E05E42BAF8181067
:1025E0008E4205DA002B01DB1E4602E05E4200E06F
:1025F0000E461FFA86F832F815601596861B01D430
:10260000B44601E0C6F1000C8C4503DA002E02DA74
:10261000764200E00E46B6B20D96002B01DB9C46DA
:1026200001E0C3F1000C8C4503DA002B02DA5B42B7
:1026300000E00B460EEB47069BB2965B1696861B98
:1026400001D4B44601E0C6F1000C8C4503DA002E3B
:1026500002DA764200E00E46B6B20C96022606EB8F
:102660004706965B1196861B01D4374600E07742F9
:102670008F4203DA002E02DA764200E00E4609F1BC
:102680000107B6B2189607FB0B470EEB4706965BA1
:102690001296861B01D4B44601E0C6F1000C8C45AD
:1026A00003DA002E02DA764200E00E46B6B2079652
:1026B00032F817601796861B01D4B44601E0C6F1C4
:1026C000000C8C4503DA002E02DA764200E00E465A
:1026D0001FFA86FE022606EB4706965B1996861BB6
:1026E00001D4374600E077428F4202DA310000D54C
:1026F0007142DAF85060DDF84CC089B256F82870A3
:102700004FF0020808EB4505DDF8548056F821101B
:1027100007FB0CFC555B56F823200D9B554356F8E0
:10272000233003FB08CC3B440C9FDDF8588056F85F
:1027300027703A4407FB08559F18189A079BAC442A
:1027400056F82E5056F8222056F82330366806FBED
:1027500000C03E44119F02FB07003244129E03FB5F
:102760000606D01842191798521805FB00631998ED
:1027700001FB00300DD000231946FDF73AFE029A06
:10278000089901FB02421C9901EB420121F8020C5D
:102790000DE00899029801FB00401D9901EB4002F1
:1027A0001C9901EB400032F8021C20F8021C641C4A
:1027B00009988442FFF6FCAE09F1010010998146A8
:1027C0008842FFF6EFAE1FB0BDE8F08F7047000003
:1027D00010B5064C0648E188002906D1054945F2A6
:1027E0004062FEF759FF0120E08010BD1E0000246A
:1027F000DC0700244CB500242DE9F04104460068B4
:10280000234F0426056969070BD54661E06C40F04B
:102810000200E06484F83560A06C0765A06C00F0ED
:1028200065FCA8070DD5216802204861E06C40F0E6
:102830000100E06484F83560A06C0765A06C00F0CE
:1028400055FCE80605D5216810204861204600F0B7
:1028500067F8280705D5216808204861204600F060
:102860009FF9E80712D020680168890703D5C1687D
:1028700021F01E01C16020680121C26822F001021E
:10288000C260206841612046FFF7A2FFBDE8F081E9
:10289000B913000870B5040003D094F8350010B1E6
:1028A00004E0012070BD204600F03CF8022084F8CE
:1028B00035002068194A016811400160D4E90453C9
:1028C000E168D4E9010229431843A369084310438E
:1028D000D4E908151843084354F8281B28432CCC86
:1028E00010430A68184328431043086054F8300C1A
:1028F000343C102805D12268E17FE06961F31F6054
:102900009061206800220121C36843F01E03C36068
:10291000E26484F83510104670BD000007F0E0FF57
:10292000704700002DE9F04186B0804614216846CA
:10293000FDF7A9FD3F49D8F80000884277D13E480D
:10294000016841F001010160006800F0010005909C
:102950003948001D016841F010010160016801F073
:1029600010010591016841F480710160016801F472
:1029700080710591016841F080010160016801F0FA
:1029800080010591016841F00101016000680224A5
:102990000025694600F00100059060200D268DE8B5
:1029A00031002648CDE9035601F0F6FD3020694696
:1029B0008DE831002248CDE9035601F0EDFD4FF4DA
:1029C000BC4069468DE831001E48CDE9035601F050
:1029D000E3FD502069468DE831001B48CDE90356E0
:1029E00001F0DAFD1A484B21184C021583142060BF
:1029F0008715C4E901159001C4E9035204F11401DB
:102A0000C4E908051601204681E8C80000F0CCFFA3
:102A100008B1FEF769FFC8F8484000220521C4F854
:102A200038804E2002F094F94E2002F083F906B06F
:102A3000BDE8F08100000248DC4402580010025852
:102A400000200258001C02580000025844D80224FA
:102A500010000240F8B5044690F8340001282DD04B
:102A6000012684F83460022084F835002068056867
:102A700045F4804505602068056825F0020505607D
:102A8000206805680D430560A16C00252548402796
:102A9000DFF894C0C8633104D4F848E08B42CEF824
:102AA0004CC0D4F848C0CCF85050A563256407D278
:102AB0002168A06C283101F067FB21E00220F8BDFD
:102AC000D4F848C0CCF84400A663E363626405E030
:102AD000E06B4008E063A06B4000A063E06B8842BD
:102AE000F6D2A06B801EA063A36BE16BE06B236446
:102AF000009002EB81032168A06C283100F09AF865
:102B000030B1E76484F83560012084F83450F8BDB2
:102B10002068016841F001010160002084F8345010
:102B2000F8BD0000D9130008B913000870B51B4B9D
:102B300004464FF4FA500025C21094F834101B6874
:102B40000129B3FBF0F000FB02F01FD0012684F84E
:102B50003460022184F8351021680A6822F00102ED
:102B60000A602168401E13D00A68D207FAD10868AB
:102B700020F480400860A06C343400F0A7F9A1690B
:102B80000020A16166702070284670BD022070BDD3
:102B9000E06C032540F02000E064E8E72001002419
:102BA000704700000068214B984238D01F4B183303
:102BB000984234D01D4B3033984230D01B4B4833B1
:102BC00098422CD0194B6033984228D0174B783359
:102BD000984224D0154B9033984220D0134BA83301
:102BE00098421CD0124B984219D0114B183398427E
:102BF00015D00F4B3033984211D00D4B48339842CB
:102C00000DD00B4B6033984209D0094B7833984272
:102C100005D0074B9033984201D0054BA83312B131
:102C2000016100207047C160FBE700001000024016
:102C3000100402402DE9FF4F81B08168964604469A
:102C400000200E9A8029009012D094F834000128B8
:102C500013D094F83500012184F8341001280ED0E7
:102C6000C902012000906165009805B0BDE8F08FB1
:102C70004FF4807060650120F7E70220F5E78B4D87
:102C800002272068002684F83570A842884D6665C2
:102C9000884E894FDFF82492DFF824A2DFF824B2AF
:102CA0003FD0A8423DD0B0423BD0B84239D0484591
:102CB00037D0504535D0584533D0DFF808C20CF135
:102CC000180C60452DD0DFF800C2604529D0DFF830
:102CD000F8C10CF1180C604523D0DFF8ECC10CF101
:102CE000300C60451DD0DFF8E0C10CF1480C6045A8
:102CF00017D0DFF8D4C10CF1600C604511D0DFF8BB
:102D0000C8C10CF1780C60450BD0DFF8BCC10CF1E8
:102D1000900C604505D0DFF8B0C10CF1A80C6045FF
:102D200010D1D0F800C03F214CF4802CC0F800C076
:102D30002068036194F85C30A06D03F01F03994094
:102D4000816010E0D0F800C048F220084CEA080C7E
:102D5000C0F800C02068036194F85C30A06D03F0F7
:102D60001F03994041601346029972462046FEF7C0
:102D7000C3FCD4E919014160E06E10B1D4E91C0133
:102D800041604A49206888422ED0A8422CD0B042E7
:102D90002AD0B84228D0484526D0504524D058459E
:102DA00022D0484A183290421ED0474A90421BD047
:102DB000454A1832904217D0434A3032904213D0DD
:102DC000414A483290420FD03F4A603290420BD085
:102DD0003D4A7832904207D03B4A9032904203D02D
:102DE000394AA832904213D1026822F01E0242F002
:102DF000160202602068426942F080024261206C43
:102E000008B9A06C98B12068026842F008020DE091
:102E1000026822F00E0242F00A020260206C08B939
:102E2000A06C20B12068026842F004020260206EAB
:102E30000268D20303D5026842F480720260E06E39
:102E400018B1026842F4807202602068884228D07B
:102E5000A84226D0B04224D0B84222D0484520D043
:102E600050451ED058451CD016491831884218D0FC
:102E70001549884215D014491831884211D0124999
:102E8000303188420DD010494831884209D00E496E
:102E90006031884205D00C497831884201D00A4916
:102EA0009031016841F001010160DDE6100002404F
:102EB00028000240400002405800024070000240DA
:102EC00088000240A0000240100402402DE9F84FA3
:102ED000044601F06BFC002C009008D094F83500FB
:102EE000022805D080216165002084F8340093E039
:102EF000784E784F7749183620683037DFF8D88118
:102F0000DFF8D8918842DFF8D8A1DFF8D8B12ED009
:102F1000B0422CD0B8422AD0404528D0484526D0CF
:102F2000504524D0584522D06E4A183290421ED0C7
:102F30006D4A90421BD06C4A1832904217D06A4AB0
:102F40003032904213D0684A483290420FD0664ADD
:102F5000603290420BD0644A7832904207D0624A85
:102F60009032904203D0604AA832904209D1026860
:102F700022F01E0202602068426922F08002426153
:102F800003E0026822F00E020260206E25680268EB
:102F9000504922F4807202602068884228D0B042F2
:102FA00026D0B84224D0404522D0484520D05045B4
:102FB0001ED058451CD04B491831884218D04A4978
:102FC000884215D048491831884211D046493031DD
:102FD00088420DD044494831884209D04249603185
:102FE000884205D040497831884201D03E4990312D
:102FF000016821F00101016011E000BF01F0D6FB82
:103000000099401A05280AD9202262650020032170
:1030100084F8340084F835100120BDE8F88F286862
:10302000C007EBD12B4A0121206890422ED0B0423C
:103030002CD0B8422AD0404528D0484526D050450B
:1030400024D0584522D0274A183290421ED0264A12
:1030500090421BD0244A1832904217D0224A303274
:10306000904213D0204A483290420FD01E4A60321C
:1030700090420BD01C4A7832904207D01A4A9032C4
:10308000904203D0184AA832904208D194F85C309C
:103090003F22A06D03F01F039A40826007E094F87E
:1030A0005C20A06D02F01F0201FA02F24260D4E936
:1030B00019024260E06E30B1026822F48072026050
:1030C000D4E91C024260002084F8340084F83510F2
:1030D000A3E70000100002405800024070000240C8
:1030E00088000240A0000240100402402DE9F05F79
:1030F00028B190F83510022904D0802141650120C3
:10310000BDE8F09F634A634B624F18320168303369
:10311000614C624DB942DFF888A1DFF88891DFF891
:1031200088B1DFF88881DFF888E1624E32D09142C1
:1031300030D099422ED0A1422CD0A9422AD051455C
:1031400028D0494526D0594524D0C446614521D0D0
:10315000DFF858C10CF1180C61451BD0DFF84CC1E9
:103160000CF1300C614515D0DFF844C1ACF1300CE6
:1031700061450FD0DFF838C1ACF1180C614509D0BA
:10318000714507D0DFF828C10CF1180C614501D05A
:10319000B1422ED14FF0040C80F835C0B94223D093
:1031A000914221D099421FD0A1421DD0A9421BD0EB
:1031B000514519D0494517D0594515D0414513D02F
:1031C0003A48183081420FD03848303081420BD015
:1031D00037483038814207D035481838814203D00B
:1031E000714501D032481830086820F001000860AD
:1031F0004DE0D1F8008028F00E08C1F80080016889
:10320000B9421ED091421CD099421AD0A14218D086
:10321000A94216D0514514D0494512D0594510D075
:10322000224A91420DD0214A1832914209D01F4AB8
:103230003032914205D01E4A303A914201D01C4AA8
:10324000183A0A6822F001020A60026E012113682E
:1032500023F48073136090F85C30826D03F01F03D9
:1032600001FA03F35360D0E919235360C26E32B1FF
:10327000136823F480731360D0E91C235360002388
:10328000026D80F8343080F8351002B1904700208C
:1032900036E7000010000240580002407000024073
:1032A00088000240A0000240B80002401004024022
:1032B00088040240B80402402DE9FC5F0446FA4E3F
:1032C0000020DFF8E48300904FF41652F74808F12D
:1032D0001808A56DDFF8D0A3DFF8CCB301680AF1B8
:1032E000300A20680BF1480BB1FBF2F1B0420191BA
:1032F0002F68D5F800C0DFF8B89336D04146884231
:1033000033D0504531D058452FD0E74960318842FD
:103310002BD0E5497831884227D0E3499031884263
:1033200023D0E149A83188421FD048451DD0E0494B
:103330001831884219D0DE493031884215D0DC4A34
:103340004832904211D0DA49603188420DD0DFF81E
:1033500060E30EF1780E704507D0D54B903398425C
:1033600003D0D349A83188427ED194F85C2008214B
:1033700002F01F0201FA02F23A424BD0B04233D0BF
:10338000404531D050452FD058452DD0C64A6032E7
:10339000904229D0C44A7832904225D0C24A903215
:1033A000904221D0C04AA83290421DD048451BD03F
:1033B000BF4A1832904217D0BD4A3032904213D0E3
:1033C000BB4A483290420FD0B94A603290420BD08B
:1033D000B74A7832904207D0B54A9032904203D033
:1033E000B34AA832904203D1026802F0040202E01C
:1033F000026802F008026AB1026822F00402026068
:1034000094F85C0000F01F008140A960606D40F0FE
:103410000100606594F85C00012100F01F0081400C
:10342000394241D02068B04235D0404533D0504574
:1034300031D058452FD09C4A603290422BD09A4AC6
:103440007832904227D0984A9032904223D0964AC0
:10345000A83290421FD048451DD0954A183290425C
:1034600019D0934A303200E0B2E1904213D0904A32
:10347000483290420FD08E4A603290420BD08C4A34
:103480007832904207D08A4A9032904203D0884ADC
:10349000A83290427ED1406910F0800F04D0A9601C
:1034A000606D40F00200606594F85C00042100F05B
:1034B0001F00814039423FD02068B04233D04045A0
:1034C00031D050452FD058452DD0774A60329042A8
:1034D00029D0754A7832904225D0734A9032904272
:1034E00021D0714AA83290421DD048451BD0704A65
:1034F0001832904217D06E4A3032904213D06C4A44
:10350000483290420FD06A4A603290420BD0684AEB
:103510007832904207D0664A9032904203D0644A93
:10352000A83290424FD1006810F0020F04D0A96079
:10353000606D40F00400606594F85C00102100F0BC
:103540001F008140394259D02068B04235D04045F3
:1035500033D0504531D058452FD0534A6032904235
:103560002BD0514A7832904227D04F4A9032904225
:1035700023D04D4AA83290421FD048451DD04C4A16
:103580001832904219D04A4A3032904215D0484AF7
:10359000483200E015E090420FD0454A6032904238
:1035A0000BD0434A7832904207D0414A9032904241
:1035B00003D03F4AA832904207D1006800F00800CB
:1035C00006E0006870E70068B6E7006800F00400F5
:1035D000A0B1A96020680168490304D50068000310
:1035E00008D5A16C07E00168C90503D4016821F082
:1035F00008010160216C09B12046884794F85C00FD
:10360000202100F01F008140394278D02068B0426C
:1036100033D0404531D050452FD058452DD0224A87
:103620006032904229D0204A7832904225D01E4AFA
:103630009032904221D01C4AA83290421DD0484579
:103640001BD01B4A1832904217D0194A3032904290
:1036500013D0174A483290420FD0154A6032904238
:103660000BD0134A7832904207D0114A90329042E0
:1036700003D00F4AA832904203D1006800F0100036
:1036800002E0006800F00200A0B3A96094F83500E1
:103690000428206801680DD049037DD50068000327
:1036A00029D4616C28E000001000024020010024B1
:1036B0001004024021F0160101602068416921F0E8
:1036C00080014161206C08B9A06C20B120680168BC
:1036D00021F00801016094F85C303F21002203F0E2
:1036E0001F0301209940A96084F8342084F8350034
:1036F000216D66E003E0E16B09B120468847606D0B
:1037000000287DD0606DC0075AD02068042184F85D
:103710003510B0422BD0404529D0504527D05845D0
:1037200025D09E49884222D09C49183188421ED01B
:103730009A49303188421AD098494831884216D087
:10374000484514D09649884211D09549183188428D
:103750000DD093493031884209D09149483188428F
:1037600005D08F496031884201D08D497831016898
:1037700021F00101016020680099019A491C009123
:10378000914202D80168C907F6D1002184F83410AB
:103790000068C00711D000E001E003200EE00168DE
:1037A000C905A8D403680022012123F01003036097
:1037B00084F8342084F835109DE7012084F8350022
:1037C000E16C00291CD002B02046BDE8F05F08473C
:1037D000744988421DD073491431884219D0714907
:1037E0002831884215D06F493C31884211D06D494B
:1037F000503188420DD06B496431884209D000E0D5
:1038000086E068497831884203D066498C31884225
:103810007ED194F85C800427016808F01F0807FA3D
:1038200008F717EA0C0F009746D04F0744D50098C9
:103830000F04686003D5C8033CD4A16CC1E78806B7
:1038400038D42068B0422DD054494839884229D014
:10385000504527D0584525D05049884222D04F495D
:10386000183188421ED04D49303188421AD04B4918
:103870004831884216D0484514D04949884211D071
:103880004749183188420DD090420BD04449483105
:10389000884207D0704505D0984203D04049903106
:1038A000884203D1016821F0080102E0016821F09B
:1038B00004010160216C84E7022707FA08F717EA80
:1038C0000C0F00974ED08F074CD500980F046860FE
:1038D00003D5C80344D4616C73E7880640D42068DC
:1038E000B0422FD02D49483988422BD0504529D09D
:1038F000584527D02949884224D028491831884280
:1039000020D02649303188421CD02449483100E07B
:1039100041E0884216D0484514D02149884211D050
:103920001F49183188420DD090420BD01C494831B4
:10393000884207D0704505D0984203D0184990318D
:10394000884203D1016821F0140102E0016821F0EE
:103950000A010160002184F83410012084F8350048
:10396000E16B2EE7082202FA08F212EA0C0F12D0DD
:10397000090710D5016821F00E01016094F85C1070
:103980000120002201F01F0100FA01F16960606569
:1039900084F8342012E7BDE8FC9F0000700002406C
:1039A00028040240085402582DE9F05F044600F054
:1039B000FDFE002C074676D0A5494FF00106A44A2B
:1039C0004FF0000520681831DFF88C82DFF88C9208
:1039D0009042A04ADFF888A2DFF888B2DFF888E2D8
:1039E0002CD088422AD0904228D0404526D0484545
:1039F00024D0504522D0584520D070451ED09B4B36
:103A000098421BD0994B1833984217D0974B3033BC
:103A1000984213D0954B483398420FD0934B603364
:103A200098420BD0914B7833984207D08F4B90330C
:103A3000984203D08D4BA833984275D1DFF810C25D
:103A4000022384F8345084F83530604526D088420B
:103A500024D0904222D0404520D048451ED0504529
:103A60001CD058451AD0704518D08049884215D0CE
:103A70007E491831884211D07C49303188420DD0BE
:103A80007A494831884209D078496031884205D066
:103A900076497831884201D074499031016821F02B
:103AA0000101016007E0B4E000F080FEC01B0528C2
:103AB00001D92021A9E020680068C007F4D104F1F1
:103AC00008002168D4E9053C894685C80968104387
:103AD000D4E907281F43636A3843654F40EA0C0066
:103AE0001043394040EA0800042B40EA010003D1AA
:103AF000D4E90B1211430843C9F800002068676A33
:103B00004069042F20F0070047EA00070DD1D4E9EF
:103B10000A01074349B12046FDF794FD28B1402032
:103B2000606584F8356074E00CE0206847612046E9
:103B3000FDF7A6FC94F85C203F2102F01F029140A3
:103B4000816055E04B4988421BD04A491431884274
:103B500017D048492831884213D046493C31884221
:103B60000FD04449503188420BD0424964318842D9
:103B700007D040497831884203D03E498C31884291
:103B800042D13D4B022184F8345084F8351001684D
:103B9000A26801EA0309402A31D0802A31D00022EC
:103BA000D4E90378D4E9053142EAD70242EAD808D9
:103BB000304AD4E9077C48EAD30848EAD10141EA0F
:103BC000D701524241EA1C11142341EA0901016064
:103BD00020681044B0FBF3F08000E0652046FDF75C
:103BE0004FFC94F85C1001F01F0106FA01F14160EE
:103BF0002046FDF79FFCA06880280DD00DE0102224
:103C0000CEE74FF48042CBE740216165032084F882
:103C100035000120BDE8F09F6560216E20790860C5
:103C2000D4E9190141606068401E072808D8204681
:103C3000FDF7CEFCE06E0560D4E91C01416002E0B6
:103C4000E56625676567656584F835600020E1E70E
:103C50001000024040000240580002407000024044
:103C600088000240A0000240B80002401004024058
:103C70003F8010FE085402580F00FEFF2DE9F74F59
:103C800082B0044600208846019000F08FFD002C91
:103C900000904CD094F835004FF00009022802D073
:103CA00080216165D2E0D8492068DFF860A3DFF8A1
:103CB00060B38A15884236D0504534D0584532D04A
:103CC000D34B183398422ED0D14B303398422AD060
:103CD000CF4B4833984226D0CD4B6033984222D008
:103CE000CB4B783398421ED0CA4B98421BD0C94B5D
:103CF0001833984217D0C74B3033984213D0C54B76
:103D0000483398420FD0C34B603398420BD0C14B1D
:103D10007833984207D0BF4B9033984203D0BD4BC5
:103D2000A833984213D10068C00501D5626513E13C
:103D300094F85C00B8F1000F07D01027A66D00F0D2
:103D40001F0006F108058740B9E02027F6E7006864
:103D50008006EBD494F85C00B8F1000F06D004277D
:103D6000A66D00F01F008740351DA8E00227F7E789
:103D7000A5492068884236D0504534D0584532D0C5
:103D8000A349183188422ED0A149303188422AD027
:103D90009F494831884226D09D496031884222D0CF
:103DA0009B49783188421ED09A4988421BD0994954
:103DB0001831884217D097493031884213D095493D
:103DC000483188420FD09349603188420BD09149E5
:103DD0007831884207D08F499031884203D08D498D
:103DE000A831884235D194F85C200120316802F076
:103DF0001F029040014204D0616D41F002016165F3
:103E00002860042094F85C20316802F01F02904082
:103E1000014204D0616D41F004016165286094F8AD
:103E20005C203068082102F01F029140084225D032
:103E3000636D0821012243F00103636594F85C304F
:103E400003F01F039940296084F8352084F83490EA
:103E500082E094F85C203068082102F01F02914053
:103E600008420BD094F85C20012002F01F0200FAF7
:103E700002F23260606584F83500E7E70498401C80
:103E800007D000F093FC0099411A049881425ED853
:103E9000F0B3E06E48B1D4E91C100A68024204D0C5
:103EA0004860606D40F480606065D4E919100A686C
:103EB000024204D04860606D40F400706065306874
:103EC00038423FF455AF5049B8F1000F206847D051
:103ED000884238D0504536D0584534D04C491831F6
:103EE000884230D04A49303188422CD04849483144
:103EF000884228D046496031884224D044497831EC
:103F0000884220D0434988421DD04249183100E000
:103F10001DE0884217D03F493031884213D03D49D7
:103F2000483188420FD03B49603188420BD0394933
:103F30007831884207D037499031884203D03549DB
:103F4000A831884256D194F85C10102055E020200A
:103F500060652046FEF7BAFF012005B0BDE8F08F8E
:103F6000884236D0504534D0584532D0284918318F
:103F700088422ED02649303188422AD024494831FF
:103F8000884226D022496031884222D020497831A7
:103F900088421ED01F4988421BD01E4918318842D2
:103FA00017D01C493031884213D01A494831884211
:103FB0000FD01849603188420BD0164978318842B9
:103FC00007D014499031884203D01249A831884261
:103FD00003D194F85C10302002E094F85C100220C9
:103FE00001F01F0188402860012184F8349084F892
:103FF000351006E094F85C10042001F01F018840A1
:1040000028600198A9E70000100002402800024043
:1040100040000240100402402DE9F05F04004FF020
:10402000000514D094F83400012812D094F83560BB
:1040300001204FF0000C84F83400012E0BD0C00298
:1040400084F834C0012560652846BDE8F09F012052
:10405000FBE70220F9E7454E0227206884F8357017
:10406000B042434FC4F854C0DFF80881DFF808912C
:10407000DFF808A1DFF808B13BD0B84239D040459D
:1040800037D0484535D0504533D0584531D0DFF88A
:10409000F0C00CF1180C60452BD0DFF8E4C00CF137
:1040A000300C604525D0DFF8DCC0604521D0DFF85A
:1040B000D4C00CF1180C60451BD0DFF8C8C00CF15F
:1040C000300C604515D0DFF8BCC00CF1480C6045E1
:1040D0000FD0DFF8B0C00CF1600C604509D0DFF8FC
:1040E000A4C00CF1780C604503D0DFF898C00CF147
:1040F000900CD0F800C02CF0010CC0F800C0204695
:10410000FDF74AFB2068B0422AD0B84228D040458B
:1041100026D0484524D0504522D0584520D01849B3
:10412000183188421CD016493031884218D01549C0
:10413000884215D013491831884211D011493031C5
:1041400088420DD00F494831884209D00D4960316D
:10415000884205D00B497831884201D00949903115
:10416000016841F0010101606EE7000010000240AB
:104170002800024040000240580002407000024007
:1041800088000240100402402DE9F84F04008C46DC
:104190004FF00000009013D094F83400012811D0A3
:1041A00094F835500120002184F83400012D0BD003
:1041B00084F83410C202009062650098BDE8F88F60
:1041C0000120FBE70220F9E7644D0226206884F80D
:1041D0003560A842624D6165624E634FDFF88C81A5
:1041E000DFF88C91DFF88CA1DFF88CB126D0A842E3
:1041F00024D0B04222D0B84220D040451ED04845FD
:104200001CD050451AD0584518D05C49884215D06A
:104210005A491831884211D05849303188420DD05E
:1042200056494831884209D054496031884205D006
:1042300052497831884201D050499031016821F0CB
:104240000101016061462046FDF7A6FA4349206856
:1042500088422CD0A8422AD0B04228D0B84226D0DA
:10426000404524D0484522D0504520D058451ED046
:10427000424A90421BD0414A1832904217D03F4ADE
:104280003032904213D03D4A483290420FD03B4AE0
:10429000603290420BD0394A7832904207D0374A88
:1042A0009032904203D0354AA83290420CD1026835
:1042B00022F01E0242F016020260206C88B12068D3
:1042C000026842F008020BE0026822F00E0242F09F
:1042D0000A020260206C20B12068026842F00402E9
:1042E0000260206E0268D20303D5026842F4807235
:1042F0000260E06E18B1026842F4807202602068C9
:10430000884226D0A84224D0B04222D0B84220D041
:1043100040451ED048451CD050451AD0584518D0AD
:104320001649884215D015491831884211D01349D1
:10433000303188420DD011494831884209D00F49A7
:104340006031884205D00D497831884201D00B494F
:104350009031016841F0010101602EE71000024038
:104360002800024040000240580002407000024015
:1043700088000240A0000240B80002401004024041
:1043800070B5044600F012FA0546601C02D00448DD
:104390000078044400F00AFA401BA042FAD370BD32
:1043A00014010024F0B504282DED0A8B81B07DD1D5
:1043B000684606F087FFBDF800405E4D9FED5ECB7E
:1043C0009FED5F8B9FED609B9FED61AB9FED62BBAF
:1043D000688842F22836624F20B101283FD0022877
:1043E0003CD18CE000212046FCF776F941EC100B23
:1043F0000021204620EE0CCBFCF76EF941EC100BAF
:10440000002120460CEE008BFCF766F941EC100B06
:104410000021204620EE099BFCF75EF941EC100BD1
:104420000021204629EE009BFCF756F941EC100BC9
:104430000021204609EE408BFCF74EF941EC100BB1
:1044400000EE4A8B88EE0B0BBDEEC00B10EE100A8F
:1044500000B200F5FA61B14265D8B88063E000218E
:104460002046FCF739F941EC100B0021204620EEE4
:104470000CCBFCF731F941EC100B002120460CEE7F
:10448000008BFCF729F941EC100B0021204620EEAF
:10449000099BFCF721F941EC100B0021204629EE85
:1044A000009BFCF719F941EC100B00E03DE009EE30
:1044B000408B00212046FCF70FF941EC100B00EE79
:1044C0004A8B88EE0B0BBDEEC00B10EE100A00B24B
:1044D00000F5FA61B14200D838802248018811BB4A
:1044E0002978491CC9B2297003291CD101210180F6
:1044F0001D48006804821D480068048213E000EE35
:10450000104A9FED1B2B9FED1C1BB8EE400B00EEDD
:10451000421BBDEEC10B10EE100A00B200F5FA61AD
:10452000B14200D878800320688001B0BDEC0A8BCE
:10453000F0BD000018000024F163CC5D04BFFD4015
:104540009AAA3E11B92AA742F2D24D621018104021
:10455000E63F6C01A525DB410000000065CDCD41A3
:1045600008020024020000240400002408000024A3
:1045700014AE47E17A140040000000002021E24020
:104580004FF0B04110B5D1F88820024203D0C1F8F5
:104590008800FFF707FF10BD2DE9F84F714C00238D
:1045A0004FF0B04E4FF001094FF0030B4FF00F0AE0
:1045B000D0E000BF09FA03F812EA080274D04D688F
:1045C000022D01D0122D0FD1DD085F0700EB85050C
:1045D00000950E692D6AFF0E0AFA07FCBE4025EA17
:1045E0000C052E43009D2E625D000F7906680BFAC4
:1045F00005FC07F0030726EA0C06AF4037430760C7
:104600004E68012E05D0022E03D0112E01D0122E9D
:104610000FD18668CF6826EA0C06AF403743876023
:1046200046680F7926EA0806C7F300179F4037430C
:104630004760C6688F6826EA0C06AF403743C760FC
:104640004D68ED0030D5484D2E6846F002062E60CC
:104650002D6823F0030606F1B04605F0020500952B
:104660009D072F0FD6F80854DFF800810AFA07FCDF
:10467000404525EA0C0502D14FF0000C41E0DFF87F
:10468000F0C0604502D14FF0010C3AE0DFF8E4C021
:10469000604502D14FF0020C33E0DFF8DCC060452A
:1046A00003D14FF0030C2CE053E0DFF8D0C060459D
:1046B00002D14FF0040C24E0DFF8C4C0604502D101
:1046C0004FF0050C1DE0DFF8BCC0604502D14FF093
:1046D000060C16E0DFF8B0C0604502D14FF0070CC1
:1046E0000FE0DFF8A8C0604502D14FF0080C08E0E9
:1046F000DFF89CC0604502D14FF0090C01E04FF09B
:104700000A0C0CFA07FC4CEA050CC6F808C425682C
:104710004E6825EA0205F60300D515432560656855
:104720004E6825EA0205B60300D5154365604F685B
:104730007546DEF80060FF0226EA020600D5164341
:104740002E604F686E68BF0226EA020600D5164347
:104750006E605B1C0A6832FA03F57FF42BAFBDE88C
:10476000F88F000080000058F444025800000258FE
:104770000004025800080258000C025800100258A9
:104780000014025800180258001C02580020025859
:10479000002402580AB1816170470904FBE7000058
:1047A00001480068000C70470010005C01488068F8
:1047B000704700001401002430B590F84120202AF1
:1047C00024D190F84020012A20D0012380F84030E5
:1047D000242280F84120202300240268156825F057
:1047E000010515600268156825F48055156002689A
:1047F00015680D43156001680A6842F001020A60FD
:1048000080F8413080F84040002030BD022030BDAB
:1048100030B590F84120202A22D190F84020012A7A
:104820001ED0012380F84030242280F8412020242B
:1048300000250268136823F00103136002681368FF
:1048400023F4706343EA0121116001680A6842F0B1
:1048500001020A6080F8414080F84050002030BDDD
:10486000022030BD70B5040004D094F8410000254A
:1048700010B106E0012070BD204684F8405000F0E1
:1048800071F9242084F841002068016821F00101B9
:104890000160D4E9001020F0706008612068816830
:1048A00021F400418160E06821680128A06806D0F9
:1048B00040F404408860E068022803D006E040F439
:1048C0000040F7E721684FF400604860202120682D
:1048D000114A4368134343602068C26822F40042CF
:1048E000C26054F8106B0DCC104340EA0320F06016
:1048F00054F81C3CD4E900021043186054F81C0D15
:10490000026842F001020260656484F84110256388
:1049100084F84250002070BD008000022DE9F84F5D
:10492000044690F841001F469046DDF828A08B46CB
:1049300020287ED194F8400001287AD0012084F804
:104940004000FFF733FF0122064619230090D103F0
:10495000204602F089FDE0BB0025222184F84110A9
:10496000102084F8420065646785618DFF27324816
:104970004FF00079C4F82480FF294FF080786563F8
:1049800003D927853A46009039E0618D2185009052
:104990003AE05946204602F051FD13E002F092FD44
:1049A000B8B92068616A406A0870606A401C606239
:1049B000208D401E81B22185608D401E6085608DF6
:1049C00000B169B1608D3246514600282046E5D1DC
:1049D00000E002E002F0BAFDD0B10120BDE8F88F9E
:1049E0000022534680212046009602F03DFD00281B
:1049F000F3D1608DFF2804D927853A4600954346B8
:104A0000C7E7608D208500954B4694F82820C0E7C5
:104A100020682021094AC16120684368134043602F
:104A200084F8411084F84250002084F84050D5E7C3
:104A3000FFE70220D2E700000024008000E800FE2B
:104A40002DE9F84F044690F841001F469046DDF8E6
:104A500028A08B4620287ED194F8400001287AD0E7
:104A6000012084F84000FFF7A1FE01220646192329
:104A70000090D103204602F0F7FCE0BB0025212185
:104A800084F84110102084F8420065646785618DC8
:104A9000FF2732484FF00079C4F82480FF294FF0F7
:104AA0008078656303D927853A46009039E0618DA7
:104AB000218500903AE05946204602F0BFFC13E001
:104AC00002F06BFDB8B9606A216800788862606A9C
:104AD000401C6062608D401E6085208D401E80B24B
:104AE0002085618D01B168B1608D32465146002844
:104AF0002046E5D100E002E002F028FDD0B101201F
:104B0000BDE8F88F0022534680212046009602F02F
:104B1000ABFC0028F3D1608DFF2804D927853A46E5
:104B200000954346C7E7608D208500954B4694F875
:104B30002820C0E720682021094AC1612068436815
:104B40001340436084F8411084F84250002084F8F8
:104B50004050D5E7FFE70220D2E7000000200080A8
:104B600000E800FE10B586B0044614216846FBF745
:104B70008AFC13492068884220D11248016841F01C
:104B80000201016000680423122200F00200059077
:104B900000204FF4406100916946CDE90120CDE944
:104BA00003030948FFF7F8FC06480830016841F4A0
:104BB00080010160006800F48000059006B010BD1F
:104BC00000580040E044025800040258024881683E
:104BD000027811448160704714010024032010B54D
:104BE00000F0D6F801F0BAFB0E490F4A0F4B0C68E3
:104BF000C4F30324145D04F01F04E0401860096846
:104C000001F00F01515C01F01F01C8400849086024
:104C10000F2000F00FF808B1012010BD00F078F867
:104C2000002010BD184402583CCC0008200100248C
:104C30002401002470B50D4D04462878A0B14FF42E
:104C40007A71B1FBF0F00A490968B1FBF0F002F0AB
:104C50008CFB48B9102C07D200222146501E00F0D0
:104C600077F800206C6070BD012070BD1401002435
:104C700020010024F0B5154C4378211D0A1D236046
:104C80000378F3B143680B60057BC67A817A437B76
:104C90002D07847B45EA0665C77B90F809C0067A34
:104CA00090F800E045EAC14040EA834040EA4440D1
:104CB00040EA074040EA0C2040EA460040EA0E0085
:104CC00001E0002008601060F0BD000098ED00E0F9
:104CD000BFF35F8F044800210368034A23F4803345
:104CE000036070321160704724ED00E0074A40F025
:104CF0000100064970321060086840F48030086096
:104D0000BFF34F8FBFF36F8F7047000024ED00E0BB
:104D1000074882B0016841F002010160006800228A
:104D20000F2100F002000090901E02B000F010B8B9
:104D3000F4440258002809DB410900F01F028900F1
:104D4000012001F1E0219040C1F80001704700000E
:104D50000E4BF0B41B680D46C3F30223C3F10706E4
:104D6000042E00D90426191D072901D2002300E0D2
:104D7000DB1E012404FA06F19C40491E2940641EF2
:104D8000994014402143F0BC05F019BC0CED00E043
:104D9000064900F0070210B54FF6FF040868044BFF
:104DA000204040EA02201843086010BD0CED00E0EE
:104DB0000000FA0501680123C0F8FC33002280F8E6
:104DC000F4238869044A40F000608861486D10430C
:104DD000486500207047000003000010704700681D
:104DE000416200207047F0B503685D6A39B19F6A7F
:104DF0004C1E00204FF4827605EB17450BE045EA88
:104E00000240986210E0471C06EB800053F800C097
:104E1000F8B205EB1C45A042F5D34FF4807000EBCF
:104E2000810045EA02421A500020F0BDD0F8040487
:104E300004F00CBBC1EBC10200EB8202D0F8040409
:104E4000926C04F061BAC1EBC10200EB8202D0F8AF
:104E50000404D2F8082204F0B8BAD0F8040404F02C
:104E6000F7BA01F00F020B0670B5C2EBC20104469F
:104E70004FF001004FF0000504EB810103D581F8EC
:104E80003D003C3103E081F8FD5101F5FE710A70EF
:104E900094F8BC23012A08D084F8BC03206804F0ED
:104EA000CBFE002084F8BC5370BD022070BD70B5ED
:104EB0004268044601F00F00904201D9012070BD04
:104EC00001F00F024FF000050B06C2EBC2014FF0DC
:104ED000010204EB810103D581F83D203C3103E060
:104EE00081F8FD5101F5FE718D70087094F8BC03D6
:104EF000012808D084F8BC23206805F079F8002048
:104F000084F8BC5370BD022070BD10B5044690F803
:104F1000BC0301280AD0012084F8BC0320680A06DB
:104F200006D501F00F0105F0C5F903E0022010BD20
:104F300005F0B0F9002084F8BC0310BD01F00F01AA
:104F4000C1EBC10100EB8100D0F8140270472DE9DC
:104F5000F04101F00F0604460D064FF00100C6EBCC
:104F6000C6014FF0000504EB810103D581F83D0037
:104F70003C3103E081F8FD5101F5FE714F788A6004
:104F8000CB700E7007B1CE80022B00D10D7194F85A
:104F9000BC23012A09D084F8BC03206804F09AFDE0
:104FA000284684F8BC53BDE8F0810220FBE770B5C9
:104FB00001F00F050C460026C5EBC50100EB810191
:104FC000C1F80822C1E9843681F8FD6181F8FC51FD
:104FD00001F5FE710369012B00D10A612207027CF1
:104FE000006803D005F05CF8002070BD04F046FFB7
:104FF000FAE770B50D464168044605F00F00884297
:1050000001D9012070BD29064FF000064FF00102C2
:1050100007D5C0EBC00104EB810181F83D203C3194
:1050200007E0C5EBC50104EB810181F8FD6101F5E5
:10503000FE718A70087094F8BC03012807D084F8C8
:10504000BC23206805F000F8280702D007E0022002
:1050500070BD217C04F57172206804F09DFF002072
:1050600084F8BC6370BD2DE9F04101F00F050C46DA
:105070000026C5EBC501012700EB81018A64C1E967
:10508000143681F83D7001F83C5F0369012B00D1B3
:105090000A612207027C006804D005F001F80020B4
:1050A000BDE8F08104F0EAFEF9E700002DE9FC5FBD
:1050B00004460068002681464D4605F01AF900288E
:1050C0007ED1206805F041F9002879D0206805F0EC
:1050D0003CF9800704D52068416901F00201416173
:1050E000206805F032F901034FF0010A04F57170F0
:1050F000009077D5206805F007F9DFF838B4074647
:105100006EE0F8076AD02068F1B205F016F9804623
:10511000C00707D005EB4611C1F808AB3146204661
:1051200002F0ECFE5FEA087034D52068216901299D
:1051300000EB4611006C0190D1F8080B10D0FE4B2B
:10514000019A9A4215D1000403D54FF40040C1F8EA
:10515000080B204600F0EAFA2069012810D014E07C
:10516000019A5A4505D9000403D54FF40040C1F80F
:10517000080B204600F0DAFA01985845ECD804E014
:1051800020680121009A04F007FF05EB4611082072
:10519000C1F8080B5FEAC86004D505EB4611102082
:1051A000C1F8080B5FEA88600FD52069012804D197
:1051B00020680121009A04F0EFFE05EB461101E0A2
:1051C000C2E10FE02020C1F8080B5FEA884005D556
:1051D00005EB46114FF40050C1F8080B7F08761C10
:1051E000002F8ED1206805F0B0F840034FF0000B7F
:1051F00060D5206805F081F80026074658E0F807DA
:1052000054D02068F1B205F086F88046C00726D059
:10521000D5F8343806F00F0C05EB46110AFA0CF0FD
:105220008343C5F83438C1F808A92069012807D19B
:10523000C6EBC60004EB8000D0E911211144816463
:105240002046F1B2FFF7F6FD2069012807D136B9F3
:10525000206D20B920680121009A04F09DFE5FEACC
:10526000087004D505EB46110820C1F808095FEA6B
:10527000C86004D505EB46111020C1F808095FEAA3
:10528000486004D505EB46114020C1F808095FEAE3
:10529000887004D505EB46110220C1F808095FEAC1
:1052A000086003D53146204602F096FE7F08761C42
:1052B000002FA4D1206805F048F8002811DAD5F8AD
:1052C000040820F00100C5F8040894F8F40301284C
:1052D0003BD0204600F00EFA2068416901F0004101
:1052E0004161206805F031F800050BD5D5F80808B4
:1052F000C00702D0204600F041FA2068416901F45D
:1053000000614161206805F020F800010AD520689D
:10531000416901F00061416194F8F403E0B1204675
:1053200000F02CFA206805F010F8C0046AD5D5F812
:10533000040820F00100C5F804082068102104F0DA
:10534000B9FF00214FF67F3227E00021204684F884
:10535000F4B3FFF743FDBFE784F8F4A32068406D82
:105360000121C0F38300C4F8F8032046FFF736FD9F
:10537000D8E700BF05EB4110C0F80829D0F8003984
:1053800023F40013C0F80039C0F8082BD0F8003B14
:1053900023F40013C0F8003B491C60688842E9D838
:1053A000D5F81C0840F00110C5F81C08206B60B14E
:1053B000D5F8840840F00B00C5F88408D5F84408F7
:1053C00040F00B00C5F844080CE0D5F8140842F290
:1053D0002B010843C5F81408D5F8100840F00B005D
:1053E000C5F81008D5F8000820F4FE60C5F80008DC
:1053F000217C2068009A04F0CFFD2068416901F407
:1054000080514161206804F0A0FF800415D5206818
:1054100004F0A0FB206804F05FFFE06000F088FF6C
:10542000227B0146206804F0CBFF204600F04CF9B7
:105430002068416901F400514161206804F085FF52
:10544000C00636D52068816921F010018161D9F844
:10545000207007F00F01C7F34340C1EBC1010228E0
:1054600004EB810505F5FE7502D0062812D01BE07D
:1054700047F6F070074217D0C7F30A12E9681746DB
:10548000484604F066FFA969E8683944A9613844D0
:10549000E86009E000990822484604F05AFFA8692C
:1054A000C7F30A110844A8612068816941F010011E
:1054B0008161206804F049FF000707D5204600F00D
:1054C0001DF92068416901F008014161206804F07C
:1054D0003CFFC00208D52046F1B200F037F8206842
:1054E000416901F480114161206804F02EFF8002BF
:1054F00008D52046F1B200F02DF82068416901F48A
:1055000000114161206804F020FF400007D52046CB
:10551000FFF78CFC2068416901F0804141612068FF
:1055200004F013FF40070FD520684568680707D5CA
:10553000204603E00A30544F0A31544FFFF78DFCE8
:105540002068416829434160BDE8FC9FD0F804040D
:1055500003F0DCBFD0F8040403F0DABF2DE9F0411A
:1055600004008AB005D094F8BD030025266820B158
:1055700008E001200AB0BDE8F081204684F8BC5361
:1055800000F066F8032084F8BD03F06BC00500D47A
:105590002561206804F06CFC04F1100168462822A3
:1055A0008846FAF757FF94E80F0004F0EDFA022757
:1055B000D8BB2068002104F0DAFE0020012610E0AC
:1055C000C0EBC001421C04EB810181F83D6081F811
:1055D0003F504D648D640D6581F83C00A1F8420098
:1055E000D0B261688142EBD8002011E0C0EBC0016D
:1055F000421C04EB810181F8FD5181F8FF51C1F893
:105600000452C1F80852C1F8105281F8FC01D0B21E
:1056100061688142EAD8282241466846FAF71AFFB3
:1056200094E80F0004F060FB10B184F8BD73A0E7AC
:10563000606A84F8385084F8BD63012802D120469E
:10564000FFF7B8FB206804F043FB002092E700005E
:1056500010B586B0044614216846FAF714FF1749BE
:105660002068884228D11648016841F00101016094
:1056700000680A23022200F00100059000204FF488
:10568000C05100916946CDE90120CDE903030D48E1
:10569000FEF782FF0A480838016841F000610160A6
:1056A00000680022052100F0006005906520FFF7EA
:1056B0004FFB6520FFF73EFB06B010BD0000084021
:1056C000E04402580000025870B50446C068012545
:1056D00070B1022801D0FCF707F9D4F80404294678
:1056E00003F067FFD4F80404BDE8704003F027BF5F
:1056F0000025F2E7D0F8040403F049BFD0F8040411
:1057000003F04BBF10B5044690F8BC0301280BD042
:10571000012084F8381084F8BC03206804F03EFEB1
:10572000002084F8BC0310BD022010BDD0F8042472
:1057300000F57171104603F048BF10B590F8BC1326
:1057400004460068012906D0A26A012184F8BC132E
:10575000012A02D008E0022010BDA169012903D06E
:10576000816B41F480318163206804F0A5FA2068E0
:1057700004F08AFD002084F8BC0310BD10B5044677
:10578000D0F8040403F05EFF2068D0F8001E41F05A
:105790000101C0F8001E206A002804D002480168F8
:1057A00041F00601016010BD10ED00E0124970B536
:1057B0000A68520706D40A6802F00702824201D042
:1057C000012070BD0A6822F0070202430A60FEF75A
:1057D000EDFF094D4FF47A760446083D07E000BF1F
:1057E000FEF7E4FF001BB04201D9032070BD28681A
:1057F0008004F5D5002070BD0C48025802480168AD
:1058000041F08071016070470C48025810B500F0FB
:10581000A5FD064A06491268064BC2F303229A5CAC
:1058200002F01F02D040086010BD0000184402586A
:10583000200100243CCC00082DE9FC5F044650F810
:10584000241B002500902E460801FE4FDFF8F89338
:105850001DD5606E50B1B0F5801F0CD0B0F5001FA3
:105860000ED0B0F5401F1DD001250FE0386840F480
:105870000030386016E00221201D02F063FC03E0D6
:105880000098022102F0EEFC05000BD02E46208885
:10589000C00523D5606D05281ED2DFE800F00C118D
:1058A000161B1B00626ED9F8001021F44011114341
:1058B000C9F80010EBE7386840F40030386009E0C0
:1058C0000021201D02F03EFC03E00098002102F0C0
:1058D000C9FC05466DB100E001252E4620888005F3
:1058E00028D5A06D80281ED00CDC90B140280ED1A8
:1058F00014E0626DD9F8001021F007011143C9F8D6
:105900000010EBE7C02813D0B0F5807F10D0012540
:105910000FE0386840F40030386009E00021201DB5
:1059200002F010FC03E00098002102F09BFC054609
:1059300095B12E462088DFF81083400508F108084D
:105940002CD5D4F8A400B0F5800F20D00DDCA0B188
:10595000B0F5001F0FD115E0A26DD9F8001021F4A9
:10596000E0711143C9F80010E4E7B0F5C00F13D09F
:10597000B0F5000F10D001250FE0386840F400307A
:10598000386009E00021201D02F0DCFB03E00098F4
:10599000002102F067FC054675B12E4620880005FF
:1059A0002DD5D4F8A800B0F1007F21D00EDCA8B12D
:1059B000B0F1807F10D116E0D4F8A420D8F8001000
:1059C00021F460011143C8F80010E7E7B0F1407F0F
:1059D00013D0B0F1806F10D001250FE0386840F48B
:1059E0000030386009E00021201D02F0ABFB03E02D
:1059F0000098002102F036FC05466DB12E46206865
:105A000080011FD5A06CD8B110280FD0202812D04B
:105A1000302815D0012514E0D4F8A820D8F80010BB
:105A200021F0E0611143C8F80010E8E7386840F45D
:105A30000030386004E00221201D02F083FB05469F
:105A40006DB12E462088C0042BD5E06DB0F5005F07
:105A500020D00DDCA0B1B0F5805F0FD115E07A4801
:105A6000A26C001F016821F0300111430160E9E7D9
:105A7000B0F5405F13D0B0F5804F10D001250FE096
:105A8000386840F40030386009E00021201D02F041
:105A900059FB03E00098002102F0E4FB054685B1C4
:105AA0002E462088800429D5206EB0F5403F23D0B3
:105AB00010DC08B3B0F5803F14D0B0F5003F0FD133
:105AC00015E0E26DD9F8001021F4E0411143C9F866
:105AD0000010E6E7B0F5802F0ED0B0F5A02F0BD068
