:020000040800F2
:10000000407A0324AD020008D97E0008917C0008E4
:10001000D17E0008990B0008A1A60008000000008E
:10002000000000000000000000000000C182000885
:10003000A111000800000000F17E000839880008C6
:10004000C7020008C7020008C7020008C70200086C
:10005000C7020008C7020008C7020008C70200085C
:10006000A9110008C7020008C7020008590C0008BF
:10007000C7020008C7020008C7020008C70200083C
:10008000C7020008C7020008C7020008C70200082C
:10009000C7020008C7020008C7020008C70200081C
:1000A000C7020008B1890008C7020008C70200089B
:1000B000C7020008C7020008C7020008C7020008FC
:1000C000C7020008C7020008C7020008C7020008EC
:1000D000C7020008C7020008C7020008C7020008DC
:1000E000C7020008C702000800000000C70200089D
:1000F000C7020008C7020008C7020008C7020008BC
:10010000C7020008C7020008C7020008C7020008AB
:10011000C7020008C7020008C7020008C70200089B
:10012000C7020008C7020008C7020008C70200088B
:10013000C7020008C7020008C7020008C70200087B
:1001400000000000000000000000000000000000AF
:10015000C7020008C7020008C7020008C70200085B
:10016000C7020008C7020008C7020008C70200084B
:10017000C7020008C7020008490C0008C7020008AF
:10018000C7020008C7020008C7020008C70200082B
:10019000C7020008C7020008C7020008C70200081B
:1001A000C7020008C7020008C7020008C70200080B
:1001B000C7020008C7020008C7020008C7020008FB
:1001C000C7020008C7020008C7020008C7020008EB
:1001D000C7020008E17E0008C7020008C702000845
:1001E000C7020008C7020008C7020008C7020008CB
:1001F000C7020008C7020008C7020008C7020008BB
:10020000C7020008C7020008C7020008C7020008AA
:10021000C7020008C7020008C7020008C70200089A
:10022000C7020008C7020008C7020008000000005B
:10023000C7020008C702000800000000C70200084B
:10024000C7020008C7020008C7020008C70200086A
:10025000C7020008C7020008C7020008C70200085A
:10026000C7020008C7020008C7020008C70200084A
:10027000C7020008C7020008C7020008000000000B
:10028000C7020008C7020008C702000800000000FB
:1002900000000000C7020008DFF80CD000F02EFAC2
:1002A0000048004739A80008407A032406488047E0
:1002B00006480047FEE7FEE7FEE7FEE7FEE7FEE74B
:1002C000FEE7FEE7FEE7FEE7318900089902000835
:1002D0002DE9F05F0546002092469B46884606467B
:1002E000814640241BE0284641464746224600F00E
:1002F00097F953465A46C01A914110D311461846F1
:10030000224600F07EF92D1A67EB01084F4622467F
:100310000120002100F075F917EB00094E41201E65
:10032000A4F10104DFDC484631462A464346BDE8D5
:10033000F09F2DE9F0410024061B254671F10006CF
:1003400005DA01240027D0EB070067EB0101161E38
:1003500073F1000605DA0027D2EB0702012567EBEF
:100360000303FFF7B5FF86460E4617469C46AC4290
:1003700004D00025D0EB050E65EB010624B100206A
:10038000D2EB000760EB030C704631463A466346F9
:10039000BDE8F08110B5431A934209D2831888183A
:1003A00003E010F8011D03F8011D521EF9D210BD23
:1003B00040EA01039B0703D009E008C9121F08C0E7
:1003C000042AFAD203E011F8013B00F8013B521E67
:1003D000F9D210BDD2B201E000F8012B491EFBD2C8
:1003E00070470022F6E710B513460A460446194640
:1003F000FFF7F0FF204610BD2DE9FF5FD2E901A70E
:100400004FF00008916999461446DDF838B0464629
:1004100001988847054659EA0B0005D009E0A16913
:10042000761C019888470546216A28468847002897
:10043000F5D1681C03D05FEACA7005D015E04FF013
:10044000FF3004B0BDE8F09F2068011D2160D0F8A6
:1004500000800AE05FEACA7001D108F8015BA16977
:10046000761C7F1E019888470546002F1ADD681C00
:1004700018D0B9F1000F0DD0E81705EBD06042118C
:1004800020F01F0059F822102A1A01209040014242
:10049000E0D107E0BBF1000FDCD1216A2846884794
:1004A0000028D7D0E16901988847BBF1000F07D138
:1004B000002E05DD5FEACA7002D1002188F8001025
:1004C000A068B84203DDBBF1000F03D017B16FF095
:1004D0000100B6E73046B4E72DE9F04D81EA0304A8
:1004E00004F0004B21F0004514464FF0000A23F0C1
:1004F000004150EA050220D054EA01021DD0C5F3A4
:100500000A570246C5F31303C1F31300C1F30A5699
:1005100040F4801543F48013A7EB0608101BD64661
:1005200008F2FD3873EB050002D308F1010801E081
:1005300092185B41B8F1000F03DA00200146BDE8D4
:10054000F08D00204FF48011064684460EE0171B04
:1005500073EB050705D3121B63EB050306434CEA57
:10056000010C49084FEA300092185B4150EA01073C
:10057000EDD152EA030012D082EA040083EA0501B9
:10058000084305D0101BAB4106D20122002306E030
:1005900000224FF0004302E06FF0010253101AEB0B
:1005A00006004CEB085110EB0A0041EB0B01BDE8D3
:1005B000F04D00F045B80EB540F2334102910021F4
:1005C000CDE900110A460B4600F049F803B000BD22
:1005D000C1F30A5210B5C1F3130140F2FF3341F4E5
:1005E00080119A4201DA002010BD40F233439A4252
:1005F000A2F2334203DC524200F012F810BD9040E8
:1006000010BD202A04DB203A00FA02F100207047D6
:100610009140C2F1200320FA03F319439040704740
:10062000202A04DB203A21FA02F00021704721FA47
:1006300002F3D040C2F120029140084319467047AE
:1006400010B5141E73F1000408DA401C41F10001DA
:1006500092185B411A4301D120F0010010BD2DE931
:10066000F04D92469B4611B1B1FA81F202E0B0FA28
:1006700080F220329046FFF7C4FF04460F4640EA5E
:100680000A0041EA0B0153465A46084313D011466B
:1006900053EA010019D0C8F140025046FFF7C0FFED
:1006A00005460E46504659464246FFF7AAFF084304
:1006B00005D0012004E020463946BDE8F08D002039
:1006C000054346EAE0762C4337430A986305E40A7B
:1006D000A0EB08000022FD0A44EA47540A3002D584
:1006E00000200146E9E7010510196941DDE90845E7
:1006F00000196941BDE8F04DA2E70000064C074D26
:1007000006E0E06840F0010394E8070098471034E1
:10071000AC42F6D3FFF7C4FD90DC0008B0DC000863
:1007200030B58C1810F8012B12F00F0301D110F81E
:10073000013B120906D110F8012B03E010F8015B10
:1007400001F8015B5B1EF9D101E001F8013B521E8B
:10075000FBD1A142E6D3002030BD00000000000024
:100760002DE9F04F85B0044603F06AFE8046202054
:100770008DF8070020098DF8080020018DF8090088
:100780004FF000098DF80A9003F05AFE41F6EC4A4A
:100790000546C2F2014A06208DF80B000DF10B014F
:1007A00001224FF47A7350464FF47A7B06F088FEAC
:1007B00005260DF10E0703AC0223504639462246AA
:1007C000ADF80E60ADF80C90CDF800B006F0ACFFBF
:1007D0009DF80D00C00705D003F032FE401BB0F5B8
:1007E0007A7FE9D941F6EC490DF10701C2F20149DE
:1007F00004224FF47A7348464FF47A7A06F060FE8A
:100800004FF0050B0DF1120604AC40F6B935002788
:100810000223484631462246ADF812B0ADF81070BA
:10082000CDF800A006F080FF9DF81100C00706D0AB
:1008300003F006FEA0EB0800A842E9D303273846E0
:1008400005B0BDE8F08F000070B584B041F6EC440F
:100850000DF10B05C2F2014466208DF80B00012258
:100860004FF47A73204629464FF47A7606F028FE34
:1008700099208DF80B0001224FF47A732046294607
:1008800006F01EFE0520ADF80E000020ADF80C00AD
:100890000DF10E0103AA022320460096022506F060
:1008A00043FF9DF80D0005EA400004B070BD000054
:1008B0002DE9F04F89B0154688460646000306909C
:1008C00003F0BEFD04463046FFF74AFF290A0395B0
:1008D00000F0828040F6F42241F6EC46C2F200427B
:1008E0004FF0020C4FF0000B101DC2F201464FF406
:1008F0007A754FF005090DF122070DF1200A0290DB
:100900000491069982F800C00B0C5370090A91708B
:10091000414682F803B04FF48072CDF81480FFF79F
:1009200039FD03F08DFD804606208DF81F00012261
:100930004FF47A7330460DF11F0106F0C1FD00BF80
:100940000223304639465246ADF82290ADF820B029
:10095000009506F0E9FE9DF82100C00706D003F0DF
:100960006FFDA0EB0800B0F57A7FE9D940F6F421DD
:100970004FF482724FF47A733046C2F2004106F0AF
:100980009FFD002840F0AA80DDF814800223304645
:1009900039465246ADF82290ADF820B0009506F0E9
:1009A000C3FE9DF82100C00706D003F049FD001BDF
:1009B000B0F57A7FEAD96AE0049940F6F422069805
:1009C000013900F58070069008F58078C2F2004287
:1009D0004FF0020C029893D103980026C2B2002A6D
:1009E00056D040F6F4200221C2F20040069B069247
:1009F00000F8041B190C00F8031C190A00F8021C6B
:100A0000414600F8016CFFF7C5FC03F019FD41F603
:100A1000EC490546C2F2014906208DF81F000DF190
:100A20001F0101224FF47A7348464FF47A7B06F097
:100A300047FD4FF005080DF1220A08AF0223484692
:100A400051463A46ADF82280ADF82060CDF800B0AE
:100A500006F06AFE9DF82100C00705D003F0F0FC07
:100A6000401BB0F57A7FE9D9069840F6F421021DC3
:100A700041F6EC40C2F20140C2F200414FF47A73F9
:100A80004FF47A7906F01CFD30B1012600E0032610
:100A9000304609B0BDE8F08F41F6EC484FF0050A4A
:100AA000C2F201480DF1220708AD0026022340469C
:100AB00039462A46ADF822A0ADF82060CDF8009066
:100AC00006F032FE9DF82100C007E1D003F0B8FC2B
:100AD000001BB0F57A7FE9D90326D9E70126D7E7CD
:100AE0002DE9F04F83B040F6F4250C46160AC2F209
:100AF00000454FEA0037029228D041F6EC494FF00A
:100B000000084FF47A7BC2F2014905F1040A00BFE4
:100B100003202870380C6870380AA8704FF482736C
:100B2000484629462A4685F80380CDF800B006F0ED
:100B3000FBFD18BB4FF4807220465146FFF72AFC9C
:100B4000013E07F5807704F58074E1D10298C6B2C2
:100B50000020EEB1E87041F6EC4003212970390C19
:100B60006970390AA970331DC2F201404FF47A71DD
:100B7000009129462A4606F0D7FD18B1012003B09E
:100B8000BDE8F08F291D20463246FFF703FC002008
:100B900003B0BDE8F08F0000FEE700000000000099
:100BA000806B816C496D022906D0012180F83510D7
:100BB000C16C41F04001C16400F0FEBA00000000C9
:100BC00010B5846BA26BA06C002A01680B6803F45B
:100BD000002209D0A36BDB0712D18AB1C968E26B8E
:100BE00001EBC201002213E0C2B90868000317D468
:100BF000E06BD4E9103202EB80000861A3630FE0E0
:100C00000A6812030CD40969E26B01EBC2010122EC
:100C100000F022FDA06B0138A06301E0606CC860A9
:100C2000A06B216C88420BD12068C16841F00101A2
:100C3000C1600068800758BF10BD012084F83500EE
:100C400010BD00000000000041F2C050C2F201409F
:100C500000F0F6BA0000000041F21060C2F201405C
:100C600001F032BC0000000040F20F42D0F800C09A
:100C7000C4F20202944510DC6F22C4F202029445D1
:100C800020DC3F22C4F20202944536DC1022C4F27A
:100C90000202944554D028224EE040F26F42C4F242
:100CA000020294451ADC40F23F42C4F2020294452B
:100CB0002ADC40F21042C4F20202944540D040F2D5
:100CC000284239E09F22C4F20202944525DC7022BA
:100CD000C4F20202944533D088222DE040F29F42B4
:100CE000C4F2020294451FDC40F27042C4F20202D8
:100CF000944525D040F288421EE04022C4F2020210
:100D000094451DD0582217E040F24042C4F202023E
:100D1000944515D040F258420EE0A022C4F20202DF
:100D200094450DD0B82207E040F2B842C4F2020266
:100D3000944505D040F2A042C4F20202944517D176
:100D40000CF0F8024AF6AB23103ACAF6AA23A2FB2B
:100D5000033109A35F2AC1F302115B5C40F2FF314A
:100D60002CEA0101C36588BF0431816508467047DC
:100D70002CF0FF01F9E700BF000610160006101660
:100D800080B540F20F4ED0F800C0C4F2020EF44518
:100D900014DC40F26F0EC4F2020EF44523DC40F284
:100DA0003F0EC4F2020EF4453BDC40F2100EC4F2DA
:100DB000020EF4455CD040F2280E55E040F26F4E32
:100DC000C4F2020EF4451DDC40F23F4EC4F2020EA6
:100DD000F4452FDC40F2104EC4F2020EF44547D029
:100DE00040F2284E40E040F29F0EC4F2020EF4455D
:100DF00029DC40F2700EC4F2020EF44538D040F205
:100E0000880E31E040F29F4EC4F2020EF44523DC1E
:100E100040F2704EC4F2020EF44529D040F2884EE2
:100E200022E040F2400EC4F2020EF44520D040F21F
:100E3000580E19E040F2404EC4F2020EF44517D0AD
:100E400040F2584E10E040F2A00EC4F2020EF445FB
:100E50000ED040F2B80E07E040F2B84EC4F2020ED7
:100E6000F44505D040F2A04EC4F2020EF44509D17B
:100E7000CCF804308068402809D1CCF80820CCF8A0
:100E80000C1080BDCCF8043080684028F5D0CCF838
:100E90000810CCF80C2080BD70B540F26F44D0F83B
:100EA00000C0C4F20204D0F858E0A44519DC9F2524
:100EB000C4F20205AC4531DC5725C4F20205AC454D
:100EC00056DC1025C4F20205AC4500F092802825BE
:100ED000C4F20205AC4500F08C804025C4F2020546
:100EE00084E045F22F45C5F60205AC452BDC40F207
:100EF000B745C4F20205AC4548DC40F27045C4F287
:100F00000205AC4575D040F28845C4F20205AC45F7
:100F10006FD040F2A045C4F2020567E040F22745D9
:100F2000C4F20205AC4540DCA025C4F20205AC4584
:100F30005FD0B825C4F20205AC455AD040F2104546
:100F4000C4F2020552E045F26B45C5F60205AC4518
:100F50003CDC45F23045C5F60205AC4549D045F2CA
:100F60004445C5F60205AC4543D045F258453BE043
:100F70005825C4F20205AC453BD07025C4F20205E9
:100F8000AC4536D08825C4F202052FE040F2B845C2
:100F9000C4F20205AC452CD045F20845C5F6020561
:100FA000AC4526D045F21C451EE040F22845C4F26F
:100FB0000205AC451DD040F24045C4F20205AC45E7
:100FC00017D040F25845C4F202050FE045F26C45D7
:100FD000C5F60205AC450CD045F29445C5F60205B0
:100FE000AC4506D045F28045C5F60205AC4540F05B
:100FF000D180456EC66E002E866E6E601CBFD0E935
:101000001C566E60A44515DC9F24C4F20204A4455E
:101010002BDC5724C4F20204A4454EDC1024C4F295
:101020000204A44576D02824C4F20204A44571D059
:1010300040246BE045F22F44C5F60204A44527DCAA
:1010400040F2B744C4F20204A44542DC40F27044CA
:10105000C4F20204A4455DD040F28844C4F2020404
:10106000A44557D040F2A04450E040F22744C4F2D7
:101070000204A4453CDCA024C4F20204A44549D0E7
:10108000B824C4F20204A44544D040F210443DE028
:1010900045F26B44C5F60204A44553DC45F23044E6
:1010A000C5F60204A4455FD045F24444C5F60204E7
:1010B000A44559D045F2584452E05824C4F20204E1
:1010C000A44527D07024C4F20204A44522D0882469
:1010D0001CE040F2B844C4F20204A4451AD045F220
:1010E0000844C5F60204A4453ED045F21C4437E04E
:1010F00040F22844C4F20204A4450BD040F240441C
:10110000C4F20204A44505D040F25844C4F20204DB
:10111000A4453FD18468C06D00F01F003F2505FA4B
:1011200000F0CEF80800DCF80000402C20F480200D
:10113000CCF80000CCF8043023D0CCF80810CCF860
:101140000C2070BD45F26C44C5F60204A4450BD0DA
:1011500045F28044C5F60204A44505D045F2944406
:10116000C5F60204A44515D1C46D806804F01F04BF
:101170000125402805FA04F4CEF80440CCF80430E8
:1011800004D1CCF80820CCF80C1070BDCCF80810B5
:10119000CCF80C2070BD000002F07EBF0000000003
:1011A0007047000000000000042003F05DB800005C
:1011B00070470000000000007047000000000000C1
:1011C00010B59EB041F2C824C2F20144208808B193
:1011D0001EB010BD40F210408021C4F20200009009
:1011E0000020019002914FF4007103914FF480614F
:1011F000CDE90410CDE906004FF40031CDE9081027
:10120000CDE90B00684601F0ABFEA0B946F26440A0
:1012100040F62061C2F20040C2F2004100F1F0024B
:10122000684645F2406302F0DFFC20B968460021C1
:10123000C82202F0A5F9012020801EB010BD0000D8
:1012400070B50446006840F6A1360569C0F6000690
:10125000690721D4A8072DD4E8063BD4280705D573
:10126000206808214161204600F0F2F9E80708BF34
:1012700070BD20680168890703D5C16821F01E018F
:10128000C160C16821F00101C160012141612046B6
:10129000BDE87040FFF794BF04214161E06C40F06D
:1012A0000200E06484F83510A06C066500F0BCFF15
:1012B000A807D1D521680222A06C4A61E16C41F0F7
:1012C0000101E164042184F83510066500F0ACFFEB
:1012D000E806C3D5206810214161204600F054F88B
:1012E0002807C3D5BCE70000002849D0B0B50446A4
:1012F00090F8350010B9204600F04AF8022084F832
:101300003500D4F818E04FF20705BEF1000FCFF614
:10131000E0751CBF0020606294E80510E368102AA5
:10132000016801EA05010160D4E9045141EA0301C1
:10133000236A41EA0501656A41EA0C0141EA0301B9
:10134000A36A41EA0501E56A41EA0301236B41EA28
:101350000501056841EA030141EA050141EA0E0180
:1013600041EA0201016001D1E1698161C16841F096
:101370001E01C1600020E064012184F83510B0BD79
:1013800001207047000000007047000000000000CE
:101390002DE9F04786B040F200080446C4F6020882
:1013A0000068002740450597CDE90377029701972C
:1013B00002D006B0BDE8F08744F2E04001ADC5F6CA
:1013C00002004FF0020A0D2650F8041C41F0010102
:1013D00040F8041C50F8041C01F001010091009930
:1013E000016841F010010160016801F010010091F5
:1013F0000099016841F480710160016801F4807115
:1014000000910099016841F080010160016801F0DC
:10141000800100910099016841F0010101600068BC
:10142000294600F00100009000986020019008F12A
:101430001020CDE902A70497059602F021FF41F69E
:1014400000493020C5F602092946CDE9010A09F50F
:1014500080600596CDE9037702F012FF4FF4BC409F
:101460002946CDE9010A48460596CDE9037702F001
:1014700007FF50202946CDE9010A08F18050059662
:10148000CDE9037702F0FCFE41F210651020C2F2B4
:101490000145C4F2020028604B20C5E901074FF462
:1014A000806028614FF4805068614FF48040A861EB
:1014B0004FF48070E8614FF48030EF60C5E90807B1
:1014C000284601F04DFD08B1FFF772FE4E200521C0
:1014D0000022A564AC6303F057FB4E2003F044FBED
:1014E00006B0BDE8F0870000B0B582B0044690F8C1
:1014F000340001284FF0020065D04FF0010E84F84F
:1015000034E084F83500D4F800C0A06CDCF800505A
:1015100045F48045CCF80050DCF8005025F0020579
:10152000CCF80050DCF80050294340F6A135CCF847
:10153000001040F6C131C0F60005C5640025C0F6B4
:101540000001B5EB134FC1630565A563E563256431
:1015500065640AD10CF1280102F0DEFB50B3402093
:10156000E064012084F835002AE04164C4F838E0E2
:10157000E3636264E16BB1F5803F0BD3002100BFF0
:10158000E36B5B08E363A36B5B00A363E36BB1EB0B
:10159000134FF5D1A16B0239A163A16B2164E16BFB
:1015A000E56B009502EB81030CF1280100F0D0F807
:1015B0000028D4D12068016841F0010101600020B9
:1015C000002184F8341002B0B0BD0000000000001B
:1015D000B0B5044690F834000225012835D040F219
:1015E000B4400121C2F2004084F8341044F6D351D3
:1015F0004FF618420068C1F2620184F83550CFF608
:10160000FF72A0FB01012068490A5143026822F0E1
:1016100001020260013104D20268D207FAD100252A
:1016200004E0E16C032541F02001E164016821F44C
:1016300080410160A06C00F07FFBE06CE064012061
:1016400084F83500002084F834002846B0BD00003E
:10165000704700000000000040F20F430068C4F231
:101660000203984210DC6F23C4F20203984220DC8C
:101670003F23C4F20203984236DC1023C4F2020373
:10168000984254D028234EE040F26F43C4F2020344
:1016900098421ADC40F23F43C4F2020398422ADC2B
:1016A00040F21043C4F20203984240D040F2284373
:1016B00039E09F23C4F20203984225DC7023C4F270
:1016C0000203984233D088232DE040F29F43C4F2B6
:1016D000020398421FDC40F27043C4F202039842B6
:1016E00025D040F288431EE04023C4F20203984212
:1016F0001DD0582317E040F24043C4F20203984241
:1017000015D040F258430EE0A023C4F202039842E1
:101710000DD0B82307E040F2B843C4F20203984268
:1017200005D040F2A043C4F20203984208D112B19E
:1017300000F1100201E000F10C020020116070477E
:1017400012B100F11002F8E700F10C02F5E7000019
:101750002DE9F04104468068802805D14FF480705F
:1017600060650120BDE8F08194F83400012802D1C1
:101770000220BDE8F081012084F8340094F835009F
:10178000012822D1022084F835000020606540F253
:101790000F482068C4F2020840F26F454045DDF86A
:1017A00018C0C4F2020513DC6F27C4F20207B84266
:1017B0001FDC3F27C4F20207B84235DC1027C4F211
:1017C0000207B84254D028274DE04FF40060C7E725
:1017D000A8421ADC40F23F47C4F20207B8422ADCB2
:1017E00040F21047C4F20207B84241D040F2284705
:1017F00039E09F27C4F20207B84225DC7027C4F203
:101800000207B84234D088272DE040F29F47C4F247
:101810000207B8421FDC40F27047C4F20207B84228
:1018200026D040F288471EE04027C4F20207B842A3
:101830001ED0582717E040F24047C4F20207B842D2
:1018400016D040F258470EE0A027C4F20207B84273
:101850000ED0B82707E040F2B847C4F20207B842FA
:1018600006D040F2A047C4F20207B84240F05A82C4
:1018700007683F2647F48027076008270361D4E9FB
:10188000160303F01F0306FA03F3C3512046634611
:10189000FFF776FA2068A84219DC9F21C4F2020102
:1018A000884231DC5721C4F20201884256DC102103
:1018B000C4F20201884200F092802821C4F20201A1
:1018C000884200F08C804021C4F2020184E045F29D
:1018D0002F41C5F6020188422BDC40F2B741C4F229
:1018E0000201884248DC40F27041C4F202018842A1
:1018F00075D040F28841C4F2020188426FD040F2B4
:10190000A041C4F2020167E040F22741C4F20201A3
:10191000884240DCA021C4F2020188425FD0B82195
:10192000C4F2020188425AD040F21041C4F20201CE
:1019300052E045F26B41C5F6020188423CDC45F2BB
:101940003041C5F60201884249D045F24441C5F60E
:101950000201884243D045F258413BE05821C4F28D
:10196000020188423BD07021C4F20201884236D085
:101970008821C4F202012FE040F2B841C4F2020112
:1019800088422CD045F20841C5F60201884226D093
:1019900045F21C411EE040F22841C4F20201884297
:1019A0001DD040F24041C4F20201884217D040F2FB
:1019B0005841C4F202010FE045F26C41C5F6020144
:1019C00088420CD045F29441C5F60201884206D007
:1019D00045F28041C5F60201884240F09681616E71
:1019E000E26E002AA26E4A601CBFD4E91C124A6053
:1019F000404510DC6F21C4F2020188421CDC3F210B
:101A0000C4F20201884232DC1021C4F20201884291
:101A100051D028214AE0A8421ADC40F23F41C4F2EA
:101A2000020188422ADC40F21041C4F202018842DD
:101A300041D040F2284139E09F21C4F2020188429E
:101A400025DC7021C4F20201884234D088212DE0C7
:101A500040F29F41C4F2020188421FDC40F2704113
:101A6000C4F20201884226D040F288411EE04021A3
:101A7000C4F2020188421ED0582117E040F24041D2
:101A8000C4F20201884216D040F258410EE0A02173
:101A9000C4F2020188420ED0B82107E040F2B841FA
:101AA000C4F20201884206D040F2A041C4F2020111
:101AB000884240F02A8101680B2262F344010160F0
:101AC000416941F080014161216C09B9A16C19B1F2
:101AD0000821026811430160A84219DC9F21C4F269
:101AE0000201884231DC5721C4F20201884256DCEF
:101AF0001021C4F20201884200F091802821C4F232
:101B00000201884200F08B804021C4F2020184E08F
:101B100045F22F41C5F6020188422BDC40F2B74165
:101B2000C4F20201884248DC40F27041C4F2020172
:101B3000884274D040F28841C4F2020188426ED0DB
:101B400040F2A041C4F2020167E040F22741C4F232
:101B50000201884240DCA021C4F2020188425ED02A
:101B6000B821C4F20201884259D040F21041C4F2B7
:101B7000020152E045F26B41C5F6020188423CDCAD
:101B800045F23041C5F60201884248D045F2444151
:101B9000C5F60201884242D045F258413BE0582147
:101BA000C4F2020188423AD07021C4F20201884294
:101BB00035D08821C4F202012FE040F2B841C4F2CE
:101BC000020188422BD045F20841C5F60201884245
:101BD00025D045F21C411EE040F22841C4F202012A
:101BE00088421CD040F24041C4F20201884216D023
:101BF00040F25841C4F202010FE045F26C41C5F6D3
:101C0000020188420BD045F29441C5F60201884298
:101C100005D045F28041C5F6020188426ED1216EA1
:101C20000A68D20303D50A6842F480720A60E16E42
:101C300019B10A6842F480720A60404510DC6F21D5
:101C4000C4F2020188421CDC3F21C4F20201884236
:101C500032DC1021C4F2020188424FD028214AE030
:101C6000A8421ADC40F23F41C4F2020188422ADC59
:101C700040F21041C4F2020188423FD040F22841B4
:101C800039E09F21C4F20201884225DC7021C4F2B0
:101C90000201884232D088212DE040F29F41C4F2F7
:101CA000020188421FDC40F27041C4F20201884206
:101CB00024D040F288411EE04021C4F20201884253
:101CC0001CD0582117E040F24041C4F20201884282
:101CD00014D040F258410EE0A021C4F20201884223
:101CE0000CD0B82107E040F2B841C4F202018842AA
:101CF00004D040F2A041C4F202018842016841F0E0
:101D0000010101600020BDE8F0810168052262F355
:101D100043010160216C19B9A16C00293FF4DCAECC
:101D20000421D6E6076848F22006374307600126FB
:101D30000427A3E5000000002DE9F041044602F06D
:101D40007FFB14B3054694F83500022820D140F2F9
:101D50000F462768C4F2020640F26F48B7426FF0A0
:101D60000E00C4F2020817DC6F21C4F202018F4298
:101D700023DC3F21C4F202018F4239DC1021C4F27E
:101D800002018F4258D0282151E00120BDE8F081A6
:101D900080206065012040E247451ADC40F23F4167
:101DA000C4F202018F422ADC40F21041C4F2020167
:101DB0008F4241D040F2284139E09F21C4F2020114
:101DC0008F4225DC7021C4F202018F4234D0882179
:101DD0002DE040F29F41C4F202018F421FDC40F22D
:101DE0007041C4F202018F4226D040F288411EE0C9
:101DF0004021C4F202018F421ED0582117E040F268
:101E00004041C4F202018F4216D040F258410EE028
:101E1000A021C4F202018F420ED0B82107E040F2A7
:101E2000B841C4F202018F4206D040F2A041C4F290
:101E300002018F42394607D13946386820F01E002A
:101E400041F8140B6FF080000A68474500EA020071
:101E5000086019DC9F20C4F20200874231DC572061
:101E6000C4F20200874256DC1020C4F2020087420E
:101E700000F091802820C4F20200874200F08B809D
:101E80004020C4F2020084E045F22F40C5F6020073
:101E900087422BDC40F2B740C4F20200874248DCA4
:101EA00040F27040C4F20200874274D040F2884091
:101EB000C4F2020087426ED040F2A040C4F2020099
:101EC00067E040F22740C4F20200874240DCA020D5
:101ED000C4F2020087425ED0B820C4F202008742FA
:101EE00059D040F21040C4F2020052E045F26B407B
:101EF000C5F6020087423CDC45F23040C5F60200E0
:101F0000874248D045F24440C5F60200874242D09D
:101F100045F258403BE05820C4F2020087423AD0D4
:101F20007020C4F20200874235D08820C4F202003B
:101F30002FE040F2B840C4F2020087422BD045F2B5
:101F40000840C5F60200874225D045F21C401EE03D
:101F500040F22840C4F2020087421CD040F24040C8
:101F6000C4F20200874216D040F25840C4F2020088
:101F70000FE045F26C40C5F6020087420BD045F2F7
:101F80009440C5F60200874205D045F28040C5F670
:101F90000200874204D1206E016821F48071016043
:101FA000386820F0010038603868C0070BD002F0B4
:101FB00047FA401B0628F7D320206065032084F8E9
:101FC0003500012029E12068B04210DC6F21C4F205
:101FD000020188421CDC3F21C4F20201884232DC4B
:101FE0001021C4F20201884250D028214AE0404525
:101FF0001ADC40F23F41C4F2020188422ADC40F27E
:102000001041C4F20201884240D040F2284139E038
:102010009F21C4F20201884225DC7021C4F2020132
:10202000884233D088212DE040F29F41C4F2020162
:1020300088421FDC40F27041C4F20201884225D080
:1020400040F288411EE04021C4F2020188421DD0C6
:10205000582117E040F24041C4F20201884215D0F5
:1020600040F258410EE0A021C4F2020188420DD096
:10207000B82107E040F2B841C4F20201884205D01D
:1020800040F2A041C4F20201884259D1D4E91612AB
:1020900002F01F023F2303FA02F28A60404559DC36
:1020A0009F21C4F20201884214DC5721C4F20201CC
:1020B000884226DC1021C4F20201884200F09D8093
:1020C0002821C4F20201884200F097804021C4F226
:1020D000020190E040F22741C4F2020188421EDC76
:1020E000A021C4F20201884200F08780B821C4F226
:1020F0000201884200F0818040F21041C4F20201E6
:1021000079E05821C4F20201884276D07021C4F2ED
:102110000201884271D08821C4F202016BE040F2D2
:102120002841C4F20201884267D040F24041C4F223
:102130000201884261D040F25841C4F202015AE0E3
:10214000D4E9161202F01F02012303FA02F24A60D8
:102150004045A5DD45F22F41C5F60201884216DC57
:1021600040F2B741C4F20201884225DC40F27041DE
:10217000C4F20201884240D040F28841C4F2020118
:1021800088423AD040F2A041C4F2020133E045F265
:102190006B41C5F6020188421DDC45F23041C5F6AF
:1021A0000201884229D045F24441C5F60201884225
:1021B00023D045F258411CE040F2B841C4F202017C
:1021C00088421AD045F20841C5F60201884214D06F
:1021D00045F21C410DE045F26C41C5F60201884212
:1021E0000BD045F29441C5F60201884205D045F274
:1021F0008041C5F6020188420BD1616EA26EE06E8D
:102200004A6030B1016821F480710160D4E91C0199
:102210004160012084F835000020002184F834104A
:10222000BDE8F0810000000080B5D8B190F835100D
:10223000022919D140F20F420168C4F20202914210
:1022400016DC6F23C4F20203994226DC3F23C4F25A
:10225000020399423CDC1023C4F2020399425AD093
:10226000282354E0012080BD80214165012080BDEC
:1022700040F26F43C4F2020399421ADC40F23F433A
:10228000C4F2020399422ADC40F21043C4F2020372
:10229000994240D040F2284339E09F23C4F2020320
:1022A000994225DC7023C4F20203994233D088237B
:1022B0002DE040F29F43C4F2020399421FDC40F23A
:1022C0007043C4F20203994225D040F288431EE0D5
:1022D0004023C4F2020399421DD0582317E040F274
:1022E0004043C4F20203994215D040F258430EE035
:1022F000A023C4F2020399420DD0B82307E040F2B4
:10230000B843C4F20203994205D040F2A043C4F29C
:10231000020399426ED191424FF0040280F83520B9
:1023200010DC6F20C4F20200814220DC3F20C4F2A6
:102330000200814236DC1020C4F20200814253D0F8
:1023400028204EE040F26F40C4F2020081421ADCC5
:1023500040F23F40C4F2020081422ADC40F21040C9
:10236000C4F2020081423FD040F2284039E09F2071
:10237000C4F20200814225DC7020C4F202008142D6
:1023800032D088202DE040F29F40C4F2020081420A
:102390001FDC40F27040C4F20200814224D040F2BF
:1023A00088401EE04020C4F2020081421CD0582028
:1023B00017E040F24040C4F20200814214D040F2E3
:1023C00058400EE0A020C4F2020081420CD0B82098
:1023D00007E040F2B840C4F20200814204D040F26B
:1023E000A040C4F202008142086820F001000860A9
:1023F000002080BD0A6822F00E020A6045F25742B2
:10240000C5F6020291420A6822F001020A600EDC5F
:1024100045F22F42C5F60202914217DC45F208420E
:10242000C5F60202914226D045F21C421FE045F259
:102430007F42C5F60202914211DC45F25842C5F6D0
:102440000202914217D045F26C4210E045F2304250
:10245000C5F6020291420ED045F2444207E045F231
:102460009442C5F60202914205D045F28042C5F67B
:10247000020291421AD1D0E9181CD0E916E30A6889
:1024800022F480720A6003F01F01012202FA01F1B6
:10249000CEF80410816ECCF80410C16E31B10A6818
:1024A00022F480720A60D0E91C124A60012180F88F
:1024B0003510026D002180F834100AB190470021D8
:1024C000084680BD000000002DE9F04381B00021E6
:1024D000009140F2B4410446C2F2004148F2B51204
:1024E000C1F64E32A56D096840F26F490068C4F22A
:1024F0000209A1FB021848452E682A6815DC9F21B5
:10250000C4F2020188422BDC5721C4F20201884246
:102510004FDC1021C4F20201884278D02821C4F295
:102520000201884273D040216CE045F22F41C5F68C
:102530000201884227DC40F2B741C4F2020188421E
:1025400043DC40F27041C4F2020188425FD040F2A5
:102550008841C4F20201884259D040F2A04151E0C2
:1025600040F22741C4F2020188423DDCA021C4F2BE
:10257000020188424BD0B821C4F20201884246D001
:1025800040F210413EE045F26B41C5F6020188423F
:1025900075DC45F23041C5F60201884200F08280C8
:1025A00045F24441C5F6020188427BD045F25841CC
:1025B00073E05821C4F20201884228D07021C4F28D
:1025C0000201884223D088211CE040F2B841C4F2C5
:1025D000020188421BD045F20841C5F6020188423B
:1025E00060D045F21C4158E040F22841C4F202019B
:1025F00088420CD040F24041C4F20201884206D029
:1026000040F25841C4F20201884240F05884E16D22
:10261000082201F01F018A40324200F0168140F288
:102620000F43C4F2020398424FF0040313DC6F27F8
:10263000C4F20207B84200F391803F27C4F20207B8
:10264000B84200F3D2801027C4F20207B84200F06B
:10265000F0802827E8E0484500F38C8040F23F47AF
:10266000C4F20207B84200F3C78040F21047C4F238
:102670000207B84200F0DD8040F22847D4E045F27E
:102680006C41C5F6020188420CD045F28041C5F686
:102690000201884206D045F29441C5F60201884203
:1026A00040F00D840368E16D01F01F01042707FA73
:1026B00001F6164218BF13F004072CD1022707FABF
:1026C00001F6164218BF13F002076AD1CA4012077A
:1026D00040F1F58313F0080200F0F18340F20F425D
:1026E000C4F2020290426FF01C0200F3FF826F23DB
:1026F000C4F20203984200F331833F23C4F2020381
:10270000984200F366831023C4F20203984200F05B
:10271000988328238FE319046E603AD4990600F158
:10272000CA8340F20F41C4F2020188426FF00801EF
:1027300000F301836F22C4F20202904200F32D8362
:102740003F22C4F20202904200F38D831022C4F2B1
:102750000202904200F0AC832822A3E39F27C4F238
:102760000207B84251DC7027C4F20207B84260D0B9
:10277000882759E040F29F47C4F20207B8424BDC79
:1027800040F27047C4F20207B84252D040F2884784
:102790004AE0D80300F1A682A16C002940F09D8296
:1027A0008DE319046E6000F1B482990600F1D383C1
:1027B00040F20F41C4F2020188426FF0140100F3AD
:1027C0000F836F22C4F20202904200F37B833F2208
:1027D000C4F20202904200F390831022C4F202027B
:1027E000904200F0AF832822A6E34027C4F20207FC
:1027F000B8421ED0582717E040F24047C4F2020703
:10280000B84216D040F258470EE0A027C4F20207A3
:10281000B8420ED0B82707E040F2A047C4F2020742
:10282000B84206D040F2B847C4F20207B84218BF17
:10283000082307681F4208D0036823F004030360DD
:10284000AA60626D42F00102626501228A40324252
:102850006FD040F20F43C4F20203984210DC6F23A2
:10286000C4F2020398421CDC3F23C4F202039842E4
:1028700032DC1023C4F20203984251D028234AE0EC
:1028800048451ADC40F23F43C4F2020398422ADC76
:1028900040F21043C4F20203984241D040F2284370
:1028A00039E09F23C4F20203984225DC7023C4F26E
:1028B0000203984234D088232DE040F29F43C4F2B3
:1028C000020398421FDC40F27043C4F202039842B4
:1028D00026D040F288431EE04023C4F2020398420F
:1028E0001ED0582317E040F24043C4F2020398423E
:1028F00016D040F258430EE0A023C4F202039842DF
:102900000ED0B82307E040F2B843C4F20203984265
:1029100006D040F2A043C4F20203984240F0FF8187
:10292000436903F0800323B1AA60626D42F00202A2
:10293000626504228A4032426FD040F20F43C4F2F3
:102940000203984210DC6F23C4F2020398421CDC9D
:102950003F23C4F20203984232DC1023C4F2020384
:10296000984251D028234AE048451ADC40F23F43C0
:10297000C4F2020398422ADC40F21043C4F202037C
:10298000984241D040F2284339E09F23C4F2020329
:10299000984225DC7023C4F20203984234D0882385
:1029A0002DE040F29F43C4F2020398421FDC40F244
:1029B0007043C4F20203984226D040F288431EE0DE
:1029C0004023C4F2020398421ED0582317E040F27D
:1029D0004043C4F20203984216D040F258430EE03E
:1029E000A023C4F2020398420ED0B82307E040F2BD
:1029F000B843C4F20203984206D040F2A043C4F2A6
:102A00000203984240F09181036803F0020323B16E
:102A1000AA60626D42F004026265102202FA01F1BE
:102A200031427DD040F20F42C4F2020290424FF098
:102A3000080210DC6F23C4F2020398421CDC3F231F
:102A4000C4F20203984232DC1023C4F2020398421B
:102A500051D028234AE048451ADC40F23F43C4F2F3
:102A6000020398422ADC40F21043C4F20203984267
:102A700041D040F2284339E09F23C4F20203984238
:102A800025DC7023C4F20203984234D088232DE061
:102A900040F29F43C4F2020398421FDC40F27043AD
:102AA000C4F20203984226D040F288431EE040233D
:102AB000C4F2020398421ED0582317E040F240436C
:102AC000C4F20203984216D040F258430EE0A0230D
:102AD000C4F2020398420ED0B82307E040F2A043AC
:102AE000C4F20203984206D040F2B843C4F2020393
:102AF000984218BF04220368134211D0A9600168EC
:102B00004903016806D4C90506D4016821F008010B
:102B1000016001E0080352D4216C09B120468847C6
:102B2000E06D00F01F01202000FA01F2324200F0B7
:102B3000AB8040F20F432068C4F2020398424FF08A
:102B4000100310DC6F27C4F20207B8421CDC3F27D9
:102B5000C4F20207B84236DC1027C4F20207B842BA
:102B600055D028274EE048451ADC40F23F47C4F2D2
:102B70000207B8422EDC40F21047C4F20207B84206
:102B800045D040F228473DE09F27C4F20207B842F3
:102B900029DC7027C4F20207B84238D0882731E018
:102BA00040F29F47C4F20207B84223DC40F270476C
:102BB000C4F20207B8422AD040F2884722E0A16C52
:102BC0000029ABD1ACE74027C4F20207B8421ED0BF
:102BD000582717E040F24047C4F20207B84216D027
:102BE00040F258470EE0A027C4F20207B8420ED0C8
:102BF000B82707E040F2A047C4F20207B84206D067
:102C000040F2B847C4F20207B84218BF022307686F
:102C10001F4239D0AA6094F83520042A02681BD1DB
:102C200022F016020260426922F080024261226CA8
:102C30000AB9A26C1AB1026822F0080202603F20B1
:102C40008840A860012084F83500216D002000290B
:102C500084F8340041D132E1510301680CD4C90534
:102C60000ED4016821F010010160012084F83500C4
:102C7000002084F8340003E0080301D4616C00E014
:102C8000E16B09B120468847606D002800F017818C
:102C9000606DC0071DD0042084F8350020684FEA1D
:102CA0009821026822F00102026000BF009A0132FE
:102CB00000928A4202D80268D207F7D10068C007A2
:102CC0004FF0030008BF012084F83500002084F88D
:102CD0003400E16C002900F0F280204601B0BDE82C
:102CE000F0430847216C0029F7D1E8E0484541DC72
:102CF00040F23F43C4F20203984200F3848040F262
:102D00001043C4F20203984200F09B8040F2284333
:102D100091E0D8033DD4616C0029DED1CFE0036897
:102D20000023002B7FF400AE03E603680023002B92
:102D30007FF46EAE71E648453CDC40F23F42C4F29F
:102D40000202904200F3968040F21042C4F2020266
:102D5000904200F0AD8040F22842A3E09F23C4F2ED
:102D60000203984258DC7023C4F20203984268D0F0
:102D7000882360E040F29F43C4F20203984252DC91
:102D800040F27043C4F2020398425AD040F28843A2
:102D900051E0E16B0029A0D191E09F22C4F2020230
:102DA000904270DC7022C4F20202904200F08080F7
:102DB000882277E040F29F42C4F20202904269DC2E
:102DC00040F27042C4F20202904271D040F2884256
:102DD00068E04023C4F20203984232D058232AE02C
:102DE00048457BDC40F23F42C4F20202904200F3CD
:102DF0008B8040F21042C4F20202904200F0A280A6
:102E000040F2284298E040F24043C4F20203984264
:102E100017D040F258430EE0A023C4F202039842B8
:102E20000FD0B82307E040F2A043C4F20203984257
:102E300007D040F2B843C4F20203984218BF6FF0C3
:102E40000E0203681A400260012000FA01F1696075
:102E5000606584F835000020E16C84F834000029B6
:102E60007FF43BAF2BE04022C4F2020290421FD01D
:102E7000582217E040F24042C4F20202904217D0BA
:102E800040F258420EE0A022C4F2020290420FD05B
:102E9000B82207E040F2A042C4F20202904207D0FA
:102EA00040F2B842C4F20202904218BF6FF004012F
:102EB000026811400160216C00297FF40EAF01B05F
:102EC000BDE8F0839F22C4F20202904225DC70220A
:102ED000C4F20202904235D088222DE040F29F4297
:102EE000C4F2020290421FDC40F27042C4F20202BD
:102EF000904227D040F288421EE04022C4F20202F3
:102F000090421FD0582217E040F24042C4F2020221
:102F1000904217D040F258420EE0A022C4F20202C2
:102F200090420FD0B82207E040F2A042C4F2020261
:102F3000904207D040F2B842C4F20202904218BF59
:102F40006FF00A01026811400160012084F8350029
:102F5000002084F83400E16B00297FF4BEAEAEE7B8
:102F60002DE9F041044601F06BFAECB140F26F48F4
:102F700005462068C4F20208404518DC9F21C4F2CF
:102F8000020188422EDC5721C4F20201884254DC3F
:102F90001021C4F2020188427DD02821C4F202012E
:102FA000884278D0402171E00120BDE8F08145F2EF
:102FB0002F41C5F60201884227DC40F2B741C4F236
:102FC0000201884245DC40F27041C4F202018842AD
:102FD00061D040F28841C4F2020188425BD040F2E5
:102FE000A04153E040F22741C4F2020188423FDC95
:102FF000A021C4F2020188424DD0B821C4F20201DE
:10300000884248D040F2104140E045F26B41C5F69D
:103010000201884200F3928045F23041C5F6020178
:10302000884200F09D8045F24441C5F60201884285
:1030300000F0968045F258418EE05821C4F202011A
:10304000884228D07021C4F20201884223D088210E
:103050001CE040F2B841C4F2020188421BD045F2A4
:103060000841C5F6020188427AD045F21C4173E05E
:1030700040F22841C4F2020188420CD040F24041A3
:10308000C4F20201884206D040F25841C4F2020163
:10309000884240F0C580022184F83510002184F870
:1030A0003410016821F00101016000BF206801684F
:1030B000C9070CD001F0C4F9401B0628F6D3202024
:1030C0006065032084F835000120BDE8F08148F2F6
:1030D0003F0204F108060168CFF6106211406569ED
:1030E0004CCE1143A2691943E3693143266A0D436B
:1030F000616A2B43042943EA060343EA020303D12E
:10310000D4E90B652E43334341F20006C5F6004671
:103110003668B6F1005F6CD36568A5F12906202EEC
:1031200005D23F27CCF2C037F740FF075CD1A5F1AD
:103130004F060025042E38BF012556E045F26C41AC
:10314000C5F6020188420BD045F28041C5F6020166
:10315000884205D045F29441C5F6020188425FD10C
:1031600004F1080E022184F83510002184F834108F
:103170000168A3699EE80450A2F18005E769B5FAE9
:1031800085F566696D09402A4FEA853543EA0702ED
:103190006FF3101142EA060208BF102541EADC0174
:1031A00042EA0E022943236A41EAD2014AF6F83282
:1031B000CAF2FD724CF6CD470244CCF6CC4741EA48
:1031C0001311A2FB072301606FF0030000EA9300D4
:1031D000E0652046FDF748FDE16D012201F01F0189
:1031E00002FA01F1416045E00125002D18BF43F4CA
:1031F000801303600429436923F0070341EA0301B4
:103200002DD1D4E90A5341EA050143B3B2F5005F79
:1032100008D09AB9022D16D0012D09D09DB115E024
:1032200040204DE7032D11D8DFE805F00A0D0A0212
:10323000A3F1C072B2FA82F2520908E0032D01D262
:10324000012204E002D1C3F3006200E0002232B1A7
:1032500040206065012084F83500BDE8F0814161BF
:103260002046FDF701FDE16D3F2201F01F0102FA4A
:1032700001F181602068404519DC9F21C4F2020100
:10328000884231DC5721C4F20201884256DC102109
:10329000C4F20201884200F092802821C4F20201A7
:1032A000884200F08C804021C4F2020184E045F2A3
:1032B0002F41C5F6020188422BDC40F2B741C4F22F
:1032C0000201884248DC40F27041C4F202018842A7
:1032D00075D040F28841C4F2020188426FD040F2BA
:1032E000A041C4F2020167E040F22741C4F20201AA
:1032F000884240DCA021C4F2020188425FD0B8219C
:10330000C4F2020188425AD040F21041C4F20201D4
:1033100052E045F26B41C5F6020188423CDC45F2C1
:103320003041C5F60201884249D045F24441C5F614
:103330000201884243D045F258413BE05821C4F293
:10334000020188423BD07021C4F20201884236D08B
:103350008821C4F202012FE040F2B841C4F2020118
:1033600088422CD045F20841C5F60201884226D099
:1033700045F21C411EE040F22841C4F2020188429D
:103380001DD040F24041C4F20201884217D040F201
:103390005841C4F202010FE045F26C41C5F602014A
:1033A00088420CD045F29441C5F60201884206D00D
:1033B00045F28041C5F60201884240F0D08045F2D6
:1033C000574C45F6FC01C5F6020CC5F602016045F6
:1033D0000EDC45F22F43C5F60203984217DC45F296
:1033E0000843C5F60203984226D045F21C431FE06D
:1033F00045F27F43C5F60203984211DC45F258437B
:10340000C5F60203984217D045F26C4310E045F22E
:103410003043C5F6020398420ED045F2444307E01C
:1034200045F29443C5F60203984205D045F2804325
:10343000C5F60203984250D100F0FC034CF6CD478C
:10344000083BCCF6CC47A3FB0737A1F1FC05A1F163
:103450007C063B0905EB83022266A26803F01F038A
:103460000127802A666607FA03F2A26601D10022CC
:1034700062606268A56ED4E91876D3B2013A072A71
:103480003B60756015D85E1E072E62D8604501F15D
:10349000440213DC45F22F47C5F60207B8423CDC74
:1034A00045F20847C5F60207B8424BD045F21C4723
:1034B00044E000206067C4E91B0050E045F27F470C
:1034C000C5F60207B84231DC45F25847C5F6020797
:1034D000B84237D045F26C4730E000F0F8034AF6C6
:1034E000AB27103BCAF6AA27A3FB073740F20F43CE
:1034F000C4F2020308253E09984203F1AA023346AA
:1035000088BF05EB171340F600059042C4F2020590
:1035100028BF334605F180069CE745F23047C5F6E3
:103520000207B8420ED045F2444707E045F2804713
:10353000C5F60207B84205D045F29447C5F6020722
:10354000B84213D101EB8300E06601202267B0404E
:10355000606704F16C02002307CA03604A60002020
:103560006065012184F83510BDE8F08140F6000067
:10357000C4F2020000F1FC0100F5A072E2E70000D5
:103580002DE9F04F81B016460D46044600F058FF75
:10359000002C00F09982804694F83500022817D15B
:1035A00040F20F492068C4F20209484516DC6F2139
:1035B000C4F20201884226DC3F21C4F202018842A3
:1035C0003CDC1021C4F2020188425BD0282154E087
:1035D00080206065002084F8340075E240F26F417D
:1035E000C4F2020188421ADC40F23F41C4F20201F7
:1035F00088422ADC40F21041C4F20201884241D0E4
:1036000040F2284139E09F21C4F20201884225DCC2
:103610007021C4F20201884234D088212DE040F2AA
:103620009F41C4F2020188421FDC40F27041C4F2A3
:103630000201884226D040F288411EE04021C4F2B7
:10364000020188421ED0582117E040F24041C4F2E6
:103650000201884216D040F258410EE0A021C4F287
:10366000020188420ED0B82107E040F2B841C4F20E
:103670000201884206D040F2A041C4F20201884211
:1036800040F00E820068C00500F11B8210200095FA
:10369000002DE16D08BF2020A56D01F01F0100FA8B
:1036A00001FB05F1080A286810EA0B0F1BD00098EF
:1036B0000028206800F08481484500F399816F213B
:1036C000C4F20201884200F3D0813F21C4F202011A
:1036D000884200F31E821021C4F20201884200F0E9
:1036E0003B82282134E240F26F47C4F2020703E034
:1036F000286810EA0B0FDAD12068484510DC6F21EA
:10370000C4F2020188421CDC3F21C4F2020188425B
:1037100032DC1021C4F20201884252D028214BE051
:10372000B8421ADC40F23F41C4F2020188422ADC6E
:1037300040F21041C4F20201884242D040F22841D6
:103740003AE09F21C4F20201884225DC7021C4F2D4
:103750000201884235D088212EE040F29F41C4F218
:10376000020188421FDC40F27041C4F2020188422B
:1037700027D040F288411FE04021C4F20201884274
:103780001FD0582118E040F24041C4F202018842A3
:1037900017D040F258410FE0A021C4F20201884244
:1037A0000FD0B82108E040F2B841C4F202018842CB
:1037B00007D040F2A04100BFC4F20201884240F0AD
:1037C000F1802968E06D00F01F00012202FA00F08C
:1037D000084205D0616D41F002016165CAF8000040
:1037E0002968E06D00F01F00042202FA00F0084290
:1037F00005D0616D41F004016165CAF800002968D7
:10380000E06D00F01F00082202FA00F0084240F0CC
:103810001D81701C09D000F013FE002E00F05881AD
:10382000A0EB0800B04200F253812068B84219DCD6
:103830009F21C4F20201884231DC5721C4F2020107
:10384000884256DC1021C4F20201884200F09280C6
:103850002821C4F20201884200F08C804021C4F289
:10386000020184E045F22F41C5F6020188422BDCBB
:1038700040F2B741C4F20201884248DC40F2704194
:10388000C4F20201884275D040F28841C4F20201BC
:1038900088426FD040F2A041C4F2020167E040F2DA
:1038A0002741C4F20201884240DCA021C4F2020197
:1038B00088425FD0B821C4F2020188425AD040F257
:1038C0001041C4F2020152E045F26B41C5F602011B
:1038D00088423CDC45F23041C5F60201884249D0BD
:1038E00045F24441C5F60201884243D045F25841B1
:1038F0003BE05821C4F2020188423BD07021C4F25F
:103900000201884236D08821C4F202012FE040F241
:10391000B841C4F2020188422CD045F20841C5F6F4
:103920000201884226D045F21C411EE040F22841A7
:10393000C4F2020188421DD040F24041C4F20201AB
:10394000884217D040F25841C4F202010FE045F21C
:103950006C41C5F6020188420CD045F29441C5F68F
:103960000201884206D045F28041C5F60201884234
:103970007FF4BEAEE06E48B1D4E91C01026811428A
:1039800004D04160606D40F480606065D4E9190145
:10399000026811423FF4ACAE4160606D40F40070CB
:1039A0006065A5E62868E16D01F01F01C8400007C9
:1039B0007FF52FAF012000FA01F1296060654CE02E
:1039C00048454FF030012ADC6F22C4F202029042D7
:1039D00000F384803F22C4F20202904200F3C880C8
:1039E0001022C4F20202904200F0E6802822DEE0BB
:1039F00040F26F41C4F20201884242DC40F23F4192
:103A0000C4F20201884200F38B8040F21041C4F2FC
:103A10000201884200F0A08040F2284198E040F284
:103A20006F42C4F20202904264DC40F23F42C4F2B0
:103A30000202904200F3A38040F21042C4F202025C
:103A4000904200F0B98040F22842B0E0616D41F050
:103A500001016165CAF80000012084F835000021E9
:103A600084F8341001B0BDE8F08F9F21C4F2020148
:103A700088425EDC7021C4F2020188426CD0882149
:103A800066E040F29F41C4F20201884258DC40F2F5
:103A90007041C4F2020188425ED040F2884157E092
:103AA000006880060DD404200095002DE16D08BF4C
:103AB0000220A56D01F01F0100FA01FB05F1040AC7
:103AC000F1E54FF480706065012001B0BDE8F08F32
:103AD000202060652046FEF72FF9F5E79F22C4F20B
:103AE0000202904254DC7022C4F20202904263D07F
:103AF00088225CE040F29F42C4F2020290424EDC17
:103B000040F27042C4F20202904255D040F2884224
:103B10004DE04021C4F2020188421DD0582117E037
:103B200040F24041C4F20201884215D040F25841AF
:103B30000EE0A021C4F2020188420DD0B82107E0B6
:103B400040F2B841C4F20201884205D040F2A041DF
:103B5000C4F2020188423FD1E06D102100F01F0045
:103B600001FA00F0CAF80000002001B0BDE8F08FB3
:103B70004022C4F2020290421ED0582217E040F2C6
:103B80004042C4F20202904216D040F258420EE087
:103B9000A022C4F2020290420ED0B82207E040F206
:103BA000A042C4F20202904206D040F2B842C4F2EF
:103BB0000202904218BF0221E06D00F01F0001FADE
:103BC00000F0CAF80000012084F83500002084F8D5
:103BD000340001B0BDE8F08FE06D042100F01F005B
:103BE000BEE700000000000010B5D8B3044690F80E
:103BF0003400012801D1022010BD012084F83400D6
:103C000094F83500012827D1022084F835000020DF
:103C10006065D4F800C0DCF8000020F00100CCF8AA
:103C200000002046FDF738F940F20F412068C4F249
:103C30000201884218DC6F21C4F20201884228DCAC
:103C40003F21C4F2020188423EDC1021C4F202018D
:103C500088425BD0282156E04FF400606065002068
:103C600084F83400012010BD40F26F41C4F202011B
:103C700088421ADC40F23F41C4F2020188422ADC49
:103C800040F21041C4F2020188423FD040F2284184
:103C900039E09F21C4F20201884225DC7021C4F280
:103CA0000201884232D088212DE040F29F41C4F2C7
:103CB000020188421FDC40F27041C4F202018842D6
:103CC00024D040F288411EE04021C4F20201884223
:103CD0001CD0582117E040F24041C4F20201884252
:103CE00014D040F258410EE0A021C4F202018842F3
:103CF0000CD0B82107E040F2B841C4F2020188427A
:103D000004D040F2A041C4F202018842016841F0AF
:103D100001010160002010BDB0B5E0B3054690F888
:103D20003400012801D10220B0BD012085F8340003
:103D300095F83500012828D1022085F835000020AB
:103D400068652868046824F0010404602846FDF7CB
:103D5000A3F840F20F422868C4F2020240F26F4119
:103D60009042C4F2020118DC6F23C4F202039842AD
:103D700024DC3F23C4F2020398423ADC1023C4F24D
:103D80000203984259D0282352E04FF4006068653E
:103D9000002085F834000120B0BD88421ADC40F2D2
:103DA0003F43C4F2020398422ADC40F21043C4F2BB
:103DB0000203984241D040F2284339E09F23C4F2E5
:103DC0000203984225DC7023C4F20203984234D0E7
:103DD00088232DE040F29F43C4F2020398421FDC87
:103DE00040F27043C4F20203984226D040F2884366
:103DF0001EE04023C4F2020398421ED0582317E06D
:103E000040F24043C4F20203984216D040F25843B5
:103E10000EE0A023C4F2020398420ED0B82307E0BC
:103E200040F2B843C4F20203984206D040F2A043E5
:103E3000C4F20203984240F0238103680B2464F328
:103E4000440303602B6C1BB1082304682343036005
:103E5000884219DC9F23C4F20203984231DC5723C5
:103E6000C4F20203984256DC1023C4F202039842C3
:103E700000F091802823C4F20203984200F08B8066
:103E80004023C4F2020384E045F22F43C5F6020347
:103E900098422BDC40F2B743C4F20203984248DC5C
:103EA00040F27043C4F20203984274D040F2884357
:103EB000C4F2020398426ED040F2A043C4F202035F
:103EC00067E040F22743C4F20203984240DCA0239B
:103ED000C4F2020398425ED0B823C4F202039842AF
:103EE00059D040F21043C4F2020352E045F26B4352
:103EF000C5F6020398423CDC45F23043C5F60203A6
:103F0000984248D045F24443C5F60203984242D055
:103F100045F258433BE05823C4F2020398423AD09A
:103F20007023C4F20203984235D08823C4F20203FE
:103F30002FE040F2B843C4F2020398422BD045F27E
:103F40000843C5F60203984225D045F21C431EE003
:103F500040F22843C4F2020398421CD040F240438E
:103F6000C4F20203984216D040F25843C4F202034E
:103F70000FE045F26C43C5F6020398420BD045F2C0
:103F80009443C5F60203984205D045F28043C5F636
:103F9000020398426ED12B6E1C68E40303D51C68A3
:103FA00044F480741C60EB6E1BB11D6845F4807591
:103FB0001D60904210DC6F21C4F2020188421CDCBB
:103FC0003F21C4F20201884232DC1021C4F2020116
:103FD00088424FD028214AE088421ADC40F23F4113
:103FE000C4F2020188422ADC40F21041C4F202010C
:103FF00088423FD040F2284139E09F21C4F20201BB
:10400000884225DC7021C4F20201884232D0882126
:104010002DE040F29F41C4F2020188421FDC40F2D1
:104020007041C4F20201884224D040F288411EE06F
:104030004021C4F2020188421CD0582117E040F20E
:104040004041C4F20201884214D040F258410EE0CF
:10405000A021C4F2020188420CD0B82107E040F24E
:10406000B841C4F20201884204D040F2A041C4F237
:1040700002018842016841F0010101600020B0BDE9
:104080000368052464F3430303602B6C002B3FF4A7
:10409000DFAE0423D9E60000B0B5044600F0D0F945
:1040A00040F220610546C2F20041621C097818BF47
:1040B0000C4400BF00F0C4F9401BA042FAD3B0BDCD
:1040C000042818BF704780B582B00DF1060006F0D5
:1040D0006FFB41F2CA2CBDF80610C2F2014CBCF8CD
:1040E0000020022A31D0012A4AD0002A40F09680CE
:1040F00000EE101A42F228339FED551B9FED502B16
:10410000B8EE400B9FED503B20EE011B20EE022B42
:1041100021EE001BA2EE003B9FED4F2BA1EE003BDA
:10412000A0EE023B9FED4E0B83EE000BBDEEC00BED
:1041300010EE101A01F5FA6292B29A426ED840F26D
:104140006452C2F20042918068E000EE101A42F21E
:1041500028329FED371B9FED382BB8EE400BA0EEB9
:10416000012BBDEEC20B10EE101A01F5FA6080B201
:10417000904253D840F26450C2F2004041804DE07A
:1041800000EE101A42F228309FED311B9FED2C2BD0
:10419000B8EE400B9FED2C3B20EE011B20EE022BD6
:1041A00021EE001BA2EE003B9FED2B2BA1EE003B6E
:1041B000A0EE023B9FED2A0B83EE000BBDEEC00B81
:1041C00010EE102A02F5FA639BB2834204D840F243
:1041D0006450C2F20040028041F2D422C2F2014295
:1041E0001088D8B946F2604EC2F2004E9EF80030F8
:1041F00001338EF80030D8B203280FD141F62C637A
:1042000041F63060C2F20143C2F201404FF0010EAC
:10421000A2F800E01B680068198201820320ACF854
:10422000000002B0BDE88040704700BF00BF00BF83
:1042300014AE47E17A1400C0000000002021E240E3
:10424000F163CC5D04BFFD409AAA3E11B92AA74292
:10425000F2D24D62101810C0E63F6C01A525DBC1FB
:104260000000000065CDCD418821C5F600010A6837
:10427000024208BF70470860FFF722BF000000003D
:104280002DE9F04F82B00C68002C00F0C58000F1E1
:10429000264242F2004302F1FF72C5F602030A27EA
:1042A00098424FEAB22540F2040E08BF0927092DB3
:1042B000C5F6000E38BF4FEAB22700224FF0030CBC
:1042C00000970026002709E001370C6834FA07F34D
:1042D00006F1020602F1040200F09E80012303FAB7
:1042E00007FA14EA0A09EFD0D1F804B00BF003047E
:1042F000A4F10108B8F1010F11D8D0F808800CFA28
:1043000006F3CD6828EA0303B5402B438360CBF363
:104310000015436823EA0A03BD402B434360032C86
:104320001DD0C3680CFA06F5AB438D68B540022C6E
:1043300043EA0503C36012D16FF0030302F01C05CA
:1043400003EA57030F24034404FA05FAD3F8208044
:104350000C6928EA0A08AC4044EA08041C620368B5
:104360000CFA06F44D68A34305F0030415F4403F2E
:1043700004FA06F443EA04030360A5D044F2F444CB
:1043800040F2084AC5F60204C5F6000A0F25236864
:1043900043F002032360236803F00203019327F034
:1043A0000303019C02F00C0453F80A80A54028EA9C
:1043B0000508009D05FA04F444EA080443F80A409D
:1043C0004FF0B04ADAF800804C6848EA0905E30289
:1043D00058BF28EA0905A302CAF80050DEF8008099
:1043E00048EA090558BF28EA0905A303CEF800509A
:1043F000DEF8808048EA090558BF28EA0905E40389
:10440000CEF88050DEF87C3043EA090558BF23EA35
:104410000905CEF87C5057E702B0BDE8F08F0000E8
:10442000002A08BF090481617047000000000000F5
:1044300041F20000C5F600400068000C7047000023
:1044400044F60810C2F20340006870470000000004
:1044500090F84120202A03D190F84020012A01D170
:1044600002207047242280F841200268136823F05C
:1044700001031360136823F4805313601368194316
:104480001160116841F001011160202180F8411094
:10449000002180F84010084670470000000000002E
:1044A00090F84120202A03D190F84020012A01D120
:1044B00002207047242280F841200268136823F00C
:1044C00001031360136823F4706343EA0121116050
:1044D000116841F001011160202180F84110002194
:1044E00080F840100846704700284CD010B50446AC
:1044F00090F8410028B9002084F84000204600F0E0
:104500003BFA242084F8410094E80310E36821F08A
:1045100070610268012B22F00102026001614FF418
:104520000442816808BF4FF40042022B21F400418D
:1045300081604CEA0201816002D14FF40061416068
:10454000416804F1100C41F0007141F400414160F8
:10455000C16821F40041C1609CE80E10114341EA9A
:104560000321C160216A41EA0C010160016841F048
:104570000101016000206064202184F84110206363
:1045800084F8420010BD01207047000000000000C8
:104590002DE9F04F81B0044690F84100202803D166
:1045A00094F84000012803D1022001B0BDE8F08F4B
:1045B0001F4616468846012084F84000FFF740FF5A
:1045C000216805468969090426D4222084F841001F
:1045D000102084F8420000206064666240F2000906
:1045E0006785C0F2FF196063608DB0F5807F49F682
:1045F0000000CFF6004021D32168FF2222854346E8
:104600006FF39F2351F8042F024009F5105723E060
:10461000206880690004D8D5FFF712FF401B1A28D4
:10462000F6D3206880690004F2D5606C40F0200069
:104630006064202084F8410001208DE0618D4246B5
:104640006FF39F222185CBB2216809F5923742EAA8
:10465000034251F8043F03401A433A430A60618D14
:104660000A9F002959D06FF39F287E1C4FF0FF0A44
:1046700000F5806B12E000BF618D4FF00073206881
:104680002185CAB248EA024150F8042F02EA0B021F
:10469000114319430160608D00283ED02046394601
:1046A0002A4603F095FB00285ED12068616A406AC3
:1046B0000870218D606A01306062481E2085618D1E
:1046C00001396185618D0029E5D0000404D0E2E75D
:1046D000206880690006A8D520688069000609D492
:1046E000002EF9D0FFF7ACFE002FF1D0401BB842EE
:1046F000F2D9EDE7608DB0F5807FBDD32068A4F8D6
:1047000028A042464B4650F8041F01EA0B01BFE7C0
:104710002068806980067FF588AF20688069800600
:104720000DD4204639462A4603F0B6FAE0B9FFF721
:1047300087FE002FECD0401BB842EED9E8E7206896
:1047400020214EF60003C161CFF6006342681A4093
:104750004260002084F84110002184F8421084F85F
:10476000401001B0BDE8F08F012001B0BDE8F08F2E
:104770002DE9F04F81B0044690F84100202803D184
:1047800094F84000012803D1022001B0BDE8F08F69
:104790001F4616468846012084F84000FFF750FE69
:1047A000216805468969090426D4212084F841003E
:1047B000102084F8420000206064666240F2000924
:1047C0006785C0F2FF196063608DB0F5807F49F6A0
:1047D0000000CFF6004021D32168FF222285434606
:1047E0006FF39F2351F8042F024009F5005723E08F
:1047F000206880690004D8D5FFF722FE401B1A28E4
:10480000F6D3206880690004F2D5606C40F0200087
:104810006064202084F841000120A3E0618D4246BD
:104820006FF39F222185CBB2216809F5903742EAC8
:10483000034251F8043F03401A433A430A60618D32
:104840000A9F00296BD06FF39F287E1C4FF0FF0A50
:1048500000F5806B04E000BF206880698007D4D534
:1048600020688069800710D4204639462A4603F024
:1048700013FA002865D1002EF2D0FFF7E1FD002FDA
:10488000EAD0401BB842EBD9E6E7616A206811F82C
:10489000012B82626162618D01396185218D01394F
:1048A0002185628D8AB3090405D02EE020688069D5
:1048B0000006AAD520688069000609D4002EF9D028
:1048C000FFF7BEFD002FF1D0401BB842F2D9EDE753
:1048D000608DB0F5807F09D32068A4F828A04246F7
:1048E0004B4650F8041F01EA0B010BE0618D4FF0BD
:1048F000007320682185CAB248EA024150F8042FAB
:1049000002EA0B02114319430160608D0028A7D110
:1049100005E000BF2068806980067FF576AF2068DB
:104920008069800611D4204639462A4603F0B4F93E
:1049300038B9FFF785FD002FECD0401BB842EED907
:10494000E8E7012001B0BDE8F08F206820214EF695
:104950000003C161CFF6006342681A404260002044
:1049600084F84110002184F8421084F8401001B00E
:10497000BDE8F08F00000000B0B5B8B0044602A852
:10498000C0210025CDE93655CDE934553395FBF7E7
:1049900028FD45F600012068C4F20001884201D0DC
:1049A00038B0B0BD0820029002A80395239501F00D
:1049B0005FF808B1FCF7FCFB44F2E04433A9C5F60C
:1049C0000204206840F002002060206800F002002D
:1049D000019001984FF440603390122034900120F0
:1049E0003590002036900420379040F20040C5F604
:1049F0000200FFF745FCA06840F48000A060A068BA
:104A000000F480000190019838B0B0BD00000000B3
:104A100040F2206044F60811C2F20040C2F20341A5
:104A200000780A6810440860704700000000000029
:104A300080B5032000F0D8F801F0D2FE44F218410E
:104A40004DF66043C5F60201C0F600030A68096826
:104A500001F00F01C2F30322595C9A5C01F01F01BF
:104A600002F01F02D04040F2B842C2F2004220FAE7
:104A700001F1116040F2B441C2F2004108600F2020
:104A800000F00AF800281CBF012080BD00F054F897
:104A9000002080BD00000000B0B58AB00F283DD8CE
:104AA0000446192000222146002500F06DF8192047
:104AB00000F05AF840F22460C2F20040046044F270
:104AC000F040C5F60200016841F001010160006894
:104AD00001A900F001000290029802A801F0FCFD7B
:104AE00001F04EFE4DF683614000C4F21B310022FE
:104AF000A0FB010141F67450C2F201404FF0FF33B8
:104B0000C4F20102026003EB9141C0E9011540F2D9
:104B1000E731C0E9031502F04BFF10B101200AB0E4
:104B2000B0BD41F67450C2F2014002F075FF0AB008
:104B3000B0BD00000000000081B044F2F44000224B
:104B4000C5F60200016841F00201016000680F2112
:104B500000F0020000906FF00100009B01B000F037
:104B600013B8000000000000002848BF704700F0A4
:104B70001F01012202FA01F14EF200124009CEF2A9
:104B8000000242F82010704770B54EF60C5C4FF0F2
:104B9000FF36CEF2000C00F1604505F56445DCF807
:104BA0000030C3F3022E8EF00703042B28BF04232A
:104BB000BEF1030406FA03F321EA030100F00F0338
:104BC00038BF0024043B0028634406FA04F048BFC1
:104BD00003F10C05A14022EA0000084300012870FF
:104BE00070BD0000000000004EF60C514FF6FF03B0
:104BF000CEF200010A681A4060F30A2242F0806097
:104C000040F0FD700860704701680122C0F800257F
:104C1000002280F8F424886940F000608861486DC3
:104C200040F08052002042F003024A6570470000C5
:104C300070470000000000000268002051627047C9
:104C4000B0B5D0F800E0DEF82400D1B1DEF82830AD
:104C5000B1F1010C00EB13430BD05FFA8CF10EF5B0
:104C60008070002450F8045F01348C4203EB15433C
:104C7000F8D30EEB8C0043EA0241C0F80411002087
:104C8000B0BD40EA0240CEF828000020B0BD0000D0
:104C9000D0F8080504F080BA01EBC10200EB8202F3
:104CA000D0F80805926C04F0E3B9000000000000A1
:104CB00001EBC10200EB8202D0F80805D2F888228D
:104CC00004F02EBA00000000D0F8080504F068BA1D
:104CD00010B54AB2044601F00F00B2F1FF3F00EBFD
:104CE000C00104EB810205DD02F51F71002382F88B
:104CF0007D3204E002F13C01012382F83D3094F85A
:104D0000BC240870012A01D1022010BD012084F8C2
:104D1000BC04206805F01CF8002084F8BC0410BD19
:104D2000B0B5044601F00F006268824201D2012052
:104D3000B0BD49B2B1F1FF3F09DD00EBC001002376
:104D400004EB810202F51F7182F87D3208E000EB6E
:104D5000C001012304EB810202F13C0182F83D30E5
:104D600094F8BC2400258D70012A087001D102201E
:104D7000B0BD012084F8BC04206805F079F928460C
:104D800084F8BC54B0BD000070B54CB2064601F0CA
:104D90000F00B4F1FF3F00EBC00107DD06EB81041B
:104DA000002504F51F7184F87D5206E006EB810CA6
:104DB00001240CF13C018CF83D404D7808708A606C
:104DC000002D0B7118BF4883022B01D100204871C0
:104DD00096F8BC04012801D1022070BD012086F89C
:104DE000BC04306804F0D4FE002086F8BC0470BD1A
:104DF00080B501F00F0E0EEBCE0100EB810C00210F
:104E0000CCE9A331C368CCF888228CF87D12012B41
:104E10008CF87CE20CF51F7108BFCCF89822DAB24E
:104E2000006805F06DF9002080BD00000000000062
:104E3000B0B5044601F00F054068854201D9012054
:104E4000B0BD48B2B0F1FF3F09DD01EBC100002267
:104E500004EB800000F51F7180F87D2208E005EB6F
:104E6000C500012204EB800000F13C0180F83D20E8
:104E700094F8BC2401208870012A0D7001D1022011
:104E8000B0BD84F8BC04206805F01AF92DB9217B67
:104E9000206804F2C44205F0BBF8002084F8BC048A
:104EA000B0BD00000000000080B501F00F0E0EEB59
:104EB000CE0100EB810C614601F83CEF4FF0000E93
:104EC000C1F814E04FF0010E81F801E0D0F80CE0D9
:104ED000CA60BEF1010F0B6108BFCCF858205FFA21
:104EE0008EF2006805F00CF9002080BD0000000083
:104EF0002DE9F04F89B005688246284605F080FA12
:104F000010B109B0BDE8F08FDAF8000005F0A8FA9A
:104F10000028F6D0D5F80808C0F30D20CAF8FC0424
:104F2000DAF8000005F09CFA800705D5DAF80000F1
:104F3000416901F002014161DAF8000005F50066FF
:104F400005F08EFAC00605953ED5DAF800008169B5
:104F500021F0100181612C6A04F00F05C4F3434075
:104F6000062819D0022828D147F6F07014EA000864
:104F700023D005EBC5004FEA18140AEB800705980B
:104F80002246D7F8881205F06FFAD7F8880200EBAE
:104F90001810C7F8880207E00AF2C44108220598F1
:104FA00005F062FAC4F30A1405EBC5000AEB8000B1
:104FB000D0F890122144C0F89012DAF8000081690C
:104FC00041F010018161059DDAF80000049605F0BA
:104FD00047FA0003CDF820A040F10381DAF8000081
:104FE00005F01AFA002800F0FC8006464FF43068FD
:104FF00000244FF0000B0AF2C440079009E000BF04
:105000000BF1010B760808F1200804F1240400F0EC
:10501000E880F007F4D05FFA8BF9DAF8000049462F
:1050200005F016FA8246C0076CD005EB0800012196
:105030008160089F386808EB0001036C8A68FF688C
:10504000012F2AD117073BD4970658D412F0280F06
:10505000059D57D143F20B07C4F65477BB4202D3E8
:1050600012F4004248D1089F002C07EB0402D2F84A
:105070009C3209696FF3DF41A3EB0101C2F8901282
:1050800040F0AD80D2F88C32002B00F0A380D2F833
:1050900088020844C2F88802A0E043F20B07C4F675
:1050A0005477FF37BB4219D1100425D49006059DD3
:1050B00001D52020886008984946FFF7F9FD21E0D6
:1050C00043F20B00059DC4F6547083421AD312F4C8
:1050D000004017D04FF40040886013E03CB90899B5
:1050E000D1F88C1219B90021079A04F091FF0898A1
:1050F0004946FFF7DDFD04E04FF4004000E02020CA
:105100008860059D5FEA0A7026D505EB0800082136
:10511000816043F20B010898C4F654714F1E006879
:10512000056C4044BD42816805D911F400411CBFA3
:105130004FF400418160089800F026FCBD42059DB7
:105140000AD90898C068012806D108980121079A51
:10515000006804F05DFF00BF5FEACA6016D45FEA32
:105160008A701AD45FEA8A6003D505EB0800202113
:1051700081605FEA8A40DDF820A07FF541AF05EB52
:1051800008004FF4005181603AE700BF05EB0800CA
:10519000102181605FEA8A70E4D56869000604D551
:1051A0000499486840F4806048600898204490F86A
:1051B0007F12012906D1002180F87F120898494604
:1051C00000F0A6FA05EB0800022181605FEA8A6020
:1051D000CBD4CEE70121079A04F01AFF089F384686
:1051E00086E7DAF80000AB4605F03AF9400340F1F3
:1051F000E380DAF8000005F007F9002800F0DC8011
:10520000064600270BF5106003900AF2C440029096
:1052100005E000BF760807F1010700F0CD80F00738
:10522000F8D0F9B2DAF80000079105F0FDF804466D
:10523000C007039D0AD1200732D4E00636D46006A9
:105240003AD4A0073ED42006E4D554E0049B07F0EE
:105250000F004FF0010C05EB47120CFA00F0596BF0
:1052600021EA00005863C2F808C0DAF80C000128EF
:1052700010D107EBC7000AEB8000D0E911121144EE
:1052800081643FB9C06C28B9DAF800000121029AA4
:1052900004F0BEFE50460799FFF7FEFC2007CCD570
:1052A00005EB471008218160E006C8D505EB4710E3
:1052B000102181606006C4D505EB47104021816054
:1052C000A007C0D55846394605F062F807EBC7007D
:1052D0000AEB800010F83F1F012905D10021017061
:1052E0005046079900F010FA05EB47100221816043
:1052F00020067FF58FAF07EBC7000AEB80008146E1
:1053000059F84C1FC84658F8042F9142FFF482AF59
:105310008346DAF80030891A5BF8442F914238BF8F
:105320000A4603EB471106930332D1F818399BB2B2
:10533000B3EB920F28D301F5106A00F1480500BFC6
:10534000D8F80000D9F8001081421DD9081A089930
:10535000DBF80040A0420A7B38BF0446296800926F
:10536000A3B2DDE9060205F07BF928682044286035
:10537000D8F800002044C8F80000E01CDAF8181043
:1053800089B2B1EB900FDBD2D9F80000D8F8001049
:105390008842DDF820A0DDF814B03FF63BAF069A56
:1053A00007F00F00012101FA00F0D2F8341821EAC9
:1053B0000000C2F834082DE7DAF8000005F050F8D4
:1053C000B0F1FF3F049C18DC606820F001006060D1
:1053D0009AF8F404012807D100208AF8F404002187
:1053E0005046FFF725FC02E0504600F0B1FADAF82B
:1053F0000000416901F000414161DAF8000005F068
:105400002FF800050BD5A068C00702D0504600F069
:10541000E3FADAF80000416901F400614161DAF869
:10542000000005F01DF8000118D5DAF80000416908
:1054300001F0006141619AF8F41419B1504600F08E
:10544000CBFA0BE001218AF8F414406D0121C0F37E
:105450008300CAF8F8045046FFF7EAFBDAF80000C8
:1054600004F0FEFFC00453D56068102120F0010055
:105470006060DAF8000004F08BFFDAF80400D0B1C5
:105480000BF510614FF67F328A6001380B6823F408
:1054900000130B60C1F80822D1F8003223F4001386
:1054A000C1F80032D1F8003243F00063C1F8003295
:1054B00001F12001E8D1E06940F00110E061DAF883
:1054C000300040B1D4F8840040F00B00C4F88400F0
:1054D00004F1440006E0606942F22B010843606178
:1054E00004F1100001680AF2C44241F00B010160AE
:1054F000206820F4FE6020609AF80C10DAF80000B2
:1055000004F086FDDAF80000416901F48051416140
:10551000DAF8000004F0A4FF80041CD5DAF80000DB
:1055200004F07AFBDAF8000004F05AFFCAF8100021
:10553000DAF8004001F0FCF89AF810200146204605
:1055400005F002F8504600F0EBF9DAF80000416986
:1055500001F400514161DAF8000004F081FF000716
:1055600008D5504600F0F8F9DAF80000416901F07A
:1055700008014161DAF8000004F072FF000629D545
:105580000599886920F080008861DAF80400022813
:1055900020D3012440F2A32507E000BF0134DAF84C
:1055A0000400844205F1240514D21AF805000128EC
:1055B000F4D104F00F00220600EBC0000AEB8000DB
:1055C00000F13C0158BF00F51F71DAF8000004F04B
:1055D00093FEE3E7DAF8000004F042FFC00230D5A2
:1055E000DAF80400022826D305980AF1640500F5CC
:1055F00012640126012708E00137DAF80400874227
:1056000004F1200405F1240515D220682978012928
:10561000F2D1B0F1FF3FEFDC07F00F0005F8016CAD
:1056200000EBC0000AEB800000F13C01DAF800005A
:1056300004F062FEE0E7DAF80000416901F480114D
:105640004161DAF8000004F00BFF800235D5DAF88A
:105650000410059D02292AD305F5326001390AF5A7
:105660002972012306E000BF013900F1200002F198
:1056700024021CD007681678012EF5D1B7F1FF3F40
:10568000F2DCDAF8FC6407F4803706F00106B74272
:10569000EAD102F8013CAF6947F08007AF616F695A
:1056A0003F06E1D40499486840F400704860DAF895
:1056B0000000416901F400114161DAF8000004F0D2
:1056C000CFFE400008D55046FFF7E2FADAF80000B6
:1056D000416901F080414161DAF8000004F0C0FE48
:1056E00040077FF50EACDAF800004468600702D589
:1056F0005046FFF7E9FADAF80000416821434160BB
:1057000009B0BDE8F08F0000D0F8080503F0A4BD93
:10571000D0F8080503F0B4BD2DE9F04F8BB0002898
:1057200000F085800446056890F8BD0428B9002083
:1057300084F8BC04204600F093F8032084F8BD04EC
:10574000E86BC00501D40020E060206804F058FC3C
:1057500020680A9004F1040E04F11C0AD4E90C50EC
:105760009EE80E589AE8C007CDE9085003A88DE8D6
:10577000005880E8C0070A9804F05EFA002853D168
:1057800020680021002504F097FE616871B30120B4
:105790000023002203EBC30304EB8307D3B287F893
:1057A0003C200132A7F85630D3B287F83D00994229
:1057B00087F840507D64BD64FD64EBD80020002371
:1057C000002200BF03EBC30304EB830787F87C22AE
:1057D0000132D3B287F87D02994287F88002C7F878
:1057E0008402C7F88802C7F88C02EBD804F1140EC3
:1057F00004F1240A2268A0680A90D4E903379EE8DD
:1058000040589AE80007D4E90C50CDE9085002A8A6
:10581000CDE9007680E8005805A880E8000710462A
:105820000A9A04F0F9FA30B1022084F8BD0401208C
:105830000BB0BDE8F08F002084F83800012084F818
:10584000BD04606A012802D12046FFF7DDF9206817
:1058500004F0D2FA00200BB0BDE8F08F0000000089
:10586000B0B5B8B0044602A8C0210025CDE9365530
:10587000CDE934553395FAF7B4FD00212068C4F220
:105880000801884201D038B0B0BD4FF480200290AA
:1058900001200C9009200D9002240320CDE90F0473
:1058A0004FF44060119013904FF40010249002A820
:1058B00003950E9400F0DCF808B1FBF779FC00F0DA
:1058C000CBF844F2D84533A9C5F60205A86840F0E4
:1058D0000100A860A86800F00100019001984FF451
:1058E000C050CDE933040020CDE935000A203790BF
:1058F0000020C5F60200FEF7C3FC2868052140F031
:10590000006028602868002200F000600190019883
:105910006520FFF739F96520FFF726F938B0B0BDEB
:1059200010B50446006918B1022803D1012104E032
:10593000002102E0FBF73CFC0121D4F8080503F04C
:105940002BFDD4F80805BDE8104003F0D5BC0000DD
:10595000D0F8080503F004BDD0F8080503F00CBD2D
:1059600010B5044690F8BC04012801D1022010BDF6
:10597000012084F8BC0484F83810206804F0D0FDBD
:10598000002084F8BC0410BDD0F8082500F2C44102
:10599000104603F019BD000010B5044690F8BC0491
:1059A000012801D1022010BD2068012184F8BC1417
:1059B000C16BC90506D4A16A012903D1816B41F4E9
:1059C0008031816304F0DCFC206804F005FA0020DB
:1059D00084F8BC0410BD000010B50446D0F80805DA
:1059E00003F04AFD2068D0F8001E41F00101C0F824
:1059F000001E206A002808BF10BD4EF61050CEF2DF
:105A00000000016841F00601016010BD00000000C7
:105A1000B0B544F60C05C5F60205296849072968A2
:105A200005D401F00701081A18BF0120B0BD21F00C
:105A3000070108432860FEF703FD044655F8080CEB
:105A4000800407D4FEF7FCFC001BB0F57A7FF5D983
:105A50000120B0BD0020B0BD44F60C00C5F6020028
:105A6000016841F080710160704700000000000093
:105A70002DE9F04381B00446C07844F22C49000778
:105A8000C5F6020901D400252EE0A06E4FEA305081
:105A900003280DD80025DFE800F0020E1714D9F80E
:105AA0000000002540F40030C9F8000055B913E0AB
:105AB00001253DB910E004F10800022102F04CFA82
:105AC00005464DB1A84611E004F12800022102F07C
:105AD000D3FA0546002DF5D1D9F82400A16E20F4A3
